{
  "_format": "hh-sol-artifact-1",
  "contractName": "Battle",
  "sourceName": "contracts/Battle.sol",
  "abi": [
    {
      "inputs": [
        {
          "internalType": "address",
          "name": "_token",
          "type": "address"
        },
        {
          "internalType": "address",
          "name": "_operator",
          "type": "address"
        },
        {
          "internalType": "address",
          "name": "_staking",
          "type": "address"
        },
        {
          "internalType": "address",
          "name": "_team",
          "type": "address"
        },
        {
          "internalType": "address",
          "name": "_erc1155",
          "type": "address"
        },
        {
          "internalType": "address",
          "name": "_erc721",
          "type": "address"
        }
      ],
      "stateMutability": "nonpayable",
      "type": "constructor"
    },
    {
      "anonymous": false,
      "inputs": [
        {
          "indexed": true,
          "internalType": "uint256",
          "name": "id",
          "type": "uint256"
        },
        {
          "indexed": true,
          "internalType": "address",
          "name": "winner",
          "type": "address"
        },
        {
          "indexed": true,
          "internalType": "uint256",
          "name": "bet",
          "type": "uint256"
        }
      ],
      "name": "endedGame",
      "type": "event"
    },
    {
      "anonymous": false,
      "inputs": [
        {
          "indexed": true,
          "internalType": "uint256",
          "name": "id",
          "type": "uint256"
        },
        {
          "indexed": true,
          "internalType": "address",
          "name": "player",
          "type": "address"
        },
        {
          "indexed": true,
          "internalType": "uint256",
          "name": "bet",
          "type": "uint256"
        }
      ],
      "name": "joinedGame",
      "type": "event"
    },
    {
      "anonymous": false,
      "inputs": [
        {
          "indexed": true,
          "internalType": "uint256",
          "name": "id",
          "type": "uint256"
        },
        {
          "indexed": true,
          "internalType": "address",
          "name": "creator",
          "type": "address"
        },
        {
          "indexed": true,
          "internalType": "uint256",
          "name": "bet",
          "type": "uint256"
        }
      ],
      "name": "newGame",
      "type": "event"
    },
    {
      "inputs": [
        {
          "internalType": "uint256",
          "name": "",
          "type": "uint256"
        }
      ],
      "name": "Gamelist",
      "outputs": [
        {
          "internalType": "address",
          "name": "operator",
          "type": "address"
        },
        {
          "internalType": "address",
          "name": "player1",
          "type": "address"
        },
        {
          "internalType": "address",
          "name": "player2",
          "type": "address"
        },
        {
          "internalType": "uint256",
          "name": "stakes",
          "type": "uint256"
        },
        {
          "internalType": "address",
          "name": "winner",
          "type": "address"
        },
        {
          "internalType": "uint256",
          "name": "startedAt",
          "type": "uint256"
        }
      ],
      "stateMutability": "view",
      "type": "function"
    },
    {
      "inputs": [],
      "name": "LPstaking",
      "outputs": [
        {
          "internalType": "address",
          "name": "",
          "type": "address"
        }
      ],
      "stateMutability": "view",
      "type": "function"
    },
    {
      "inputs": [
        {
          "internalType": "uint256",
          "name": "_id",
          "type": "uint256"
        }
      ],
      "name": "cancel",
      "outputs": [
        {
          "internalType": "bool",
          "name": "",
          "type": "bool"
        }
      ],
      "stateMutability": "nonpayable",
      "type": "function"
    },
    {
      "inputs": [
        {
          "internalType": "uint256",
          "name": "_bet",
          "type": "uint256"
        }
      ],
      "name": "createGame",
      "outputs": [
        {
          "internalType": "uint256",
          "name": "id",
          "type": "uint256"
        },
        {
          "internalType": "uint256",
          "name": "bet",
          "type": "uint256"
        },
        {
          "internalType": "bool",
          "name": "started",
          "type": "bool"
        }
      ],
      "stateMutability": "payable",
      "type": "function"
    },
    {
      "inputs": [
        {
          "internalType": "uint256",
          "name": "id",
          "type": "uint256"
        },
        {
          "internalType": "address",
          "name": "winner",
          "type": "address"
        }
      ],
      "name": "endGame",
      "outputs": [
        {
          "internalType": "bool",
          "name": "",
          "type": "bool"
        }
      ],
      "stateMutability": "nonpayable",
      "type": "function"
    },
    {
      "inputs": [
        {
          "internalType": "uint256",
          "name": "_start",
          "type": "uint256"
        }
      ],
      "name": "getAllActive",
      "outputs": [
        {
          "internalType": "uint256[]",
          "name": "",
          "type": "uint256[]"
        },
        {
          "internalType": "uint256[]",
          "name": "",
          "type": "uint256[]"
        },
        {
          "internalType": "uint256[]",
          "name": "",
          "type": "uint256[]"
        }
      ],
      "stateMutability": "view",
      "type": "function"
    },
    {
      "inputs": [
        {
          "internalType": "address",
          "name": "_add",
          "type": "address"
        }
      ],
      "name": "getAllDrawnOf",
      "outputs": [
        {
          "internalType": "uint256[]",
          "name": "",
          "type": "uint256[]"
        }
      ],
      "stateMutability": "view",
      "type": "function"
    },
    {
      "inputs": [
        {
          "internalType": "address",
          "name": "_add",
          "type": "address"
        }
      ],
      "name": "getAllLostOf",
      "outputs": [
        {
          "internalType": "uint256[]",
          "name": "",
          "type": "uint256[]"
        }
      ],
      "stateMutability": "view",
      "type": "function"
    },
    {
      "inputs": [
        {
          "internalType": "address",
          "name": "_add",
          "type": "address"
        }
      ],
      "name": "getAllPlayedOf",
      "outputs": [
        {
          "internalType": "uint256[]",
          "name": "",
          "type": "uint256[]"
        }
      ],
      "stateMutability": "view",
      "type": "function"
    },
    {
      "inputs": [
        {
          "internalType": "address",
          "name": "_add",
          "type": "address"
        }
      ],
      "name": "getAllWonOf",
      "outputs": [
        {
          "internalType": "uint256[]",
          "name": "",
          "type": "uint256[]"
        }
      ],
      "stateMutability": "view",
      "type": "function"
    },
    {
      "inputs": [
        {
          "internalType": "address",
          "name": "_add",
          "type": "address"
        }
      ],
      "name": "getDrawPercentageOf",
      "outputs": [
        {
          "internalType": "uint256",
          "name": "",
          "type": "uint256"
        }
      ],
      "stateMutability": "view",
      "type": "function"
    },
    {
      "inputs": [
        {
          "internalType": "uint256",
          "name": "_id",
          "type": "uint256"
        }
      ],
      "name": "getGame",
      "outputs": [
        {
          "internalType": "uint256",
          "name": "",
          "type": "uint256"
        },
        {
          "internalType": "uint256",
          "name": "",
          "type": "uint256"
        },
        {
          "internalType": "address",
          "name": "",
          "type": "address"
        },
        {
          "internalType": "address",
          "name": "",
          "type": "address"
        },
        {
          "internalType": "address",
          "name": "",
          "type": "address"
        }
      ],
      "stateMutability": "view",
      "type": "function"
    },
    {
      "inputs": [
        {
          "internalType": "address",
          "name": "_add",
          "type": "address"
        }
      ],
      "name": "getLoosePercentageOf",
      "outputs": [
        {
          "internalType": "uint256",
          "name": "",
          "type": "uint256"
        }
      ],
      "stateMutability": "view",
      "type": "function"
    },
    {
      "inputs": [
        {
          "internalType": "uint256",
          "name": "_id",
          "type": "uint256"
        }
      ],
      "name": "getState",
      "outputs": [
        {
          "internalType": "uint256",
          "name": "",
          "type": "uint256"
        }
      ],
      "stateMutability": "view",
      "type": "function"
    },
    {
      "inputs": [
        {
          "internalType": "address",
          "name": "_add",
          "type": "address"
        }
      ],
      "name": "getTotalGamesDrawnOf",
      "outputs": [
        {
          "internalType": "uint256",
          "name": "",
          "type": "uint256"
        }
      ],
      "stateMutability": "view",
      "type": "function"
    },
    {
      "inputs": [
        {
          "internalType": "address",
          "name": "_add",
          "type": "address"
        }
      ],
      "name": "getTotalLostOf",
      "outputs": [
        {
          "internalType": "uint256",
          "name": "",
          "type": "uint256"
        }
      ],
      "stateMutability": "view",
      "type": "function"
    },
    {
      "inputs": [
        {
          "internalType": "address",
          "name": "_add",
          "type": "address"
        }
      ],
      "name": "getTotalPlayedOf",
      "outputs": [
        {
          "internalType": "uint256",
          "name": "",
          "type": "uint256"
        }
      ],
      "stateMutability": "view",
      "type": "function"
    },
    {
      "inputs": [
        {
          "internalType": "address",
          "name": "_add",
          "type": "address"
        }
      ],
      "name": "getTotalWonOf",
      "outputs": [
        {
          "internalType": "uint256",
          "name": "",
          "type": "uint256"
        }
      ],
      "stateMutability": "view",
      "type": "function"
    },
    {
      "inputs": [
        {
          "internalType": "address",
          "name": "_add",
          "type": "address"
        }
      ],
      "name": "getWLOf",
      "outputs": [
        {
          "internalType": "uint256",
          "name": "",
          "type": "uint256"
        }
      ],
      "stateMutability": "view",
      "type": "function"
    },
    {
      "inputs": [
        {
          "internalType": "address",
          "name": "_add",
          "type": "address"
        }
      ],
      "name": "getWinPercentageOf",
      "outputs": [
        {
          "internalType": "uint256",
          "name": "",
          "type": "uint256"
        }
      ],
      "stateMutability": "view",
      "type": "function"
    },
    {
      "inputs": [
        {
          "internalType": "uint256",
          "name": "_id",
          "type": "uint256"
        }
      ],
      "name": "joinGame",
      "outputs": [
        {
          "internalType": "bool",
          "name": "",
          "type": "bool"
        }
      ],
      "stateMutability": "payable",
      "type": "function"
    },
    {
      "inputs": [],
      "name": "latestGame",
      "outputs": [
        {
          "internalType": "uint256",
          "name": "",
          "type": "uint256"
        }
      ],
      "stateMutability": "view",
      "type": "function"
    },
    {
      "inputs": [],
      "name": "owner",
      "outputs": [
        {
          "internalType": "address",
          "name": "",
          "type": "address"
        }
      ],
      "stateMutability": "view",
      "type": "function"
    },
    {
      "inputs": [
        {
          "internalType": "address",
          "name": "_add",
          "type": "address"
        }
      ],
      "name": "playingOn",
      "outputs": [
        {
          "internalType": "uint256",
          "name": "",
          "type": "uint256"
        }
      ],
      "stateMutability": "view",
      "type": "function"
    },
    {
      "inputs": [],
      "name": "renouceOwner",
      "outputs": [],
      "stateMutability": "nonpayable",
      "type": "function"
    },
    {
      "inputs": [
        {
          "internalType": "uint256",
          "name": "_id",
          "type": "uint256"
        }
      ],
      "name": "resign",
      "outputs": [
        {
          "internalType": "bool",
          "name": "",
          "type": "bool"
        }
      ],
      "stateMutability": "nonpayable",
      "type": "function"
    },
    {
      "inputs": [
        {
          "internalType": "address",
          "name": "_add",
          "type": "address"
        }
      ],
      "name": "setOperator",
      "outputs": [],
      "stateMutability": "nonpayable",
      "type": "function"
    },
    {
      "inputs": [
        {
          "internalType": "address",
          "name": "_add",
          "type": "address"
        }
      ],
      "name": "setOwner",
      "outputs": [],
      "stateMutability": "nonpayable",
      "type": "function"
    },
    {
      "inputs": [
        {
          "internalType": "address",
          "name": "_add",
          "type": "address"
        }
      ],
      "name": "setStaking",
      "outputs": [],
      "stateMutability": "nonpayable",
      "type": "function"
    },
    {
      "inputs": [
        {
          "internalType": "address",
          "name": "_add",
          "type": "address"
        }
      ],
      "name": "setTeam",
      "outputs": [],
      "stateMutability": "nonpayable",
      "type": "function"
    },
    {
      "inputs": [
        {
          "internalType": "address",
          "name": "_add",
          "type": "address"
        }
      ],
      "name": "setToken",
      "outputs": [],
      "stateMutability": "nonpayable",
      "type": "function"
    },
    {
      "inputs": [],
      "name": "team",
      "outputs": [
        {
          "internalType": "address",
          "name": "",
          "type": "address"
        }
      ],
      "stateMutability": "view",
      "type": "function"
    },
    {
      "stateMutability": "payable",
      "type": "receive"
    }
  ],
  "bytecode": "0x608060405260016003553480156200001657600080fd5b50604051620058fb380380620058fb83398181016040528101906200003c91906200034b565b85600560006101000a81548173ffffffffffffffffffffffffffffffffffffffff021916908373ffffffffffffffffffffffffffffffffffffffff160217905550336000806101000a81548173ffffffffffffffffffffffffffffffffffffffff021916908373ffffffffffffffffffffffffffffffffffffffff1602179055506001600960008773ffffffffffffffffffffffffffffffffffffffff1673ffffffffffffffffffffffffffffffffffffffff16815260200190815260200160002060006101000a81548160ff02191690831515021790555083600260006101000a81548173ffffffffffffffffffffffffffffffffffffffff021916908373ffffffffffffffffffffffffffffffffffffffff16021790555082600160006101000a81548173ffffffffffffffffffffffffffffffffffffffff021916908373ffffffffffffffffffffffffffffffffffffffff16021790555081600460006101000a81548173ffffffffffffffffffffffffffffffffffffffff021916908373ffffffffffffffffffffffffffffffffffffffff16021790555080600660006101000a81548173ffffffffffffffffffffffffffffffffffffffff021916908373ffffffffffffffffffffffffffffffffffffffff160217905550600560009054906101000a900473ffffffffffffffffffffffffffffffffffffffff1673ffffffffffffffffffffffffffffffffffffffff1663095ea7b3600160009054906101000a900473ffffffffffffffffffffffffffffffffffffffff167fffffffffffffffffffffffffffffffffffffffffffffffffffffffffffffffff6040518363ffffffff1660e01b8152600401620002ba9291906200043b565b602060405180830381600087803b158015620002d557600080fd5b505af1158015620002ea573d6000803e3d6000fd5b505050506040513d601f19601f82011682018060405250810190620003109190620003e7565b50505050505050620004ff565b6000815190506200032e81620004cb565b92915050565b6000815190506200034581620004e5565b92915050565b60008060008060008060c087890312156200036b576200036a620004c6565b5b60006200037b89828a016200031d565b96505060206200038e89828a016200031d565b9550506040620003a189828a016200031d565b9450506060620003b489828a016200031d565b9350506080620003c789828a016200031d565b92505060a0620003da89828a016200031d565b9150509295509295509295565b6000602082840312156200040057620003ff620004c6565b5b6000620004108482850162000334565b91505092915050565b620004248162000468565b82525050565b6200043581620004b2565b82525050565b600060408201905062000452600083018562000419565b6200046160208301846200042a565b9392505050565b6000620004758262000488565b9050919050565b60008115159050919050565b600073ffffffffffffffffffffffffffffffffffffffff82169050919050565b6000819050919050565b6000620004bf82620004a8565b9050919050565b600080fd5b620004d68162000468565b8114620004e257600080fd5b50565b620004f0816200047c565b8114620004fc57600080fd5b50565b6153ec806200050f6000396000f3fe6080604052600436106101e75760003560e01c806385f2aef211610102578063b5776b7c11610095578063bddda9bc11610064578063bddda9bc146107f1578063dcc3cd6814610808578063e72b95c014610847578063efaa55a014610884576101ee565b8063b5776b7c146106f8578063b583096f14610735578063b754b22f14610772578063b9aba726146107af576101ee565b80638ff39099116100d15780638ff3909914610628578063a2f77bcc14610651578063b3ab15fb14610692578063b50d8f4e146106bb576101ee565b806385f2aef21461055857806386514131146105835780638a78e991146105c05780638da5cb5b146105fd576101ee565b80632bab93491161017a5780636886e771116101495780636886e7711461047657806370de828e146104b357806371e6a245146104de578063767ad3a11461051b576101ee565b80632bab93491461038d57806340e58ee5146103ca57806344c9af281461040757806348e837b914610444576101ee565b806313af4035116101b657806313af4035146102c1578063144fa6d7146102ea5780631ccab8f1146103135780631eb9c5c414610350576101ee565b8063041a61f2146101f357806308d9801c14610230578063095cf5c61461026d5780630c0c441b14610296576101ee565b366101ee57005b600080fd5b3480156101ff57600080fd5b5061021a60048036038101906102159190614590565b6108b4565b6040516102279190614b14565b60405180910390f35b34801561023c57600080fd5b50610257600480360381019061025291906145ea565b610af9565b6040516102649190614b82565b60405180910390f35b34801561027957600080fd5b50610294600480360381019061028f9190614590565b6114b1565b005b3480156102a257600080fd5b506102ab6115a1565b6040516102b8919061496b565b60405180910390f35b3480156102cd57600080fd5b506102e860048036038101906102e39190614590565b6115c7565b005b3480156102f657600080fd5b50610311600480360381019061030c9190614590565b6116b6565b005b34801561031f57600080fd5b5061033a60048036038101906103359190614590565b6117a6565b6040516103479190614d5d565b60405180910390f35b34801561035c57600080fd5b5061037760048036038101906103729190614590565b6117df565b6040516103849190614d5d565b60405180910390f35b34801561039957600080fd5b506103b460048036038101906103af9190614590565b611818565b6040516103c19190614d5d565b60405180910390f35b3480156103d657600080fd5b506103f160048036038101906103ec91906145ea565b611867565b6040516103fe9190614b82565b60405180910390f35b34801561041357600080fd5b5061042e600480360381019061042991906145ea565b611b87565b60405161043b9190614d5d565b60405180910390f35b61045e600480360381019061045991906145ea565b611dcf565b60405161046d93929190614dcb565b60405180910390f35b34801561048257600080fd5b5061049d60048036038101906104989190614590565b61280f565b6040516104aa9190614d5d565b60405180910390f35b3480156104bf57600080fd5b506104c8612848565b6040516104d59190614d5d565b60405180910390f35b3480156104ea57600080fd5b5061050560048036038101906105009190614590565b612852565b6040516105129190614d5d565b60405180910390f35b34801561052757600080fd5b50610542600480360381019061053d9190614590565b6128a1565b60405161054f9190614d5d565b60405180910390f35b34801561056457600080fd5b5061056d6128d9565b60405161057a919061496b565b60405180910390f35b34801561058f57600080fd5b506105aa60048036038101906105a59190614644565b6128ff565b6040516105b79190614b82565b60405180910390f35b3480156105cc57600080fd5b506105e760048036038101906105e29190614590565b613669565b6040516105f49190614d5d565b60405180910390f35b34801561060957600080fd5b506106126136b2565b60405161061f919061496b565b60405180910390f35b34801561063457600080fd5b5061064f600480360381019061064a9190614590565b6136d6565b005b34801561065d57600080fd5b50610678600480360381019061067391906145ea565b6137c6565b604051610689959493929190614d78565b60405180910390f35b34801561069e57600080fd5b506106b960048036038101906106b49190614590565b6138a6565b005b3480156106c757600080fd5b506106e260048036038101906106dd9190614590565b6139f9565b6040516106ef9190614d5d565b60405180910390f35b34801561070457600080fd5b5061071f600480360381019061071a9190614590565b613a48565b60405161072c9190614b14565b60405180910390f35b34801561074157600080fd5b5061075c60048036038101906107579190614590565b613ae2565b6040516107699190614b14565b60405180910390f35b34801561077e57600080fd5b5061079960048036038101906107949190614590565b613b7c565b6040516107a69190614d5d565b60405180910390f35b3480156107bb57600080fd5b506107d660048036038101906107d191906145ea565b613bb4565b6040516107e896959493929190614986565b60405180910390f35b3480156107fd57600080fd5b50610806613c70565b005b34801561081457600080fd5b5061082f600480360381019061082a91906145ea565b613d5f565b60405161083e93929190614b36565b60405180910390f35b34801561085357600080fd5b5061086e60048036038101906108699190614590565b61401e565b60405161087b9190614b14565b60405180910390f35b61089e600480360381019061089991906145ea565b6140b8565b6040516108ab9190614b82565b60405180910390f35b606060006108c1836128a1565b67ffffffffffffffff8111156108da576108d96150d9565b5b6040519080825280602002602001820160405280156109085781602001602082028036833780820191505090505b5090506000805b61091885612852565b811015610aee57600a60008673ffffffffffffffffffffffffffffffffffffffff1673ffffffffffffffffffffffffffffffffffffffff1681526020019081526020016000206001018181548110610973576109726150aa565b5b9060005260206000200154600a60008773ffffffffffffffffffffffffffffffffffffffff1673ffffffffffffffffffffffffffffffffffffffff16815260200190815260200160002060000182815481106109d2576109d16150aa565b5b906000526020600020015414158015610aa75750600a60008673ffffffffffffffffffffffffffffffffffffffff1673ffffffffffffffffffffffffffffffffffffffff1681526020019081526020016000206002018181548110610a3a57610a396150aa565b5b9060005260206000200154600a60008773ffffffffffffffffffffffffffffffffffffffff1673ffffffffffffffffffffffffffffffffffffffff1681526020019081526020016000206000018281548110610a9957610a986150aa565b5b906000526020600020015414155b15610adb5780838381518110610ac057610abf6150aa565b5b6020026020010181815250508180610ad790615003565b9250505b8080610ae690615003565b91505061090f565b508192505050919050565b60008073ffffffffffffffffffffffffffffffffffffffff166008600084815260200190815260200160002060020160009054906101000a900473ffffffffffffffffffffffffffffffffffffffff1673ffffffffffffffffffffffffffffffffffffffff161415610b6a57600080fd5b600073ffffffffffffffffffffffffffffffffffffffff166008600084815260200190815260200160002060010160009054906101000a900473ffffffffffffffffffffffffffffffffffffffff1673ffffffffffffffffffffffffffffffffffffffff161415610bda57600080fd5b3373ffffffffffffffffffffffffffffffffffffffff166008600084815260200190815260200160002060010160009054906101000a900473ffffffffffffffffffffffffffffffffffffffff1673ffffffffffffffffffffffffffffffffffffffff161480610cab57503373ffffffffffffffffffffffffffffffffffffffff166008600084815260200190815260200160002060020160009054906101000a900473ffffffffffffffffffffffffffffffffffffffff1673ffffffffffffffffffffffffffffffffffffffff16145b610cb457600080fd5b60003373ffffffffffffffffffffffffffffffffffffffff166008600085815260200190815260200160002060010160009054906101000a900473ffffffffffffffffffffffffffffffffffffffff1673ffffffffffffffffffffffffffffffffffffffff161415610d5e576008600084815260200190815260200160002060020160009054906101000a900473ffffffffffffffffffffffffffffffffffffffff169050610d98565b6008600084815260200190815260200160002060010160009054906101000a900473ffffffffffffffffffffffffffffffffffffffff1690505b60006008600085815260200190815260200160002060010160009054906101000a900473ffffffffffffffffffffffffffffffffffffffff1673ffffffffffffffffffffffffffffffffffffffff168273ffffffffffffffffffffffffffffffffffffffff161415610e42576008600085815260200190815260200160002060020160009054906101000a900473ffffffffffffffffffffffffffffffffffffffff169050610e7c565b6008600085815260200190815260200160002060010160009054906101000a900473ffffffffffffffffffffffffffffffffffffffff1690505b60006064600860026008600089815260200190815260200160002060030154610ea59190614ed3565b610eaf9190614ed3565b610eb99190614ea2565b9050600560009054906101000a900473ffffffffffffffffffffffffffffffffffffffff1673ffffffffffffffffffffffffffffffffffffffff166342966c68600183610f069190614f2d565b6040518263ffffffff1660e01b8152600401610f229190614d5d565b600060405180830381600087803b158015610f3c57600080fd5b505af1158015610f50573d6000803e3d6000fd5b505050506000606460016002600860008a815260200190815260200160002060030154610f7d9190614ed3565b610f879190614ed3565b610f919190614ea2565b9050600160009054906101000a900473ffffffffffffffffffffffffffffffffffffffff1673ffffffffffffffffffffffffffffffffffffffff166347e7ef24600560009054906101000a900473ffffffffffffffffffffffffffffffffffffffff166001846110019190614f2d565b6040518363ffffffff1660e01b815260040161101e929190614aeb565b602060405180830381600087803b15801561103857600080fd5b505af115801561104c573d6000803e3d6000fd5b505050506040513d601f19601f8201168201806040525081019061107091906145bd565b61107957600080fd5b6000606460016002600860008b8152602001908152602001600020600301546110a29190614ed3565b6110ac9190614ed3565b6110b69190614ea2565b9050600560009054906101000a900473ffffffffffffffffffffffffffffffffffffffff1673ffffffffffffffffffffffffffffffffffffffff1663a9059cbb600260009054906101000a900473ffffffffffffffffffffffffffffffffffffffff166001846111269190614f2d565b6040518363ffffffff1660e01b8152600401611143929190614aeb565b602060405180830381600087803b15801561115d57600080fd5b505af1158015611171573d6000803e3d6000fd5b505050506040513d601f19601f8201168201806040525081019061119591906145bd565b61119e57600080fd5b60008183856111ad9190614e4c565b6111b79190614e4c565b90506000816002600860008c8152602001908152602001600020600301546111df9190614ed3565b6111e99190614f2d565b9050600560009054906101000a900473ffffffffffffffffffffffffffffffffffffffff1673ffffffffffffffffffffffffffffffffffffffff1663a9059cbb88836040518363ffffffff1660e01b8152600401611248929190614aeb565b602060405180830381600087803b15801561126257600080fd5b505af1158015611276573d6000803e3d6000fd5b505050506040513d601f19601f8201168201806040525081019061129a91906145bd565b6112d9576040517f08c379a00000000000000000000000000000000000000000000000000000000081526004016112d090614c7d565b60405180910390fd5b600a60008873ffffffffffffffffffffffffffffffffffffffff1673ffffffffffffffffffffffffffffffffffffffff168152602001908152602001600020600101899080600181540180825580915050600190039060005260206000200160009091909190915055600a60008773ffffffffffffffffffffffffffffffffffffffff1673ffffffffffffffffffffffffffffffffffffffff168152602001908152602001600020600201899080600181540180825580915050600190039060005260206000200160009091909190915055600060076000600860008d815260200190815260200160002060010160009054906101000a900473ffffffffffffffffffffffffffffffffffffffff1673ffffffffffffffffffffffffffffffffffffffff1673ffffffffffffffffffffffffffffffffffffffff16815260200190815260200160002081905550600060076000600860008d815260200190815260200160002060020160009054906101000a900473ffffffffffffffffffffffffffffffffffffffff1673ffffffffffffffffffffffffffffffffffffffff1673ffffffffffffffffffffffffffffffffffffffff168152602001908152602001600020819055506001975050505050505050919050565b3373ffffffffffffffffffffffffffffffffffffffff1660008054906101000a900473ffffffffffffffffffffffffffffffffffffffff1673ffffffffffffffffffffffffffffffffffffffff1614806115545750600960003373ffffffffffffffffffffffffffffffffffffffff1673ffffffffffffffffffffffffffffffffffffffff16815260200190815260200160002060009054906101000a900460ff165b61155d57600080fd5b80600160006101000a81548173ffffffffffffffffffffffffffffffffffffffff021916908373ffffffffffffffffffffffffffffffffffffffff16021790555050565b600260009054906101000a900473ffffffffffffffffffffffffffffffffffffffff1681565b3373ffffffffffffffffffffffffffffffffffffffff1660008054906101000a900473ffffffffffffffffffffffffffffffffffffffff1673ffffffffffffffffffffffffffffffffffffffff16148061166a5750600960003373ffffffffffffffffffffffffffffffffffffffff1673ffffffffffffffffffffffffffffffffffffffff16815260200190815260200160002060009054906101000a900460ff165b61167357600080fd5b806000806101000a81548173ffffffffffffffffffffffffffffffffffffffff021916908373ffffffffffffffffffffffffffffffffffffffff16021790555050565b3373ffffffffffffffffffffffffffffffffffffffff1660008054906101000a900473ffffffffffffffffffffffffffffffffffffffff1673ffffffffffffffffffffffffffffffffffffffff1614806117595750600960003373ffffffffffffffffffffffffffffffffffffffff1673ffffffffffffffffffffffffffffffffffffffff16815260200190815260200160002060009054906101000a900460ff165b61176257600080fd5b80600560006101000a81548173ffffffffffffffffffffffffffffffffffffffff021916908373ffffffffffffffffffffffffffffffffffffffff16021790555050565b60006117b1826128a1565b6117ba83612852565b68056bc75e2d631000006117ce9190614ea2565b6117d89190614ed3565b9050919050565b60006117ea82611818565b6117f383612852565b68056bc75e2d631000006118079190614ea2565b6118119190614ed3565b9050919050565b6000600a60008373ffffffffffffffffffffffffffffffffffffffff1673ffffffffffffffffffffffffffffffffffffffff168152602001908152602001600020600201805490509050919050565b60008073ffffffffffffffffffffffffffffffffffffffff166008600084815260200190815260200160002060020160009054906101000a900473ffffffffffffffffffffffffffffffffffffffff1673ffffffffffffffffffffffffffffffffffffffff16146118d757600080fd5b3373ffffffffffffffffffffffffffffffffffffffff166008600084815260200190815260200160002060010160009054906101000a900473ffffffffffffffffffffffffffffffffffffffff1673ffffffffffffffffffffffffffffffffffffffff161461194557600080fd5b600560009054906101000a900473ffffffffffffffffffffffffffffffffffffffff1673ffffffffffffffffffffffffffffffffffffffff1663a9059cbb6008600085815260200190815260200160002060010160009054906101000a900473ffffffffffffffffffffffffffffffffffffffff1660086000868152602001908152602001600020600301546040518363ffffffff1660e01b81526004016119ee929190614aeb565b602060405180830381600087803b158015611a0857600080fd5b505af1158015611a1c573d6000803e3d6000fd5b505050506040513d601f19601f82011682018060405250810190611a4091906145bd565b611a7f576040517f08c379a0000000000000000000000000000000000000000000000000000000008152600401611a7690614d1d565b60405180910390fd5b6008600083815260200190815260200160002060010160009054906101000a900473ffffffffffffffffffffffffffffffffffffffff1673ffffffffffffffffffffffffffffffffffffffff166108fc66b1a2bc2ec500009081150290604051600060405180830381858888f19350505050158015611b02573d6000803e3d6000fd5b506000600760006008600086815260200190815260200160002060010160009054906101000a900473ffffffffffffffffffffffffffffffffffffffff1673ffffffffffffffffffffffffffffffffffffffff1673ffffffffffffffffffffffffffffffffffffffff1681526020019081526020016000208190555060019050919050565b60008060009050600073ffffffffffffffffffffffffffffffffffffffff166008600085815260200190815260200160002060040160009054906101000a900473ffffffffffffffffffffffffffffffffffffffff1673ffffffffffffffffffffffffffffffffffffffff1614611c015760039050611dc6565b600073ffffffffffffffffffffffffffffffffffffffff166008600085815260200190815260200160002060010160009054906101000a900473ffffffffffffffffffffffffffffffffffffffff1673ffffffffffffffffffffffffffffffffffffffff1614158015611cd65750600073ffffffffffffffffffffffffffffffffffffffff166008600085815260200190815260200160002060020160009054906101000a900473ffffffffffffffffffffffffffffffffffffffff1673ffffffffffffffffffffffffffffffffffffffff16145b15611ce45760019050611dc5565b600073ffffffffffffffffffffffffffffffffffffffff166008600085815260200190815260200160002060010160009054906101000a900473ffffffffffffffffffffffffffffffffffffffff1673ffffffffffffffffffffffffffffffffffffffff1614158015611dba5750600073ffffffffffffffffffffffffffffffffffffffff166008600085815260200190815260200160002060020160009054906101000a900473ffffffffffffffffffffffffffffffffffffffff1673ffffffffffffffffffffffffffffffffffffffff1614155b15611dc457600290505b5b5b80915050919050565b600080600080600760003373ffffffffffffffffffffffffffffffffffffffff1673ffffffffffffffffffffffffffffffffffffffff1681526020019081526020016000205414611e55576040517f08c379a0000000000000000000000000000000000000000000000000000000008152600401611e4c90614bbd565b60405180910390fd5b66b1a2bc2ec50000341015611e9f576040517f08c379a0000000000000000000000000000000000000000000000000000000008152600401611e9690614c3d565b60405180910390fd5b60008411611ee2576040517f08c379a0000000000000000000000000000000000000000000000000000000008152600401611ed990614b9d565b60405180910390fd5b69021e19e0c9bab2400000821115611f2f576040517f08c379a0000000000000000000000000000000000000000000000000000000008152600401611f2690614c1d565b60405180910390fd5b600560009054906101000a900473ffffffffffffffffffffffffffffffffffffffff1673ffffffffffffffffffffffffffffffffffffffff166323b872dd3330876040518463ffffffff1660e01b8152600401611f8e939291906149e7565b602060405180830381600087803b158015611fa857600080fd5b505af1158015611fbc573d6000803e3d6000fd5b505050506040513d601f19601f82011682018060405250810190611fe091906145bd565b61201f576040517f08c379a000000000000000000000000000000000000000000000000000000000815260040161201690614d3d565b60405180910390fd5b6064821015801561203157506103e882105b1561240c576000600460009054906101000a900473ffffffffffffffffffffffffffffffffffffffff1673ffffffffffffffffffffffffffffffffffffffff1662fdd58e3360016040518363ffffffff1660e01b8152600401612095929190614a1e565b602060405180830381600087803b1580156120af57600080fd5b505af11580156120c3573d6000803e3d6000fd5b505050506040513d601f19601f820116820180604052508101906120e79190614617565b11806121a157506000600460009054906101000a900473ffffffffffffffffffffffffffffffffffffffff1673ffffffffffffffffffffffffffffffffffffffff1662fdd58e3360026040518363ffffffff1660e01b815260040161214d929190614a47565b602060405180830381600087803b15801561216757600080fd5b505af115801561217b573d6000803e3d6000fd5b505050506040513d601f19601f8201168201806040525081019061219f9190614617565b115b8061225a57506000600460009054906101000a900473ffffffffffffffffffffffffffffffffffffffff1673ffffffffffffffffffffffffffffffffffffffff1662fdd58e3360036040518363ffffffff1660e01b8152600401612206929190614a70565b602060405180830381600087803b15801561222057600080fd5b505af1158015612234573d6000803e3d6000fd5b505050506040513d601f19601f820116820180604052508101906122589190614617565b115b8061231357506000600460009054906101000a900473ffffffffffffffffffffffffffffffffffffffff1673ffffffffffffffffffffffffffffffffffffffff1662fdd58e3360046040518363ffffffff1660e01b81526004016122bf929190614a99565b602060405180830381600087803b1580156122d957600080fd5b505af11580156122ed573d6000803e3d6000fd5b505050506040513d601f19601f820116820180604052508101906123119190614617565b115b806123cc57506000600460009054906101000a900473ffffffffffffffffffffffffffffffffffffffff1673ffffffffffffffffffffffffffffffffffffffff1662fdd58e3360056040518363ffffffff1660e01b8152600401612378929190614ac2565b602060405180830381600087803b15801561239257600080fd5b505af11580156123a6573d6000803e3d6000fd5b505050506040513d601f19601f820116820180604052508101906123ca9190614617565b115b61240b576040517f08c379a000000000000000000000000000000000000000000000000000000000815260040161240290614cbd565b60405180910390fd5b5b683635c9adc5dea00000821061250a576000600660009054906101000a900473ffffffffffffffffffffffffffffffffffffffff1673ffffffffffffffffffffffffffffffffffffffff166370a08231336040518263ffffffff1660e01b8152600401612479919061496b565b60206040518083038186803b15801561249157600080fd5b505afa1580156124a5573d6000803e3d6000fd5b505050506040513d601f19601f820116820180604052508101906124c99190614617565b11612509576040517f08c379a000000000000000000000000000000000000000000000000000000000815260040161250090614cdd565b60405180910390fd5b5b600354600760003373ffffffffffffffffffffffffffffffffffffffff1673ffffffffffffffffffffffffffffffffffffffff1681526020019081526020016000208190555060006040518060c00160405280600073ffffffffffffffffffffffffffffffffffffffff1681526020013373ffffffffffffffffffffffffffffffffffffffff168152602001600073ffffffffffffffffffffffffffffffffffffffff168152602001868152602001600073ffffffffffffffffffffffffffffffffffffffff168152602001428152509050600a60003373ffffffffffffffffffffffffffffffffffffffff1673ffffffffffffffffffffffffffffffffffffffff16815260200190815260200160002060000160035490806001815401808255809150506001900390600052602060002001600090919091909150558060086000600354815260200190815260200160002060008201518160000160006101000a81548173ffffffffffffffffffffffffffffffffffffffff021916908373ffffffffffffffffffffffffffffffffffffffff16021790555060208201518160010160006101000a81548173ffffffffffffffffffffffffffffffffffffffff021916908373ffffffffffffffffffffffffffffffffffffffff16021790555060408201518160020160006101000a81548173ffffffffffffffffffffffffffffffffffffffff021916908373ffffffffffffffffffffffffffffffffffffffff1602179055506060820151816003015560808201518160040160006101000a81548173ffffffffffffffffffffffffffffffffffffffff021916908373ffffffffffffffffffffffffffffffffffffffff16021790555060a08201518160050155905050600360008154809291906127a390615003565b9190505550843373ffffffffffffffffffffffffffffffffffffffff1660016003546127cf9190614f2d565b7f6b8b1103b014d316d2e1ce2360505f35ad5291576b96e2ece01628c739910d3f60405160405180910390a4600354856000935093509350509193909250565b600061281a826139f9565b61282383612852565b68056bc75e2d631000006128379190614ea2565b6128419190614ed3565b9050919050565b6000600354905090565b6000600a60008373ffffffffffffffffffffffffffffffffffffffff1673ffffffffffffffffffffffffffffffffffffffff168152602001908152602001600020600001805490509050919050565b60006128ac82611818565b6128b5836139f9565b6128bf9190614e4c565b6128c883612852565b6128d29190614f2d565b9050919050565b600160009054906101000a900473ffffffffffffffffffffffffffffffffffffffff1681565b60003373ffffffffffffffffffffffffffffffffffffffff1660008054906101000a900473ffffffffffffffffffffffffffffffffffffffff1673ffffffffffffffffffffffffffffffffffffffff1614806129a45750600960003373ffffffffffffffffffffffffffffffffffffffff1673ffffffffffffffffffffffffffffffffffffffff16815260200190815260200160002060009054906101000a900460ff165b6129ad57600080fd5b600073ffffffffffffffffffffffffffffffffffffffff166008600085815260200190815260200160002060040160009054906101000a900473ffffffffffffffffffffffffffffffffffffffff1673ffffffffffffffffffffffffffffffffffffffff1614612a1c57600080fd5b600073ffffffffffffffffffffffffffffffffffffffff166008600085815260200190815260200160002060020160009054906101000a900473ffffffffffffffffffffffffffffffffffffffff1673ffffffffffffffffffffffffffffffffffffffff161415612a8c57600080fd5b336008600085815260200190815260200160002060000160006101000a81548173ffffffffffffffffffffffffffffffffffffffff021916908373ffffffffffffffffffffffffffffffffffffffff160217905550600073ffffffffffffffffffffffffffffffffffffffff168273ffffffffffffffffffffffffffffffffffffffff161415612e1a57600560009054906101000a900473ffffffffffffffffffffffffffffffffffffffff1673ffffffffffffffffffffffffffffffffffffffff1663a9059cbb6008600086815260200190815260200160002060010160009054906101000a900473ffffffffffffffffffffffffffffffffffffffff1660086000878152602001908152602001600020600301546040518363ffffffff1660e01b8152600401612bbf929190614aeb565b602060405180830381600087803b158015612bd957600080fd5b505af1158015612bed573d6000803e3d6000fd5b505050506040513d601f19601f82011682018060405250810190612c1191906145bd565b612c50576040517f08c379a0000000000000000000000000000000000000000000000000000000008152600401612c4790614cfd565b60405180910390fd5b600560009054906101000a900473ffffffffffffffffffffffffffffffffffffffff1673ffffffffffffffffffffffffffffffffffffffff1663a9059cbb6008600086815260200190815260200160002060020160009054906101000a900473ffffffffffffffffffffffffffffffffffffffff1660086000878152602001908152602001600020600301546040518363ffffffff1660e01b8152600401612cf9929190614aeb565b602060405180830381600087803b158015612d1357600080fd5b505af1158015612d27573d6000803e3d6000fd5b505050506040513d601f19601f82011682018060405250810190612d4b91906145bd565b612d8a576040517f08c379a0000000000000000000000000000000000000000000000000000000008152600401612d8190614c9d565b60405180910390fd5b6008600084815260200190815260200160002060000160009054906101000a900473ffffffffffffffffffffffffffffffffffffffff166008600085815260200190815260200160002060040160006101000a81548173ffffffffffffffffffffffffffffffffffffffff021916908373ffffffffffffffffffffffffffffffffffffffff160217905550613489565b60006008600085815260200190815260200160002060010160009054906101000a900473ffffffffffffffffffffffffffffffffffffffff1673ffffffffffffffffffffffffffffffffffffffff168373ffffffffffffffffffffffffffffffffffffffff161415612ec4576008600085815260200190815260200160002060020160009054906101000a900473ffffffffffffffffffffffffffffffffffffffff169050612efe565b6008600085815260200190815260200160002060010160009054906101000a900473ffffffffffffffffffffffffffffffffffffffff1690505b826008600086815260200190815260200160002060040160006101000a81548173ffffffffffffffffffffffffffffffffffffffff021916908373ffffffffffffffffffffffffffffffffffffffff16021790555060006064600660026008600089815260200190815260200160002060030154612f7c9190614ed3565b612f869190614ed3565b612f909190614ea2565b9050600560009054906101000a900473ffffffffffffffffffffffffffffffffffffffff1673ffffffffffffffffffffffffffffffffffffffff166342966c68600183612fdd9190614f2d565b6040518263ffffffff1660e01b8152600401612ff99190614d5d565b600060405180830381600087803b15801561301357600080fd5b505af1158015613027573d6000803e3d6000fd5b505050506000606460016002600860008a8152602001908152602001600020600301546130549190614ed3565b61305e9190614ed3565b6130689190614ea2565b9050600160009054906101000a900473ffffffffffffffffffffffffffffffffffffffff1673ffffffffffffffffffffffffffffffffffffffff166347e7ef24600560009054906101000a900473ffffffffffffffffffffffffffffffffffffffff166001846130d89190614f2d565b6040518363ffffffff1660e01b81526004016130f5929190614aeb565b602060405180830381600087803b15801561310f57600080fd5b505af1158015613123573d6000803e3d6000fd5b505050506040513d601f19601f8201168201806040525081019061314791906145bd565b61315057600080fd5b6000606460036002600860008b8152602001908152602001600020600301546131799190614ed3565b6131839190614ed3565b61318d9190614ea2565b9050600560009054906101000a900473ffffffffffffffffffffffffffffffffffffffff1673ffffffffffffffffffffffffffffffffffffffff1663a9059cbb600260009054906101000a900473ffffffffffffffffffffffffffffffffffffffff166001846131fd9190614f2d565b6040518363ffffffff1660e01b815260040161321a929190614aeb565b602060405180830381600087803b15801561323457600080fd5b505af1158015613248573d6000803e3d6000fd5b505050506040513d601f19601f8201168201806040525081019061326c91906145bd565b61327557600080fd5b60008183856132849190614e4c565b61328e9190614e4c565b90506000816002600860008c8152602001908152602001600020600301546132b69190614ed3565b6132c09190614f2d565b9050600560009054906101000a900473ffffffffffffffffffffffffffffffffffffffff1673ffffffffffffffffffffffffffffffffffffffff1663a9059cbb89836040518363ffffffff1660e01b815260040161331f929190614aeb565b602060405180830381600087803b15801561333957600080fd5b505af115801561334d573d6000803e3d6000fd5b505050506040513d601f19601f8201168201806040525081019061337191906145bd565b6133b0576040517f08c379a00000000000000000000000000000000000000000000000000000000081526004016133a790614c7d565b60405180910390fd5b600a60008973ffffffffffffffffffffffffffffffffffffffff1673ffffffffffffffffffffffffffffffffffffffff168152602001908152602001600020600101899080600181540180825580915050600190039060005260206000200160009091909190915055600a60008773ffffffffffffffffffffffffffffffffffffffff1673ffffffffffffffffffffffffffffffffffffffff1681526020019081526020016000206002018990806001815401808255809150506001900390600052602060002001600090919091909150555050505050505b6000600760006008600087815260200190815260200160002060010160009054906101000a900473ffffffffffffffffffffffffffffffffffffffff1673ffffffffffffffffffffffffffffffffffffffff1673ffffffffffffffffffffffffffffffffffffffff168152602001908152602001600020819055506000600760006008600087815260200190815260200160002060020160009054906101000a900473ffffffffffffffffffffffffffffffffffffffff1673ffffffffffffffffffffffffffffffffffffffff1673ffffffffffffffffffffffffffffffffffffffff1681526020019081526020016000208190555060086000848152602001908152602001600020600301548273ffffffffffffffffffffffffffffffffffffffff16847f2a991d598ea2abce3d34c6b8bee9e873343e82067779769b2f3481bc30403edf60405160405180910390a46008600084815260200190815260200160002060000160009054906101000a900473ffffffffffffffffffffffffffffffffffffffff1673ffffffffffffffffffffffffffffffffffffffff166108fc67016345785d8a00009081150290604051600060405180830381858888f1935050505015801561365e573d6000803e3d6000fd5b506001905092915050565b6000600760008373ffffffffffffffffffffffffffffffffffffffff1673ffffffffffffffffffffffffffffffffffffffff168152602001908152602001600020549050919050565b60008054906101000a900473ffffffffffffffffffffffffffffffffffffffff1681565b3373ffffffffffffffffffffffffffffffffffffffff1660008054906101000a900473ffffffffffffffffffffffffffffffffffffffff1673ffffffffffffffffffffffffffffffffffffffff1614806137795750600960003373ffffffffffffffffffffffffffffffffffffffff1673ffffffffffffffffffffffffffffffffffffffff16815260200190815260200160002060009054906101000a900460ff165b61378257600080fd5b80600260006101000a81548173ffffffffffffffffffffffffffffffffffffffff021916908373ffffffffffffffffffffffffffffffffffffffff16021790555050565b60008060008060006137d786611b87565b60086000888152602001908152602001600020600301546008600089815260200190815260200160002060010160009054906101000a900473ffffffffffffffffffffffffffffffffffffffff16600860008a815260200190815260200160002060020160009054906101000a900473ffffffffffffffffffffffffffffffffffffffff16600860008b815260200190815260200160002060040160009054906101000a900473ffffffffffffffffffffffffffffffffffffffff169450945094509450945091939590929450565b3373ffffffffffffffffffffffffffffffffffffffff1660008054906101000a900473ffffffffffffffffffffffffffffffffffffffff1673ffffffffffffffffffffffffffffffffffffffff1614806139495750600960003373ffffffffffffffffffffffffffffffffffffffff1673ffffffffffffffffffffffffffffffffffffffff16815260200190815260200160002060009054906101000a900460ff165b61395257600080fd5b600960008273ffffffffffffffffffffffffffffffffffffffff1673ffffffffffffffffffffffffffffffffffffffff16815260200190815260200160002060009054906101000a900460ff1615600960008373ffffffffffffffffffffffffffffffffffffffff1673ffffffffffffffffffffffffffffffffffffffff16815260200190815260200160002060006101000a81548160ff02191690831515021790555050565b6000600a60008373ffffffffffffffffffffffffffffffffffffffff1673ffffffffffffffffffffffffffffffffffffffff168152602001908152602001600020600101805490509050919050565b6060600a60008373ffffffffffffffffffffffffffffffffffffffff1673ffffffffffffffffffffffffffffffffffffffff168152602001908152602001600020600101805480602002602001604051908101604052809291908181526020018280548015613ad657602002820191906000526020600020905b815481526020019060010190808311613ac2575b50505050509050919050565b6060600a60008373ffffffffffffffffffffffffffffffffffffffff1673ffffffffffffffffffffffffffffffffffffffff168152602001908152602001600020600001805480602002602001604051908101604052809291908181526020018280548015613b7057602002820191906000526020600020905b815481526020019060010190808311613b5c575b50505050509050919050565b6000613b8782611818565b670de0b6b3a7640000613b99846139f9565b613ba39190614ed3565b613bad9190614ea2565b9050919050565b60086020528060005260406000206000915090508060000160009054906101000a900473ffffffffffffffffffffffffffffffffffffffff16908060010160009054906101000a900473ffffffffffffffffffffffffffffffffffffffff16908060020160009054906101000a900473ffffffffffffffffffffffffffffffffffffffff16908060030154908060040160009054906101000a900473ffffffffffffffffffffffffffffffffffffffff16908060050154905086565b3373ffffffffffffffffffffffffffffffffffffffff1660008054906101000a900473ffffffffffffffffffffffffffffffffffffffff1673ffffffffffffffffffffffffffffffffffffffff161480613d135750600960003373ffffffffffffffffffffffffffffffffffffffff1673ffffffffffffffffffffffffffffffffffffffff16815260200190815260200160002060009054906101000a900460ff165b613d1c57600080fd5b60008060006101000a81548173ffffffffffffffffffffffffffffffffffffffff021916908373ffffffffffffffffffffffffffffffffffffffff160217905550565b60608060606000808590505b600354811015613e0257600073ffffffffffffffffffffffffffffffffffffffff166008600083815260200190815260200160002060040160009054906101000a900473ffffffffffffffffffffffffffffffffffffffff1673ffffffffffffffffffffffffffffffffffffffff161415613def578180613deb90615003565b9250505b8080613dfa90615003565b915050613d6b565b5060008167ffffffffffffffff811115613e1f57613e1e6150d9565b5b604051908082528060200260200182016040528015613e4d5781602001602082028036833780820191505090505b50905060008267ffffffffffffffff811115613e6c57613e6b6150d9565b5b604051908082528060200260200182016040528015613e9a5781602001602082028036833780820191505090505b50905060008367ffffffffffffffff811115613eb957613eb86150d9565b5b604051908082528060200260200182016040528015613ee75781602001602082028036833780820191505090505b5090506000935060008890505b60035481101561400957600073ffffffffffffffffffffffffffffffffffffffff166008600083815260200190815260200160002060040160009054906101000a900473ffffffffffffffffffffffffffffffffffffffff1673ffffffffffffffffffffffffffffffffffffffff161415613ff65780848681518110613f7d57613f7c6150aa565b5b6020026020010181815250506008600082815260200190815260200160002060050154838681518110613fb357613fb26150aa565b5b602002602001018181525050613fc881611b87565b828681518110613fdb57613fda6150aa565b5b6020026020010181815250508480613ff290615003565b9550505b808061400190615003565b915050613ef4565b50828282965096509650505050509193909250565b6060600a60008373ffffffffffffffffffffffffffffffffffffffff1673ffffffffffffffffffffffffffffffffffffffff1681526020019081526020016000206002018054806020026020016040519081016040528092919081815260200182805480156140ac57602002820191906000526020600020905b815481526020019060010190808311614098575b50505050509050919050565b600066b1a2bc2ec50000341015614104576040517f08c379a00000000000000000000000000000000000000000000000000000000081526004016140fb90614c3d565b60405180910390fd5b6000600760003373ffffffffffffffffffffffffffffffffffffffff1673ffffffffffffffffffffffffffffffffffffffff1681526020019081526020016000205414614186576040517f08c379a000000000000000000000000000000000000000000000000000000000815260040161417d90614bbd565b60405180910390fd5b600560009054906101000a900473ffffffffffffffffffffffffffffffffffffffff1673ffffffffffffffffffffffffffffffffffffffff166323b872dd333060086000878152602001908152602001600020600301546040518463ffffffff1660e01b81526004016141fb939291906149e7565b602060405180830381600087803b15801561421557600080fd5b505af1158015614229573d6000803e3d6000fd5b505050506040513d601f19601f8201168201806040525081019061424d91906145bd565b61428c576040517f08c379a000000000000000000000000000000000000000000000000000000000815260040161428390614bdd565b60405180910390fd5b600073ffffffffffffffffffffffffffffffffffffffff166008600084815260200190815260200160002060040160009054906101000a900473ffffffffffffffffffffffffffffffffffffffff1673ffffffffffffffffffffffffffffffffffffffff1614614331576040517f08c379a000000000000000000000000000000000000000000000000000000000815260040161432890614bfd565b60405180910390fd5b600073ffffffffffffffffffffffffffffffffffffffff166008600084815260200190815260200160002060020160009054906101000a900473ffffffffffffffffffffffffffffffffffffffff1673ffffffffffffffffffffffffffffffffffffffff16146143d6576040517f08c379a00000000000000000000000000000000000000000000000000000000081526004016143cd90614c5d565b60405180910390fd5b81600760003373ffffffffffffffffffffffffffffffffffffffff1673ffffffffffffffffffffffffffffffffffffffff16815260200190815260200160002081905550336008600084815260200190815260200160002060020160006101000a81548173ffffffffffffffffffffffffffffffffffffffff021916908373ffffffffffffffffffffffffffffffffffffffff160217905550600a60003373ffffffffffffffffffffffffffffffffffffffff1673ffffffffffffffffffffffffffffffffffffffff16815260200190815260200160002060000182908060018154018082558091505060019003906000526020600020016000909190919091505560086000838152602001908152602001600020600301543373ffffffffffffffffffffffffffffffffffffffff16837fd301e84700dc95781227dac9f35e8f75b83044f757c2f704d5b29480995511e560405160405180910390a460019050919050565b60008135905061454b81615371565b92915050565b60008151905061456081615388565b92915050565b6000813590506145758161539f565b92915050565b60008151905061458a8161539f565b92915050565b6000602082840312156145a6576145a5615108565b5b60006145b48482850161453c565b91505092915050565b6000602082840312156145d3576145d2615108565b5b60006145e184828501614551565b91505092915050565b600060208284031215614600576145ff615108565b5b600061460e84828501614566565b91505092915050565b60006020828403121561462d5761462c615108565b5b600061463b8482850161457b565b91505092915050565b6000806040838503121561465b5761465a615108565b5b600061466985828601614566565b925050602061467a8582860161453c565b9150509250929050565b6000614690838361494d565b60208301905092915050565b6146a581614f61565b82525050565b60006146b682614e12565b6146c08185614e2a565b93506146cb83614e02565b8060005b838110156146fc5781516146e38882614684565b97506146ee83614e1d565b9250506001810190506146cf565b5085935050505092915050565b61471281614f73565b82525050565b61472181614fa9565b82525050565b61473081614fbb565b82525050565b61473f81614fcd565b82525050565b61474e81614fdf565b82525050565b61475d81614ff1565b82525050565b6000614770601a83614e3b565b915061477b8261510d565b602082019050919050565b6000614793601b83614e3b565b915061479e82615136565b602082019050919050565b60006147b6600f83614e3b565b91506147c18261515f565b602082019050919050565b60006147d9601383614e3b565b91506147e482615188565b602082019050919050565b60006147fc600c83614e3b565b9150614807826151b1565b602082019050919050565b600061481f602c83614e3b565b915061482a826151da565b604082019050919050565b6000614842600a83614e3b565b915061484d82615229565b602082019050919050565b6000614865601883614e3b565b915061487082615252565b602082019050919050565b6000614888601383614e3b565b91506148938261527b565b602082019050919050565b60006148ab601e83614e3b565b91506148b6826152a4565b602082019050919050565b60006148ce601f83614e3b565b91506148d9826152cd565b602082019050919050565b60006148f1601383614e3b565b91506148fc826152f6565b602082019050919050565b6000614914601083614e3b565b915061491f8261531f565b602082019050919050565b6000614937601583614e3b565b915061494282615348565b602082019050919050565b61495681614f9f565b82525050565b61496581614f9f565b82525050565b6000602082019050614980600083018461469c565b92915050565b600060c08201905061499b600083018961469c565b6149a8602083018861469c565b6149b5604083018761469c565b6149c2606083018661495c565b6149cf608083018561469c565b6149dc60a083018461495c565b979650505050505050565b60006060820190506149fc600083018661469c565b614a09602083018561469c565b614a16604083018461495c565b949350505050565b6000604082019050614a33600083018561469c565b614a406020830184614718565b9392505050565b6000604082019050614a5c600083018561469c565b614a696020830184614727565b9392505050565b6000604082019050614a85600083018561469c565b614a926020830184614736565b9392505050565b6000604082019050614aae600083018561469c565b614abb6020830184614745565b9392505050565b6000604082019050614ad7600083018561469c565b614ae46020830184614754565b9392505050565b6000604082019050614b00600083018561469c565b614b0d602083018461495c565b9392505050565b60006020820190508181036000830152614b2e81846146ab565b905092915050565b60006060820190508181036000830152614b5081866146ab565b90508181036020830152614b6481856146ab565b90508181036040830152614b7881846146ab565b9050949350505050565b6000602082019050614b976000830184614709565b92915050565b60006020820190508181036000830152614bb681614763565b9050919050565b60006020820190508181036000830152614bd681614786565b9050919050565b60006020820190508181036000830152614bf6816147a9565b9050919050565b60006020820190508181036000830152614c16816147cc565b9050919050565b60006020820190508181036000830152614c36816147ef565b9050919050565b60006020820190508181036000830152614c5681614812565b9050919050565b60006020820190508181036000830152614c7681614835565b9050919050565b60006020820190508181036000830152614c9681614858565b9050919050565b60006020820190508181036000830152614cb68161487b565b9050919050565b60006020820190508181036000830152614cd68161489e565b9050919050565b60006020820190508181036000830152614cf6816148c1565b9050919050565b60006020820190508181036000830152614d16816148e4565b9050919050565b60006020820190508181036000830152614d3681614907565b9050919050565b60006020820190508181036000830152614d568161492a565b9050919050565b6000602082019050614d72600083018461495c565b92915050565b600060a082019050614d8d600083018861495c565b614d9a602083018761495c565b614da7604083018661469c565b614db4606083018561469c565b614dc1608083018461469c565b9695505050505050565b6000606082019050614de0600083018661495c565b614ded602083018561495c565b614dfa6040830184614709565b949350505050565b6000819050602082019050919050565b600081519050919050565b6000602082019050919050565b600082825260208201905092915050565b600082825260208201905092915050565b6000614e5782614f9f565b9150614e6283614f9f565b9250827fffffffffffffffffffffffffffffffffffffffffffffffffffffffffffffffff03821115614e9757614e9661504c565b5b828201905092915050565b6000614ead82614f9f565b9150614eb883614f9f565b925082614ec857614ec761507b565b5b828204905092915050565b6000614ede82614f9f565b9150614ee983614f9f565b9250817fffffffffffffffffffffffffffffffffffffffffffffffffffffffffffffffff0483118215151615614f2257614f2161504c565b5b828202905092915050565b6000614f3882614f9f565b9150614f4383614f9f565b925082821015614f5657614f5561504c565b5b828203905092915050565b6000614f6c82614f7f565b9050919050565b60008115159050919050565b600073ffffffffffffffffffffffffffffffffffffffff82169050919050565b6000819050919050565b6000614fb482614f9f565b9050919050565b6000614fc682614f9f565b9050919050565b6000614fd882614f9f565b9050919050565b6000614fea82614f9f565b9050919050565b6000614ffc82614f9f565b9050919050565b600061500e82614f9f565b91507fffffffffffffffffffffffffffffffffffffffffffffffffffffffffffffffff8214156150415761504061504c565b5b600182019050919050565b7f4e487b7100000000000000000000000000000000000000000000000000000000600052601160045260246000fd5b7f4e487b7100000000000000000000000000000000000000000000000000000000600052601260045260246000fd5b7f4e487b7100000000000000000000000000000000000000000000000000000000600052603260045260246000fd5b7f4e487b7100000000000000000000000000000000000000000000000000000000600052604160045260246000fd5b600080fd5b7f426574206d75737420626520686967686572207468616e203021000000000000600082015250565b7f616c7265616479206a6f696e65656420612067616d652061746d210000000000600082015250565b7f7061796d656e74206661696c6564210000000000000000000000000000000000600082015250565b7f67616d6520776173207368757420646f776e2100000000000000000000000000600082015250565b7f62657420746f6f20626967210000000000000000000000000000000000000000600082015250565b7f706c656173652070726f76696465206120666565206f66206174206c6561737460008201527f20302e3035204d41544943210000000000000000000000000000000000000000602082015250565b7f67616d652066756c6c2100000000000000000000000000000000000000000000600082015250565b7f7472616e73666572206661696c65642c2077696e6e6572210000000000000000600082015250565b7f7472616e73666572206661696c65642c20322100000000000000000000000000600082015250565b7f506c65617365207075726368736520636f696e21202865726331313535290000600082015250565b7f706c656173652070757263686173652061206e66742e20286572633732312900600082015250565b7f7472616e73666572206661696c65642c20312100000000000000000000000000600082015250565b7f7472616e73666572206661696c65642100000000000000000000000000000000600082015250565b7f626574207472616e7366657220206661696c6564210000000000000000000000600082015250565b61537a81614f61565b811461538557600080fd5b50565b61539181614f73565b811461539c57600080fd5b50565b6153a881614f9f565b81146153b357600080fd5b5056fea264697066735822122032175f32002ab1ee60cb2939416d0cf4a5c2969fcea74ed15f1ff7b3e42d1fc464736f6c63430008070033",
  "linkReferences": {},
  "deployedLinkReferences": {}
}