{
  "_format": "hh-sol-artifact-1",
  "contractName": "Battle",
  "sourceName": "contracts/Battle.sol",
  "abi": [
    {
      "inputs": [
        {
          "internalType": "address",
          "name": "_token",
          "type": "address"
        },
        {
          "internalType": "address",
          "name": "_operator",
          "type": "address"
        },
        {
          "internalType": "address",
          "name": "_staking",
          "type": "address"
        },
        {
          "internalType": "address",
          "name": "_team",
          "type": "address"
        },
        {
          "internalType": "address",
          "name": "_erc1155",
          "type": "address"
        },
        {
          "internalType": "address",
          "name": "_erc721",
          "type": "address"
        }
      ],
      "stateMutability": "nonpayable",
      "type": "constructor"
    },
    {
      "anonymous": false,
      "inputs": [
        {
          "indexed": true,
          "internalType": "uint256",
          "name": "id",
          "type": "uint256"
        },
        {
          "indexed": true,
          "internalType": "address",
          "name": "winner",
          "type": "address"
        },
        {
          "indexed": true,
          "internalType": "uint256",
          "name": "bet",
          "type": "uint256"
        }
      ],
      "name": "endedGame",
      "type": "event"
    },
    {
      "anonymous": false,
      "inputs": [
        {
          "indexed": true,
          "internalType": "uint256",
          "name": "id",
          "type": "uint256"
        },
        {
          "indexed": true,
          "internalType": "address",
          "name": "player",
          "type": "address"
        },
        {
          "indexed": true,
          "internalType": "uint256",
          "name": "bet",
          "type": "uint256"
        }
      ],
      "name": "joinedGame",
      "type": "event"
    },
    {
      "anonymous": false,
      "inputs": [
        {
          "indexed": true,
          "internalType": "uint256",
          "name": "id",
          "type": "uint256"
        },
        {
          "indexed": true,
          "internalType": "address",
          "name": "creator",
          "type": "address"
        },
        {
          "indexed": true,
          "internalType": "uint256",
          "name": "bet",
          "type": "uint256"
        }
      ],
      "name": "newGame",
      "type": "event"
    },
    {
      "inputs": [
        {
          "internalType": "uint256",
          "name": "",
          "type": "uint256"
        }
      ],
      "name": "Gamelist",
      "outputs": [
        {
          "internalType": "address",
          "name": "operator",
          "type": "address"
        },
        {
          "internalType": "address",
          "name": "player1",
          "type": "address"
        },
        {
          "internalType": "address",
          "name": "player2",
          "type": "address"
        },
        {
          "internalType": "uint256",
          "name": "stakes",
          "type": "uint256"
        },
        {
          "internalType": "address",
          "name": "winner",
          "type": "address"
        },
        {
          "internalType": "uint256",
          "name": "startedAt",
          "type": "uint256"
        }
      ],
      "stateMutability": "view",
      "type": "function"
    },
    {
      "inputs": [],
      "name": "LPstaking",
      "outputs": [
        {
          "internalType": "address",
          "name": "",
          "type": "address"
        }
      ],
      "stateMutability": "view",
      "type": "function"
    },
    {
      "inputs": [
        {
          "internalType": "uint256",
          "name": "_id",
          "type": "uint256"
        }
      ],
      "name": "cancel",
      "outputs": [
        {
          "internalType": "bool",
          "name": "",
          "type": "bool"
        }
      ],
      "stateMutability": "nonpayable",
      "type": "function"
    },
    {
      "inputs": [
        {
          "internalType": "uint256",
          "name": "_bet",
          "type": "uint256"
        }
      ],
      "name": "createGame",
      "outputs": [
        {
          "internalType": "uint256",
          "name": "id",
          "type": "uint256"
        },
        {
          "internalType": "uint256",
          "name": "bet",
          "type": "uint256"
        },
        {
          "internalType": "bool",
          "name": "started",
          "type": "bool"
        }
      ],
      "stateMutability": "payable",
      "type": "function"
    },
    {
      "inputs": [
        {
          "internalType": "uint256",
          "name": "id",
          "type": "uint256"
        },
        {
          "internalType": "address",
          "name": "winner",
          "type": "address"
        }
      ],
      "name": "endGame",
      "outputs": [
        {
          "internalType": "bool",
          "name": "",
          "type": "bool"
        }
      ],
      "stateMutability": "nonpayable",
      "type": "function"
    },
    {
      "inputs": [
        {
          "internalType": "uint256",
          "name": "_start",
          "type": "uint256"
        }
      ],
      "name": "getAllActive",
      "outputs": [
        {
          "internalType": "uint256[]",
          "name": "",
          "type": "uint256[]"
        },
        {
          "internalType": "uint256[]",
          "name": "",
          "type": "uint256[]"
        },
        {
          "internalType": "uint256[]",
          "name": "",
          "type": "uint256[]"
        },
        {
          "internalType": "uint256",
          "name": "",
          "type": "uint256"
        }
      ],
      "stateMutability": "view",
      "type": "function"
    },
    {
      "inputs": [
        {
          "internalType": "address",
          "name": "_add",
          "type": "address"
        }
      ],
      "name": "getAllDrawnOf",
      "outputs": [
        {
          "internalType": "uint256[]",
          "name": "",
          "type": "uint256[]"
        }
      ],
      "stateMutability": "view",
      "type": "function"
    },
    {
      "inputs": [
        {
          "internalType": "address",
          "name": "_add",
          "type": "address"
        }
      ],
      "name": "getAllLostOf",
      "outputs": [
        {
          "internalType": "uint256[]",
          "name": "",
          "type": "uint256[]"
        }
      ],
      "stateMutability": "view",
      "type": "function"
    },
    {
      "inputs": [
        {
          "internalType": "address",
          "name": "_add",
          "type": "address"
        }
      ],
      "name": "getAllPlayedOf",
      "outputs": [
        {
          "internalType": "uint256[]",
          "name": "",
          "type": "uint256[]"
        }
      ],
      "stateMutability": "view",
      "type": "function"
    },
    {
      "inputs": [
        {
          "internalType": "address",
          "name": "_add",
          "type": "address"
        }
      ],
      "name": "getAllWonOf",
      "outputs": [
        {
          "internalType": "uint256[]",
          "name": "",
          "type": "uint256[]"
        }
      ],
      "stateMutability": "view",
      "type": "function"
    },
    {
      "inputs": [
        {
          "internalType": "address",
          "name": "_add",
          "type": "address"
        }
      ],
      "name": "getDrawPercentageOf",
      "outputs": [
        {
          "internalType": "uint256",
          "name": "",
          "type": "uint256"
        }
      ],
      "stateMutability": "view",
      "type": "function"
    },
    {
      "inputs": [
        {
          "internalType": "uint256",
          "name": "_id",
          "type": "uint256"
        }
      ],
      "name": "getGame",
      "outputs": [
        {
          "internalType": "uint256",
          "name": "",
          "type": "uint256"
        },
        {
          "internalType": "uint256",
          "name": "",
          "type": "uint256"
        },
        {
          "internalType": "address",
          "name": "",
          "type": "address"
        },
        {
          "internalType": "address",
          "name": "",
          "type": "address"
        },
        {
          "internalType": "address",
          "name": "",
          "type": "address"
        }
      ],
      "stateMutability": "view",
      "type": "function"
    },
    {
      "inputs": [
        {
          "internalType": "address",
          "name": "_add",
          "type": "address"
        }
      ],
      "name": "getLoosePercentageOf",
      "outputs": [
        {
          "internalType": "uint256",
          "name": "",
          "type": "uint256"
        }
      ],
      "stateMutability": "view",
      "type": "function"
    },
    {
      "inputs": [
        {
          "internalType": "uint256",
          "name": "_id",
          "type": "uint256"
        }
      ],
      "name": "getState",
      "outputs": [
        {
          "internalType": "uint256",
          "name": "",
          "type": "uint256"
        }
      ],
      "stateMutability": "view",
      "type": "function"
    },
    {
      "inputs": [
        {
          "internalType": "address",
          "name": "_add",
          "type": "address"
        }
      ],
      "name": "getTotalGamesDrawnOf",
      "outputs": [
        {
          "internalType": "uint256",
          "name": "",
          "type": "uint256"
        }
      ],
      "stateMutability": "view",
      "type": "function"
    },
    {
      "inputs": [
        {
          "internalType": "address",
          "name": "_add",
          "type": "address"
        }
      ],
      "name": "getTotalLostOf",
      "outputs": [
        {
          "internalType": "uint256",
          "name": "",
          "type": "uint256"
        }
      ],
      "stateMutability": "view",
      "type": "function"
    },
    {
      "inputs": [
        {
          "internalType": "address",
          "name": "_add",
          "type": "address"
        }
      ],
      "name": "getTotalPlayedOf",
      "outputs": [
        {
          "internalType": "uint256",
          "name": "",
          "type": "uint256"
        }
      ],
      "stateMutability": "view",
      "type": "function"
    },
    {
      "inputs": [
        {
          "internalType": "address",
          "name": "_add",
          "type": "address"
        }
      ],
      "name": "getTotalWonOf",
      "outputs": [
        {
          "internalType": "uint256",
          "name": "",
          "type": "uint256"
        }
      ],
      "stateMutability": "view",
      "type": "function"
    },
    {
      "inputs": [
        {
          "internalType": "address",
          "name": "_add",
          "type": "address"
        }
      ],
      "name": "getWLOf",
      "outputs": [
        {
          "internalType": "uint256",
          "name": "",
          "type": "uint256"
        }
      ],
      "stateMutability": "view",
      "type": "function"
    },
    {
      "inputs": [
        {
          "internalType": "address",
          "name": "_add",
          "type": "address"
        }
      ],
      "name": "getWinPercentageOf",
      "outputs": [
        {
          "internalType": "uint256",
          "name": "",
          "type": "uint256"
        }
      ],
      "stateMutability": "view",
      "type": "function"
    },
    {
      "inputs": [
        {
          "internalType": "uint256",
          "name": "_id",
          "type": "uint256"
        }
      ],
      "name": "joinGame",
      "outputs": [
        {
          "internalType": "bool",
          "name": "",
          "type": "bool"
        }
      ],
      "stateMutability": "payable",
      "type": "function"
    },
    {
      "inputs": [],
      "name": "latestGame",
      "outputs": [
        {
          "internalType": "uint256",
          "name": "",
          "type": "uint256"
        }
      ],
      "stateMutability": "view",
      "type": "function"
    },
    {
      "inputs": [],
      "name": "owner",
      "outputs": [
        {
          "internalType": "address",
          "name": "",
          "type": "address"
        }
      ],
      "stateMutability": "view",
      "type": "function"
    },
    {
      "inputs": [
        {
          "internalType": "address",
          "name": "_add",
          "type": "address"
        }
      ],
      "name": "playingOn",
      "outputs": [
        {
          "internalType": "uint256",
          "name": "",
          "type": "uint256"
        }
      ],
      "stateMutability": "view",
      "type": "function"
    },
    {
      "inputs": [],
      "name": "renouceOwner",
      "outputs": [],
      "stateMutability": "nonpayable",
      "type": "function"
    },
    {
      "inputs": [
        {
          "internalType": "uint256",
          "name": "_id",
          "type": "uint256"
        }
      ],
      "name": "resign",
      "outputs": [
        {
          "internalType": "bool",
          "name": "",
          "type": "bool"
        }
      ],
      "stateMutability": "nonpayable",
      "type": "function"
    },
    {
      "inputs": [
        {
          "internalType": "address",
          "name": "_add",
          "type": "address"
        }
      ],
      "name": "setOperator",
      "outputs": [],
      "stateMutability": "nonpayable",
      "type": "function"
    },
    {
      "inputs": [
        {
          "internalType": "address",
          "name": "_add",
          "type": "address"
        }
      ],
      "name": "setOwner",
      "outputs": [],
      "stateMutability": "nonpayable",
      "type": "function"
    },
    {
      "inputs": [
        {
          "internalType": "address",
          "name": "_add",
          "type": "address"
        }
      ],
      "name": "setStaking",
      "outputs": [],
      "stateMutability": "nonpayable",
      "type": "function"
    },
    {
      "inputs": [
        {
          "internalType": "address",
          "name": "_add",
          "type": "address"
        }
      ],
      "name": "setTeam",
      "outputs": [],
      "stateMutability": "nonpayable",
      "type": "function"
    },
    {
      "inputs": [
        {
          "internalType": "address",
          "name": "_add",
          "type": "address"
        }
      ],
      "name": "setToken",
      "outputs": [],
      "stateMutability": "nonpayable",
      "type": "function"
    },
    {
      "inputs": [],
      "name": "team",
      "outputs": [
        {
          "internalType": "address",
          "name": "",
          "type": "address"
        }
      ],
      "stateMutability": "view",
      "type": "function"
    },
    {
      "stateMutability": "payable",
      "type": "receive"
    }
  ],
  "bytecode": "0x608060405260016003553480156200001657600080fd5b506040516200592a3803806200592a83398181016040528101906200003c91906200034b565b85600560006101000a81548173ffffffffffffffffffffffffffffffffffffffff021916908373ffffffffffffffffffffffffffffffffffffffff160217905550336000806101000a81548173ffffffffffffffffffffffffffffffffffffffff021916908373ffffffffffffffffffffffffffffffffffffffff1602179055506001600960008773ffffffffffffffffffffffffffffffffffffffff1673ffffffffffffffffffffffffffffffffffffffff16815260200190815260200160002060006101000a81548160ff02191690831515021790555083600260006101000a81548173ffffffffffffffffffffffffffffffffffffffff021916908373ffffffffffffffffffffffffffffffffffffffff16021790555082600160006101000a81548173ffffffffffffffffffffffffffffffffffffffff021916908373ffffffffffffffffffffffffffffffffffffffff16021790555081600460006101000a81548173ffffffffffffffffffffffffffffffffffffffff021916908373ffffffffffffffffffffffffffffffffffffffff16021790555080600660006101000a81548173ffffffffffffffffffffffffffffffffffffffff021916908373ffffffffffffffffffffffffffffffffffffffff160217905550600560009054906101000a900473ffffffffffffffffffffffffffffffffffffffff1673ffffffffffffffffffffffffffffffffffffffff1663095ea7b3600160009054906101000a900473ffffffffffffffffffffffffffffffffffffffff167fffffffffffffffffffffffffffffffffffffffffffffffffffffffffffffffff6040518363ffffffff1660e01b8152600401620002ba9291906200043b565b602060405180830381600087803b158015620002d557600080fd5b505af1158015620002ea573d6000803e3d6000fd5b505050506040513d601f19601f82011682018060405250810190620003109190620003e7565b50505050505050620004ff565b6000815190506200032e81620004cb565b92915050565b6000815190506200034581620004e5565b92915050565b60008060008060008060c087890312156200036b576200036a620004c6565b5b60006200037b89828a016200031d565b96505060206200038e89828a016200031d565b9550506040620003a189828a016200031d565b9450506060620003b489828a016200031d565b9350506080620003c789828a016200031d565b92505060a0620003da89828a016200031d565b9150509295509295509295565b6000602082840312156200040057620003ff620004c6565b5b6000620004108482850162000334565b91505092915050565b620004248162000468565b82525050565b6200043581620004b2565b82525050565b600060408201905062000452600083018562000419565b6200046160208301846200042a565b9392505050565b6000620004758262000488565b9050919050565b60008115159050919050565b600073ffffffffffffffffffffffffffffffffffffffff82169050919050565b6000819050919050565b6000620004bf82620004a8565b9050919050565b600080fd5b620004d68162000468565b8114620004e257600080fd5b50565b620004f0816200047c565b8114620004fc57600080fd5b50565b61541b806200050f6000396000f3fe6080604052600436106101e75760003560e01c806385f2aef211610102578063b5776b7c11610095578063bddda9bc11610064578063bddda9bc146107f1578063dcc3cd6814610808578063e72b95c014610848578063efaa55a014610885576101ee565b8063b5776b7c146106f8578063b583096f14610735578063b754b22f14610772578063b9aba726146107af576101ee565b80638ff39099116100d15780638ff3909914610628578063a2f77bcc14610651578063b3ab15fb14610692578063b50d8f4e146106bb576101ee565b806385f2aef21461055857806386514131146105835780638a78e991146105c05780638da5cb5b146105fd576101ee565b80632bab93491161017a5780636886e771116101495780636886e7711461047657806370de828e146104b357806371e6a245146104de578063767ad3a11461051b576101ee565b80632bab93491461038d57806340e58ee5146103ca57806344c9af281461040757806348e837b914610444576101ee565b806313af4035116101b657806313af4035146102c1578063144fa6d7146102ea5780631ccab8f1146103135780631eb9c5c414610350576101ee565b8063041a61f2146101f357806308d9801c14610230578063095cf5c61461026d5780630c0c441b14610296576101ee565b366101ee57005b600080fd5b3480156101ff57600080fd5b5061021a600480360381019061021591906145b1565b6108b5565b6040516102279190614b35565b60405180910390f35b34801561023c57600080fd5b506102576004803603810190610252919061460b565b610afa565b6040516102649190614bb1565b60405180910390f35b34801561027957600080fd5b50610294600480360381019061028f91906145b1565b6114b2565b005b3480156102a257600080fd5b506102ab6115a2565b6040516102b8919061498c565b60405180910390f35b3480156102cd57600080fd5b506102e860048036038101906102e391906145b1565b6115c8565b005b3480156102f657600080fd5b50610311600480360381019061030c91906145b1565b6116b7565b005b34801561031f57600080fd5b5061033a600480360381019061033591906145b1565b6117a7565b6040516103479190614d8c565b60405180910390f35b34801561035c57600080fd5b50610377600480360381019061037291906145b1565b6117e0565b6040516103849190614d8c565b60405180910390f35b34801561039957600080fd5b506103b460048036038101906103af91906145b1565b611819565b6040516103c19190614d8c565b60405180910390f35b3480156103d657600080fd5b506103f160048036038101906103ec919061460b565b611868565b6040516103fe9190614bb1565b60405180910390f35b34801561041357600080fd5b5061042e6004803603810190610429919061460b565b611b88565b60405161043b9190614d8c565b60405180910390f35b61045e6004803603810190610459919061460b565b611dd0565b60405161046d93929190614dfa565b60405180910390f35b34801561048257600080fd5b5061049d600480360381019061049891906145b1565b612827565b6040516104aa9190614d8c565b60405180910390f35b3480156104bf57600080fd5b506104c8612860565b6040516104d59190614d8c565b60405180910390f35b3480156104ea57600080fd5b50610505600480360381019061050091906145b1565b61286a565b6040516105129190614d8c565b60405180910390f35b34801561052757600080fd5b50610542600480360381019061053d91906145b1565b6128b9565b60405161054f9190614d8c565b60405180910390f35b34801561056457600080fd5b5061056d6128f1565b60405161057a919061498c565b60405180910390f35b34801561058f57600080fd5b506105aa60048036038101906105a59190614665565b612917565b6040516105b79190614bb1565b60405180910390f35b3480156105cc57600080fd5b506105e760048036038101906105e291906145b1565b613681565b6040516105f49190614d8c565b60405180910390f35b34801561060957600080fd5b506106126136ca565b60405161061f919061498c565b60405180910390f35b34801561063457600080fd5b5061064f600480360381019061064a91906145b1565b6136ee565b005b34801561065d57600080fd5b506106786004803603810190610673919061460b565b6137de565b604051610689959493929190614da7565b60405180910390f35b34801561069e57600080fd5b506106b960048036038101906106b491906145b1565b6138be565b005b3480156106c757600080fd5b506106e260048036038101906106dd91906145b1565b613a11565b6040516106ef9190614d8c565b60405180910390f35b34801561070457600080fd5b5061071f600480360381019061071a91906145b1565b613a60565b60405161072c9190614b35565b60405180910390f35b34801561074157600080fd5b5061075c600480360381019061075791906145b1565b613afa565b6040516107699190614b35565b60405180910390f35b34801561077e57600080fd5b50610799600480360381019061079491906145b1565b613b94565b6040516107a69190614d8c565b60405180910390f35b3480156107bb57600080fd5b506107d660048036038101906107d1919061460b565b613bcc565b6040516107e8969594939291906149a7565b60405180910390f35b3480156107fd57600080fd5b50610806613c88565b005b34801561081457600080fd5b5061082f600480360381019061082a919061460b565b613d77565b60405161083f9493929190614b57565b60405180910390f35b34801561085457600080fd5b5061086f600480360381019061086a91906145b1565b61403f565b60405161087c9190614b35565b60405180910390f35b61089f600480360381019061089a919061460b565b6140d9565b6040516108ac9190614bb1565b60405180910390f35b606060006108c2836128b9565b67ffffffffffffffff8111156108db576108da615108565b5b6040519080825280602002602001820160405280156109095781602001602082028036833780820191505090505b5090506000805b6109198561286a565b811015610aef57600a60008673ffffffffffffffffffffffffffffffffffffffff1673ffffffffffffffffffffffffffffffffffffffff1681526020019081526020016000206001018181548110610974576109736150d9565b5b9060005260206000200154600a60008773ffffffffffffffffffffffffffffffffffffffff1673ffffffffffffffffffffffffffffffffffffffff16815260200190815260200160002060000182815481106109d3576109d26150d9565b5b906000526020600020015414158015610aa85750600a60008673ffffffffffffffffffffffffffffffffffffffff1673ffffffffffffffffffffffffffffffffffffffff1681526020019081526020016000206002018181548110610a3b57610a3a6150d9565b5b9060005260206000200154600a60008773ffffffffffffffffffffffffffffffffffffffff1673ffffffffffffffffffffffffffffffffffffffff1681526020019081526020016000206000018281548110610a9a57610a996150d9565b5b906000526020600020015414155b15610adc5780838381518110610ac157610ac06150d9565b5b6020026020010181815250508180610ad890615032565b9250505b8080610ae790615032565b915050610910565b508192505050919050565b60008073ffffffffffffffffffffffffffffffffffffffff166008600084815260200190815260200160002060020160009054906101000a900473ffffffffffffffffffffffffffffffffffffffff1673ffffffffffffffffffffffffffffffffffffffff161415610b6b57600080fd5b600073ffffffffffffffffffffffffffffffffffffffff166008600084815260200190815260200160002060010160009054906101000a900473ffffffffffffffffffffffffffffffffffffffff1673ffffffffffffffffffffffffffffffffffffffff161415610bdb57600080fd5b3373ffffffffffffffffffffffffffffffffffffffff166008600084815260200190815260200160002060010160009054906101000a900473ffffffffffffffffffffffffffffffffffffffff1673ffffffffffffffffffffffffffffffffffffffff161480610cac57503373ffffffffffffffffffffffffffffffffffffffff166008600084815260200190815260200160002060020160009054906101000a900473ffffffffffffffffffffffffffffffffffffffff1673ffffffffffffffffffffffffffffffffffffffff16145b610cb557600080fd5b60003373ffffffffffffffffffffffffffffffffffffffff166008600085815260200190815260200160002060010160009054906101000a900473ffffffffffffffffffffffffffffffffffffffff1673ffffffffffffffffffffffffffffffffffffffff161415610d5f576008600084815260200190815260200160002060020160009054906101000a900473ffffffffffffffffffffffffffffffffffffffff169050610d99565b6008600084815260200190815260200160002060010160009054906101000a900473ffffffffffffffffffffffffffffffffffffffff1690505b60006008600085815260200190815260200160002060010160009054906101000a900473ffffffffffffffffffffffffffffffffffffffff1673ffffffffffffffffffffffffffffffffffffffff168273ffffffffffffffffffffffffffffffffffffffff161415610e43576008600085815260200190815260200160002060020160009054906101000a900473ffffffffffffffffffffffffffffffffffffffff169050610e7d565b6008600085815260200190815260200160002060010160009054906101000a900473ffffffffffffffffffffffffffffffffffffffff1690505b60006064600860026008600089815260200190815260200160002060030154610ea69190614f02565b610eb09190614f02565b610eba9190614ed1565b9050600560009054906101000a900473ffffffffffffffffffffffffffffffffffffffff1673ffffffffffffffffffffffffffffffffffffffff166342966c68600183610f079190614f5c565b6040518263ffffffff1660e01b8152600401610f239190614d8c565b600060405180830381600087803b158015610f3d57600080fd5b505af1158015610f51573d6000803e3d6000fd5b505050506000606460016002600860008a815260200190815260200160002060030154610f7e9190614f02565b610f889190614f02565b610f929190614ed1565b9050600160009054906101000a900473ffffffffffffffffffffffffffffffffffffffff1673ffffffffffffffffffffffffffffffffffffffff166347e7ef24600560009054906101000a900473ffffffffffffffffffffffffffffffffffffffff166001846110029190614f5c565b6040518363ffffffff1660e01b815260040161101f929190614b0c565b602060405180830381600087803b15801561103957600080fd5b505af115801561104d573d6000803e3d6000fd5b505050506040513d601f19601f8201168201806040525081019061107191906145de565b61107a57600080fd5b6000606460016002600860008b8152602001908152602001600020600301546110a39190614f02565b6110ad9190614f02565b6110b79190614ed1565b9050600560009054906101000a900473ffffffffffffffffffffffffffffffffffffffff1673ffffffffffffffffffffffffffffffffffffffff1663a9059cbb600260009054906101000a900473ffffffffffffffffffffffffffffffffffffffff166001846111279190614f5c565b6040518363ffffffff1660e01b8152600401611144929190614b0c565b602060405180830381600087803b15801561115e57600080fd5b505af1158015611172573d6000803e3d6000fd5b505050506040513d601f19601f8201168201806040525081019061119691906145de565b61119f57600080fd5b60008183856111ae9190614e7b565b6111b89190614e7b565b90506000816002600860008c8152602001908152602001600020600301546111e09190614f02565b6111ea9190614f5c565b9050600560009054906101000a900473ffffffffffffffffffffffffffffffffffffffff1673ffffffffffffffffffffffffffffffffffffffff1663a9059cbb88836040518363ffffffff1660e01b8152600401611249929190614b0c565b602060405180830381600087803b15801561126357600080fd5b505af1158015611277573d6000803e3d6000fd5b505050506040513d601f19601f8201168201806040525081019061129b91906145de565b6112da576040517f08c379a00000000000000000000000000000000000000000000000000000000081526004016112d190614c8c565b60405180910390fd5b600a60008873ffffffffffffffffffffffffffffffffffffffff1673ffffffffffffffffffffffffffffffffffffffff168152602001908152602001600020600101899080600181540180825580915050600190039060005260206000200160009091909190915055600a60008773ffffffffffffffffffffffffffffffffffffffff1673ffffffffffffffffffffffffffffffffffffffff168152602001908152602001600020600201899080600181540180825580915050600190039060005260206000200160009091909190915055600060076000600860008d815260200190815260200160002060010160009054906101000a900473ffffffffffffffffffffffffffffffffffffffff1673ffffffffffffffffffffffffffffffffffffffff1673ffffffffffffffffffffffffffffffffffffffff16815260200190815260200160002081905550600060076000600860008d815260200190815260200160002060020160009054906101000a900473ffffffffffffffffffffffffffffffffffffffff1673ffffffffffffffffffffffffffffffffffffffff1673ffffffffffffffffffffffffffffffffffffffff168152602001908152602001600020819055506001975050505050505050919050565b3373ffffffffffffffffffffffffffffffffffffffff1660008054906101000a900473ffffffffffffffffffffffffffffffffffffffff1673ffffffffffffffffffffffffffffffffffffffff1614806115555750600960003373ffffffffffffffffffffffffffffffffffffffff1673ffffffffffffffffffffffffffffffffffffffff16815260200190815260200160002060009054906101000a900460ff165b61155e57600080fd5b80600160006101000a81548173ffffffffffffffffffffffffffffffffffffffff021916908373ffffffffffffffffffffffffffffffffffffffff16021790555050565b600260009054906101000a900473ffffffffffffffffffffffffffffffffffffffff1681565b3373ffffffffffffffffffffffffffffffffffffffff1660008054906101000a900473ffffffffffffffffffffffffffffffffffffffff1673ffffffffffffffffffffffffffffffffffffffff16148061166b5750600960003373ffffffffffffffffffffffffffffffffffffffff1673ffffffffffffffffffffffffffffffffffffffff16815260200190815260200160002060009054906101000a900460ff165b61167457600080fd5b806000806101000a81548173ffffffffffffffffffffffffffffffffffffffff021916908373ffffffffffffffffffffffffffffffffffffffff16021790555050565b3373ffffffffffffffffffffffffffffffffffffffff1660008054906101000a900473ffffffffffffffffffffffffffffffffffffffff1673ffffffffffffffffffffffffffffffffffffffff16148061175a5750600960003373ffffffffffffffffffffffffffffffffffffffff1673ffffffffffffffffffffffffffffffffffffffff16815260200190815260200160002060009054906101000a900460ff165b61176357600080fd5b80600560006101000a81548173ffffffffffffffffffffffffffffffffffffffff021916908373ffffffffffffffffffffffffffffffffffffffff16021790555050565b60006117b2826128b9565b6117bb8361286a565b68056bc75e2d631000006117cf9190614ed1565b6117d99190614f02565b9050919050565b60006117eb82611819565b6117f48361286a565b68056bc75e2d631000006118089190614ed1565b6118129190614f02565b9050919050565b6000600a60008373ffffffffffffffffffffffffffffffffffffffff1673ffffffffffffffffffffffffffffffffffffffff168152602001908152602001600020600201805490509050919050565b60008073ffffffffffffffffffffffffffffffffffffffff166008600084815260200190815260200160002060020160009054906101000a900473ffffffffffffffffffffffffffffffffffffffff1673ffffffffffffffffffffffffffffffffffffffff16146118d857600080fd5b3373ffffffffffffffffffffffffffffffffffffffff166008600084815260200190815260200160002060010160009054906101000a900473ffffffffffffffffffffffffffffffffffffffff1673ffffffffffffffffffffffffffffffffffffffff161461194657600080fd5b600560009054906101000a900473ffffffffffffffffffffffffffffffffffffffff1673ffffffffffffffffffffffffffffffffffffffff1663a9059cbb6008600085815260200190815260200160002060010160009054906101000a900473ffffffffffffffffffffffffffffffffffffffff1660086000868152602001908152602001600020600301546040518363ffffffff1660e01b81526004016119ef929190614b0c565b602060405180830381600087803b158015611a0957600080fd5b505af1158015611a1d573d6000803e3d6000fd5b505050506040513d601f19601f82011682018060405250810190611a4191906145de565b611a80576040517f08c379a0000000000000000000000000000000000000000000000000000000008152600401611a7790614d2c565b60405180910390fd5b6008600083815260200190815260200160002060010160009054906101000a900473ffffffffffffffffffffffffffffffffffffffff1673ffffffffffffffffffffffffffffffffffffffff166108fc66b1a2bc2ec500009081150290604051600060405180830381858888f19350505050158015611b03573d6000803e3d6000fd5b506000600760006008600086815260200190815260200160002060010160009054906101000a900473ffffffffffffffffffffffffffffffffffffffff1673ffffffffffffffffffffffffffffffffffffffff1673ffffffffffffffffffffffffffffffffffffffff1681526020019081526020016000208190555060019050919050565b60008060009050600073ffffffffffffffffffffffffffffffffffffffff166008600085815260200190815260200160002060040160009054906101000a900473ffffffffffffffffffffffffffffffffffffffff1673ffffffffffffffffffffffffffffffffffffffff1614611c025760039050611dc7565b600073ffffffffffffffffffffffffffffffffffffffff166008600085815260200190815260200160002060010160009054906101000a900473ffffffffffffffffffffffffffffffffffffffff1673ffffffffffffffffffffffffffffffffffffffff1614158015611cd75750600073ffffffffffffffffffffffffffffffffffffffff166008600085815260200190815260200160002060020160009054906101000a900473ffffffffffffffffffffffffffffffffffffffff1673ffffffffffffffffffffffffffffffffffffffff16145b15611ce55760019050611dc6565b600073ffffffffffffffffffffffffffffffffffffffff166008600085815260200190815260200160002060010160009054906101000a900473ffffffffffffffffffffffffffffffffffffffff1673ffffffffffffffffffffffffffffffffffffffff1614158015611dbb5750600073ffffffffffffffffffffffffffffffffffffffff166008600085815260200190815260200160002060020160009054906101000a900473ffffffffffffffffffffffffffffffffffffffff1673ffffffffffffffffffffffffffffffffffffffff1614155b15611dc557600290505b5b5b80915050919050565b600080600080600760003373ffffffffffffffffffffffffffffffffffffffff1673ffffffffffffffffffffffffffffffffffffffff1681526020019081526020016000205414611e56576040517f08c379a0000000000000000000000000000000000000000000000000000000008152600401611e4d90614bcc565b60405180910390fd5b66b1a2bc2ec50000341015611ea0576040517f08c379a0000000000000000000000000000000000000000000000000000000008152600401611e9790614c4c565b60405180910390fd5b678ac7230489e80000841015611eeb576040517f08c379a0000000000000000000000000000000000000000000000000000000008152600401611ee290614d4c565b60405180910390fd5b69021e19e0c9bab2400000821115611f38576040517f08c379a0000000000000000000000000000000000000000000000000000000008152600401611f2f90614c2c565b60405180910390fd5b600560009054906101000a900473ffffffffffffffffffffffffffffffffffffffff1673ffffffffffffffffffffffffffffffffffffffff166323b872dd3330876040518463ffffffff1660e01b8152600401611f9793929190614a08565b602060405180830381600087803b158015611fb157600080fd5b505af1158015611fc5573d6000803e3d6000fd5b505050506040513d601f19601f82011682018060405250810190611fe991906145de565b612028576040517f08c379a000000000000000000000000000000000000000000000000000000000815260040161201f90614d6c565b60405180910390fd5b68056bc75e2d6310000082101580156120495750683635c9adc5dea0000082105b15612424576000600460009054906101000a900473ffffffffffffffffffffffffffffffffffffffff1673ffffffffffffffffffffffffffffffffffffffff1662fdd58e3360016040518363ffffffff1660e01b81526004016120ad929190614a3f565b602060405180830381600087803b1580156120c757600080fd5b505af11580156120db573d6000803e3d6000fd5b505050506040513d601f19601f820116820180604052508101906120ff9190614638565b11806121b957506000600460009054906101000a900473ffffffffffffffffffffffffffffffffffffffff1673ffffffffffffffffffffffffffffffffffffffff1662fdd58e3360026040518363ffffffff1660e01b8152600401612165929190614a68565b602060405180830381600087803b15801561217f57600080fd5b505af1158015612193573d6000803e3d6000fd5b505050506040513d601f19601f820116820180604052508101906121b79190614638565b115b8061227257506000600460009054906101000a900473ffffffffffffffffffffffffffffffffffffffff1673ffffffffffffffffffffffffffffffffffffffff1662fdd58e3360036040518363ffffffff1660e01b815260040161221e929190614a91565b602060405180830381600087803b15801561223857600080fd5b505af115801561224c573d6000803e3d6000fd5b505050506040513d601f19601f820116820180604052508101906122709190614638565b115b8061232b57506000600460009054906101000a900473ffffffffffffffffffffffffffffffffffffffff1673ffffffffffffffffffffffffffffffffffffffff1662fdd58e3360046040518363ffffffff1660e01b81526004016122d7929190614aba565b602060405180830381600087803b1580156122f157600080fd5b505af1158015612305573d6000803e3d6000fd5b505050506040513d601f19601f820116820180604052508101906123299190614638565b115b806123e457506000600460009054906101000a900473ffffffffffffffffffffffffffffffffffffffff1673ffffffffffffffffffffffffffffffffffffffff1662fdd58e3360056040518363ffffffff1660e01b8152600401612390929190614ae3565b602060405180830381600087803b1580156123aa57600080fd5b505af11580156123be573d6000803e3d6000fd5b505050506040513d601f19601f820116820180604052508101906123e29190614638565b115b612423576040517f08c379a000000000000000000000000000000000000000000000000000000000815260040161241a90614ccc565b60405180910390fd5b5b683635c9adc5dea000008210612522576000600660009054906101000a900473ffffffffffffffffffffffffffffffffffffffff1673ffffffffffffffffffffffffffffffffffffffff166370a08231336040518263ffffffff1660e01b8152600401612491919061498c565b60206040518083038186803b1580156124a957600080fd5b505afa1580156124bd573d6000803e3d6000fd5b505050506040513d601f19601f820116820180604052508101906124e19190614638565b11612521576040517f08c379a000000000000000000000000000000000000000000000000000000000815260040161251890614cec565b60405180910390fd5b5b600354600760003373ffffffffffffffffffffffffffffffffffffffff1673ffffffffffffffffffffffffffffffffffffffff1681526020019081526020016000208190555060006040518060c00160405280600073ffffffffffffffffffffffffffffffffffffffff1681526020013373ffffffffffffffffffffffffffffffffffffffff168152602001600073ffffffffffffffffffffffffffffffffffffffff168152602001868152602001600073ffffffffffffffffffffffffffffffffffffffff168152602001428152509050600a60003373ffffffffffffffffffffffffffffffffffffffff1673ffffffffffffffffffffffffffffffffffffffff16815260200190815260200160002060000160035490806001815401808255809150506001900390600052602060002001600090919091909150558060086000600354815260200190815260200160002060008201518160000160006101000a81548173ffffffffffffffffffffffffffffffffffffffff021916908373ffffffffffffffffffffffffffffffffffffffff16021790555060208201518160010160006101000a81548173ffffffffffffffffffffffffffffffffffffffff021916908373ffffffffffffffffffffffffffffffffffffffff16021790555060408201518160020160006101000a81548173ffffffffffffffffffffffffffffffffffffffff021916908373ffffffffffffffffffffffffffffffffffffffff1602179055506060820151816003015560808201518160040160006101000a81548173ffffffffffffffffffffffffffffffffffffffff021916908373ffffffffffffffffffffffffffffffffffffffff16021790555060a08201518160050155905050600360008154809291906127bb90615032565b9190505550843373ffffffffffffffffffffffffffffffffffffffff1660016003546127e79190614f5c565b7f6b8b1103b014d316d2e1ce2360505f35ad5291576b96e2ece01628c739910d3f60405160405180910390a4600354856000935093509350509193909250565b600061283282613a11565b61283b8361286a565b68056bc75e2d6310000061284f9190614ed1565b6128599190614f02565b9050919050565b6000600354905090565b6000600a60008373ffffffffffffffffffffffffffffffffffffffff1673ffffffffffffffffffffffffffffffffffffffff168152602001908152602001600020600001805490509050919050565b60006128c482611819565b6128cd83613a11565b6128d79190614e7b565b6128e08361286a565b6128ea9190614f5c565b9050919050565b600160009054906101000a900473ffffffffffffffffffffffffffffffffffffffff1681565b60003373ffffffffffffffffffffffffffffffffffffffff1660008054906101000a900473ffffffffffffffffffffffffffffffffffffffff1673ffffffffffffffffffffffffffffffffffffffff1614806129bc5750600960003373ffffffffffffffffffffffffffffffffffffffff1673ffffffffffffffffffffffffffffffffffffffff16815260200190815260200160002060009054906101000a900460ff165b6129c557600080fd5b600073ffffffffffffffffffffffffffffffffffffffff166008600085815260200190815260200160002060040160009054906101000a900473ffffffffffffffffffffffffffffffffffffffff1673ffffffffffffffffffffffffffffffffffffffff1614612a3457600080fd5b600073ffffffffffffffffffffffffffffffffffffffff166008600085815260200190815260200160002060020160009054906101000a900473ffffffffffffffffffffffffffffffffffffffff1673ffffffffffffffffffffffffffffffffffffffff161415612aa457600080fd5b336008600085815260200190815260200160002060000160006101000a81548173ffffffffffffffffffffffffffffffffffffffff021916908373ffffffffffffffffffffffffffffffffffffffff160217905550600073ffffffffffffffffffffffffffffffffffffffff168273ffffffffffffffffffffffffffffffffffffffff161415612e3257600560009054906101000a900473ffffffffffffffffffffffffffffffffffffffff1673ffffffffffffffffffffffffffffffffffffffff1663a9059cbb6008600086815260200190815260200160002060010160009054906101000a900473ffffffffffffffffffffffffffffffffffffffff1660086000878152602001908152602001600020600301546040518363ffffffff1660e01b8152600401612bd7929190614b0c565b602060405180830381600087803b158015612bf157600080fd5b505af1158015612c05573d6000803e3d6000fd5b505050506040513d601f19601f82011682018060405250810190612c2991906145de565b612c68576040517f08c379a0000000000000000000000000000000000000000000000000000000008152600401612c5f90614d0c565b60405180910390fd5b600560009054906101000a900473ffffffffffffffffffffffffffffffffffffffff1673ffffffffffffffffffffffffffffffffffffffff1663a9059cbb6008600086815260200190815260200160002060020160009054906101000a900473ffffffffffffffffffffffffffffffffffffffff1660086000878152602001908152602001600020600301546040518363ffffffff1660e01b8152600401612d11929190614b0c565b602060405180830381600087803b158015612d2b57600080fd5b505af1158015612d3f573d6000803e3d6000fd5b505050506040513d601f19601f82011682018060405250810190612d6391906145de565b612da2576040517f08c379a0000000000000000000000000000000000000000000000000000000008152600401612d9990614cac565b60405180910390fd5b6008600084815260200190815260200160002060000160009054906101000a900473ffffffffffffffffffffffffffffffffffffffff166008600085815260200190815260200160002060040160006101000a81548173ffffffffffffffffffffffffffffffffffffffff021916908373ffffffffffffffffffffffffffffffffffffffff1602179055506134a1565b60006008600085815260200190815260200160002060010160009054906101000a900473ffffffffffffffffffffffffffffffffffffffff1673ffffffffffffffffffffffffffffffffffffffff168373ffffffffffffffffffffffffffffffffffffffff161415612edc576008600085815260200190815260200160002060020160009054906101000a900473ffffffffffffffffffffffffffffffffffffffff169050612f16565b6008600085815260200190815260200160002060010160009054906101000a900473ffffffffffffffffffffffffffffffffffffffff1690505b826008600086815260200190815260200160002060040160006101000a81548173ffffffffffffffffffffffffffffffffffffffff021916908373ffffffffffffffffffffffffffffffffffffffff16021790555060006064600660026008600089815260200190815260200160002060030154612f949190614f02565b612f9e9190614f02565b612fa89190614ed1565b9050600560009054906101000a900473ffffffffffffffffffffffffffffffffffffffff1673ffffffffffffffffffffffffffffffffffffffff166342966c68600183612ff59190614f5c565b6040518263ffffffff1660e01b81526004016130119190614d8c565b600060405180830381600087803b15801561302b57600080fd5b505af115801561303f573d6000803e3d6000fd5b505050506000606460016002600860008a81526020019081526020016000206003015461306c9190614f02565b6130769190614f02565b6130809190614ed1565b9050600160009054906101000a900473ffffffffffffffffffffffffffffffffffffffff1673ffffffffffffffffffffffffffffffffffffffff166347e7ef24600560009054906101000a900473ffffffffffffffffffffffffffffffffffffffff166001846130f09190614f5c565b6040518363ffffffff1660e01b815260040161310d929190614b0c565b602060405180830381600087803b15801561312757600080fd5b505af115801561313b573d6000803e3d6000fd5b505050506040513d601f19601f8201168201806040525081019061315f91906145de565b61316857600080fd5b6000606460036002600860008b8152602001908152602001600020600301546131919190614f02565b61319b9190614f02565b6131a59190614ed1565b9050600560009054906101000a900473ffffffffffffffffffffffffffffffffffffffff1673ffffffffffffffffffffffffffffffffffffffff1663a9059cbb600260009054906101000a900473ffffffffffffffffffffffffffffffffffffffff166001846132159190614f5c565b6040518363ffffffff1660e01b8152600401613232929190614b0c565b602060405180830381600087803b15801561324c57600080fd5b505af1158015613260573d6000803e3d6000fd5b505050506040513d601f19601f8201168201806040525081019061328491906145de565b61328d57600080fd5b600081838561329c9190614e7b565b6132a69190614e7b565b90506000816002600860008c8152602001908152602001600020600301546132ce9190614f02565b6132d89190614f5c565b9050600560009054906101000a900473ffffffffffffffffffffffffffffffffffffffff1673ffffffffffffffffffffffffffffffffffffffff1663a9059cbb89836040518363ffffffff1660e01b8152600401613337929190614b0c565b602060405180830381600087803b15801561335157600080fd5b505af1158015613365573d6000803e3d6000fd5b505050506040513d601f19601f8201168201806040525081019061338991906145de565b6133c8576040517f08c379a00000000000000000000000000000000000000000000000000000000081526004016133bf90614c8c565b60405180910390fd5b600a60008973ffffffffffffffffffffffffffffffffffffffff1673ffffffffffffffffffffffffffffffffffffffff168152602001908152602001600020600101899080600181540180825580915050600190039060005260206000200160009091909190915055600a60008773ffffffffffffffffffffffffffffffffffffffff1673ffffffffffffffffffffffffffffffffffffffff1681526020019081526020016000206002018990806001815401808255809150506001900390600052602060002001600090919091909150555050505050505b6000600760006008600087815260200190815260200160002060010160009054906101000a900473ffffffffffffffffffffffffffffffffffffffff1673ffffffffffffffffffffffffffffffffffffffff1673ffffffffffffffffffffffffffffffffffffffff168152602001908152602001600020819055506000600760006008600087815260200190815260200160002060020160009054906101000a900473ffffffffffffffffffffffffffffffffffffffff1673ffffffffffffffffffffffffffffffffffffffff1673ffffffffffffffffffffffffffffffffffffffff1681526020019081526020016000208190555060086000848152602001908152602001600020600301548273ffffffffffffffffffffffffffffffffffffffff16847f2a991d598ea2abce3d34c6b8bee9e873343e82067779769b2f3481bc30403edf60405160405180910390a46008600084815260200190815260200160002060000160009054906101000a900473ffffffffffffffffffffffffffffffffffffffff1673ffffffffffffffffffffffffffffffffffffffff166108fc67016345785d8a00009081150290604051600060405180830381858888f19350505050158015613676573d6000803e3d6000fd5b506001905092915050565b6000600760008373ffffffffffffffffffffffffffffffffffffffff1673ffffffffffffffffffffffffffffffffffffffff168152602001908152602001600020549050919050565b60008054906101000a900473ffffffffffffffffffffffffffffffffffffffff1681565b3373ffffffffffffffffffffffffffffffffffffffff1660008054906101000a900473ffffffffffffffffffffffffffffffffffffffff1673ffffffffffffffffffffffffffffffffffffffff1614806137915750600960003373ffffffffffffffffffffffffffffffffffffffff1673ffffffffffffffffffffffffffffffffffffffff16815260200190815260200160002060009054906101000a900460ff165b61379a57600080fd5b80600260006101000a81548173ffffffffffffffffffffffffffffffffffffffff021916908373ffffffffffffffffffffffffffffffffffffffff16021790555050565b60008060008060006137ef86611b88565b60086000888152602001908152602001600020600301546008600089815260200190815260200160002060010160009054906101000a900473ffffffffffffffffffffffffffffffffffffffff16600860008a815260200190815260200160002060020160009054906101000a900473ffffffffffffffffffffffffffffffffffffffff16600860008b815260200190815260200160002060040160009054906101000a900473ffffffffffffffffffffffffffffffffffffffff169450945094509450945091939590929450565b3373ffffffffffffffffffffffffffffffffffffffff1660008054906101000a900473ffffffffffffffffffffffffffffffffffffffff1673ffffffffffffffffffffffffffffffffffffffff1614806139615750600960003373ffffffffffffffffffffffffffffffffffffffff1673ffffffffffffffffffffffffffffffffffffffff16815260200190815260200160002060009054906101000a900460ff165b61396a57600080fd5b600960008273ffffffffffffffffffffffffffffffffffffffff1673ffffffffffffffffffffffffffffffffffffffff16815260200190815260200160002060009054906101000a900460ff1615600960008373ffffffffffffffffffffffffffffffffffffffff1673ffffffffffffffffffffffffffffffffffffffff16815260200190815260200160002060006101000a81548160ff02191690831515021790555050565b6000600a60008373ffffffffffffffffffffffffffffffffffffffff1673ffffffffffffffffffffffffffffffffffffffff168152602001908152602001600020600101805490509050919050565b6060600a60008373ffffffffffffffffffffffffffffffffffffffff1673ffffffffffffffffffffffffffffffffffffffff168152602001908152602001600020600101805480602002602001604051908101604052809291908181526020018280548015613aee57602002820191906000526020600020905b815481526020019060010190808311613ada575b50505050509050919050565b6060600a60008373ffffffffffffffffffffffffffffffffffffffff1673ffffffffffffffffffffffffffffffffffffffff168152602001908152602001600020600001805480602002602001604051908101604052809291908181526020018280548015613b8857602002820191906000526020600020905b815481526020019060010190808311613b74575b50505050509050919050565b6000613b9f82611819565b670de0b6b3a7640000613bb184613a11565b613bbb9190614f02565b613bc59190614ed1565b9050919050565b60086020528060005260406000206000915090508060000160009054906101000a900473ffffffffffffffffffffffffffffffffffffffff16908060010160009054906101000a900473ffffffffffffffffffffffffffffffffffffffff16908060020160009054906101000a900473ffffffffffffffffffffffffffffffffffffffff16908060030154908060040160009054906101000a900473ffffffffffffffffffffffffffffffffffffffff16908060050154905086565b3373ffffffffffffffffffffffffffffffffffffffff1660008054906101000a900473ffffffffffffffffffffffffffffffffffffffff1673ffffffffffffffffffffffffffffffffffffffff161480613d2b5750600960003373ffffffffffffffffffffffffffffffffffffffff1673ffffffffffffffffffffffffffffffffffffffff16815260200190815260200160002060009054906101000a900460ff165b613d3457600080fd5b60008060006101000a81548173ffffffffffffffffffffffffffffffffffffffff021916908373ffffffffffffffffffffffffffffffffffffffff160217905550565b60608060606000806000905060008690505b600354811015613e2057600073ffffffffffffffffffffffffffffffffffffffff166008600083815260200190815260200160002060040160009054906101000a900473ffffffffffffffffffffffffffffffffffffffff1673ffffffffffffffffffffffffffffffffffffffff161415613e0d578180613e0990615032565b9250505b8080613e1890615032565b915050613d89565b5060008167ffffffffffffffff811115613e3d57613e3c615108565b5b604051908082528060200260200182016040528015613e6b5781602001602082028036833780820191505090505b50905060008267ffffffffffffffff811115613e8a57613e89615108565b5b604051908082528060200260200182016040528015613eb85781602001602082028036833780820191505090505b50905060008367ffffffffffffffff811115613ed757613ed6615108565b5b604051908082528060200260200182016040528015613f055781602001602082028036833780820191505090505b5090506000935060008990505b60035481101561402757600073ffffffffffffffffffffffffffffffffffffffff166008600083815260200190815260200160002060040160009054906101000a900473ffffffffffffffffffffffffffffffffffffffff1673ffffffffffffffffffffffffffffffffffffffff1614156140145780848681518110613f9b57613f9a6150d9565b5b6020026020010181815250506008600082815260200190815260200160002060050154838681518110613fd157613fd06150d9565b5b602002602001018181525050613fe681611b88565b828681518110613ff957613ff86150d9565b5b602002602001018181525050848061401090615032565b9550505b808061401f90615032565b915050613f12565b50828282429750975097509750505050509193509193565b6060600a60008373ffffffffffffffffffffffffffffffffffffffff1673ffffffffffffffffffffffffffffffffffffffff1681526020019081526020016000206002018054806020026020016040519081016040528092919081815260200182805480156140cd57602002820191906000526020600020905b8154815260200190600101908083116140b9575b50505050509050919050565b600066b1a2bc2ec50000341015614125576040517f08c379a000000000000000000000000000000000000000000000000000000000815260040161411c90614c4c565b60405180910390fd5b6000600760003373ffffffffffffffffffffffffffffffffffffffff1673ffffffffffffffffffffffffffffffffffffffff16815260200190815260200160002054146141a7576040517f08c379a000000000000000000000000000000000000000000000000000000000815260040161419e90614bcc565b60405180910390fd5b600560009054906101000a900473ffffffffffffffffffffffffffffffffffffffff1673ffffffffffffffffffffffffffffffffffffffff166323b872dd333060086000878152602001908152602001600020600301546040518463ffffffff1660e01b815260040161421c93929190614a08565b602060405180830381600087803b15801561423657600080fd5b505af115801561424a573d6000803e3d6000fd5b505050506040513d601f19601f8201168201806040525081019061426e91906145de565b6142ad576040517f08c379a00000000000000000000000000000000000000000000000000000000081526004016142a490614bec565b60405180910390fd5b600073ffffffffffffffffffffffffffffffffffffffff166008600084815260200190815260200160002060040160009054906101000a900473ffffffffffffffffffffffffffffffffffffffff1673ffffffffffffffffffffffffffffffffffffffff1614614352576040517f08c379a000000000000000000000000000000000000000000000000000000000815260040161434990614c0c565b60405180910390fd5b600073ffffffffffffffffffffffffffffffffffffffff166008600084815260200190815260200160002060020160009054906101000a900473ffffffffffffffffffffffffffffffffffffffff1673ffffffffffffffffffffffffffffffffffffffff16146143f7576040517f08c379a00000000000000000000000000000000000000000000000000000000081526004016143ee90614c6c565b60405180910390fd5b81600760003373ffffffffffffffffffffffffffffffffffffffff1673ffffffffffffffffffffffffffffffffffffffff16815260200190815260200160002081905550336008600084815260200190815260200160002060020160006101000a81548173ffffffffffffffffffffffffffffffffffffffff021916908373ffffffffffffffffffffffffffffffffffffffff160217905550600a60003373ffffffffffffffffffffffffffffffffffffffff1673ffffffffffffffffffffffffffffffffffffffff16815260200190815260200160002060000182908060018154018082558091505060019003906000526020600020016000909190919091505560086000838152602001908152602001600020600301543373ffffffffffffffffffffffffffffffffffffffff16837fd301e84700dc95781227dac9f35e8f75b83044f757c2f704d5b29480995511e560405160405180910390a460019050919050565b60008135905061456c816153a0565b92915050565b600081519050614581816153b7565b92915050565b600081359050614596816153ce565b92915050565b6000815190506145ab816153ce565b92915050565b6000602082840312156145c7576145c6615137565b5b60006145d58482850161455d565b91505092915050565b6000602082840312156145f4576145f3615137565b5b600061460284828501614572565b91505092915050565b60006020828403121561462157614620615137565b5b600061462f84828501614587565b91505092915050565b60006020828403121561464e5761464d615137565b5b600061465c8482850161459c565b91505092915050565b6000806040838503121561467c5761467b615137565b5b600061468a85828601614587565b925050602061469b8582860161455d565b9150509250929050565b60006146b1838361496e565b60208301905092915050565b6146c681614f90565b82525050565b60006146d782614e41565b6146e18185614e59565b93506146ec83614e31565b8060005b8381101561471d57815161470488826146a5565b975061470f83614e4c565b9250506001810190506146f0565b5085935050505092915050565b61473381614fa2565b82525050565b61474281614fd8565b82525050565b61475181614fea565b82525050565b61476081614ffc565b82525050565b61476f8161500e565b82525050565b61477e81615020565b82525050565b6000614791601b83614e6a565b915061479c8261513c565b602082019050919050565b60006147b4600f83614e6a565b91506147bf82615165565b602082019050919050565b60006147d7601383614e6a565b91506147e28261518e565b602082019050919050565b60006147fa600c83614e6a565b9150614805826151b7565b602082019050919050565b600061481d602c83614e6a565b9150614828826151e0565b604082019050919050565b6000614840600a83614e6a565b915061484b8261522f565b602082019050919050565b6000614863601883614e6a565b915061486e82615258565b602082019050919050565b6000614886601383614e6a565b915061489182615281565b602082019050919050565b60006148a9601e83614e6a565b91506148b4826152aa565b602082019050919050565b60006148cc601f83614e6a565b91506148d7826152d3565b602082019050919050565b60006148ef601383614e6a565b91506148fa826152fc565b602082019050919050565b6000614912601083614e6a565b915061491d82615325565b602082019050919050565b6000614935601b83614e6a565b91506149408261534e565b602082019050919050565b6000614958601583614e6a565b915061496382615377565b602082019050919050565b61497781614fce565b82525050565b61498681614fce565b82525050565b60006020820190506149a160008301846146bd565b92915050565b600060c0820190506149bc60008301896146bd565b6149c960208301886146bd565b6149d660408301876146bd565b6149e3606083018661497d565b6149f060808301856146bd565b6149fd60a083018461497d565b979650505050505050565b6000606082019050614a1d60008301866146bd565b614a2a60208301856146bd565b614a37604083018461497d565b949350505050565b6000604082019050614a5460008301856146bd565b614a616020830184614739565b9392505050565b6000604082019050614a7d60008301856146bd565b614a8a6020830184614748565b9392505050565b6000604082019050614aa660008301856146bd565b614ab36020830184614757565b9392505050565b6000604082019050614acf60008301856146bd565b614adc6020830184614766565b9392505050565b6000604082019050614af860008301856146bd565b614b056020830184614775565b9392505050565b6000604082019050614b2160008301856146bd565b614b2e602083018461497d565b9392505050565b60006020820190508181036000830152614b4f81846146cc565b905092915050565b60006080820190508181036000830152614b7181876146cc565b90508181036020830152614b8581866146cc565b90508181036040830152614b9981856146cc565b9050614ba8606083018461497d565b95945050505050565b6000602082019050614bc6600083018461472a565b92915050565b60006020820190508181036000830152614be581614784565b9050919050565b60006020820190508181036000830152614c05816147a7565b9050919050565b60006020820190508181036000830152614c25816147ca565b9050919050565b60006020820190508181036000830152614c45816147ed565b9050919050565b60006020820190508181036000830152614c6581614810565b9050919050565b60006020820190508181036000830152614c8581614833565b9050919050565b60006020820190508181036000830152614ca581614856565b9050919050565b60006020820190508181036000830152614cc581614879565b9050919050565b60006020820190508181036000830152614ce58161489c565b9050919050565b60006020820190508181036000830152614d05816148bf565b9050919050565b60006020820190508181036000830152614d25816148e2565b9050919050565b60006020820190508181036000830152614d4581614905565b9050919050565b60006020820190508181036000830152614d6581614928565b9050919050565b60006020820190508181036000830152614d858161494b565b9050919050565b6000602082019050614da1600083018461497d565b92915050565b600060a082019050614dbc600083018861497d565b614dc9602083018761497d565b614dd660408301866146bd565b614de360608301856146bd565b614df060808301846146bd565b9695505050505050565b6000606082019050614e0f600083018661497d565b614e1c602083018561497d565b614e29604083018461472a565b949350505050565b6000819050602082019050919050565b600081519050919050565b6000602082019050919050565b600082825260208201905092915050565b600082825260208201905092915050565b6000614e8682614fce565b9150614e9183614fce565b9250827fffffffffffffffffffffffffffffffffffffffffffffffffffffffffffffffff03821115614ec657614ec561507b565b5b828201905092915050565b6000614edc82614fce565b9150614ee783614fce565b925082614ef757614ef66150aa565b5b828204905092915050565b6000614f0d82614fce565b9150614f1883614fce565b9250817fffffffffffffffffffffffffffffffffffffffffffffffffffffffffffffffff0483118215151615614f5157614f5061507b565b5b828202905092915050565b6000614f6782614fce565b9150614f7283614fce565b925082821015614f8557614f8461507b565b5b828203905092915050565b6000614f9b82614fae565b9050919050565b60008115159050919050565b600073ffffffffffffffffffffffffffffffffffffffff82169050919050565b6000819050919050565b6000614fe382614fce565b9050919050565b6000614ff582614fce565b9050919050565b600061500782614fce565b9050919050565b600061501982614fce565b9050919050565b600061502b82614fce565b9050919050565b600061503d82614fce565b91507fffffffffffffffffffffffffffffffffffffffffffffffffffffffffffffffff8214156150705761506f61507b565b5b600182019050919050565b7f4e487b7100000000000000000000000000000000000000000000000000000000600052601160045260246000fd5b7f4e487b7100000000000000000000000000000000000000000000000000000000600052601260045260246000fd5b7f4e487b7100000000000000000000000000000000000000000000000000000000600052603260045260246000fd5b7f4e487b7100000000000000000000000000000000000000000000000000000000600052604160045260246000fd5b600080fd5b7f616c7265616479206a6f696e65656420612067616d652061746d210000000000600082015250565b7f7061796d656e74206661696c6564210000000000000000000000000000000000600082015250565b7f67616d6520776173207368757420646f776e2100000000000000000000000000600082015250565b7f62657420746f6f20626967210000000000000000000000000000000000000000600082015250565b7f706c656173652070726f76696465206120666565206f66206174206c6561737460008201527f20302e3035204d41544943210000000000000000000000000000000000000000602082015250565b7f67616d652066756c6c2100000000000000000000000000000000000000000000600082015250565b7f7472616e73666572206661696c65642c2077696e6e6572210000000000000000600082015250565b7f7472616e73666572206661696c65642c20322100000000000000000000000000600082015250565b7f506c65617365207075726368736520636f696e21202865726331313535290000600082015250565b7f706c656173652070757263686173652061206e66742e20286572633732312900600082015250565b7f7472616e73666572206661696c65642c20312100000000000000000000000000600082015250565b7f7472616e73666572206661696c65642100000000000000000000000000000000600082015250565b7f426574206d75737420626520686967686572207468616e203130210000000000600082015250565b7f626574207472616e7366657220206661696c6564210000000000000000000000600082015250565b6153a981614f90565b81146153b457600080fd5b50565b6153c081614fa2565b81146153cb57600080fd5b50565b6153d781614fce565b81146153e257600080fd5b5056fea26469706673582212209831a66e457ae50dedd6bcc7fe91007ba148c74fddd1d810fd518f9a7933962a64736f6c63430008070033",
  "linkReferences": {},
  "deployedLinkReferences": {}
}