{
  "_format": "hh-sol-artifact-1",
  "contractName": "Battle",
  "sourceName": "contracts/Battle.sol",
  "abi": [
    {
      "inputs": [
        {
          "internalType": "address",
          "name": "_token",
          "type": "address"
        },
        {
          "internalType": "address",
          "name": "_operator",
          "type": "address"
        },
        {
          "internalType": "address",
          "name": "_staking",
          "type": "address"
        },
        {
          "internalType": "address",
          "name": "_team",
          "type": "address"
        },
        {
          "internalType": "address",
          "name": "_erc1155",
          "type": "address"
        },
        {
          "internalType": "address",
          "name": "_erc721",
          "type": "address"
        }
      ],
      "stateMutability": "nonpayable",
      "type": "constructor"
    },
    {
      "anonymous": false,
      "inputs": [
        {
          "indexed": true,
          "internalType": "uint256",
          "name": "id",
          "type": "uint256"
        },
        {
          "indexed": true,
          "internalType": "address",
          "name": "winner",
          "type": "address"
        },
        {
          "indexed": true,
          "internalType": "uint256",
          "name": "bet",
          "type": "uint256"
        }
      ],
      "name": "endedGame",
      "type": "event"
    },
    {
      "anonymous": false,
      "inputs": [
        {
          "indexed": true,
          "internalType": "uint256",
          "name": "id",
          "type": "uint256"
        },
        {
          "indexed": true,
          "internalType": "address",
          "name": "player",
          "type": "address"
        },
        {
          "indexed": true,
          "internalType": "uint256",
          "name": "bet",
          "type": "uint256"
        }
      ],
      "name": "joinedGame",
      "type": "event"
    },
    {
      "anonymous": false,
      "inputs": [
        {
          "indexed": true,
          "internalType": "uint256",
          "name": "id",
          "type": "uint256"
        },
        {
          "indexed": true,
          "internalType": "address",
          "name": "creator",
          "type": "address"
        },
        {
          "indexed": true,
          "internalType": "uint256",
          "name": "bet",
          "type": "uint256"
        }
      ],
      "name": "newGame",
      "type": "event"
    },
    {
      "inputs": [
        {
          "internalType": "uint256",
          "name": "",
          "type": "uint256"
        }
      ],
      "name": "Gamelist",
      "outputs": [
        {
          "internalType": "address",
          "name": "operator",
          "type": "address"
        },
        {
          "internalType": "address",
          "name": "player1",
          "type": "address"
        },
        {
          "internalType": "address",
          "name": "player2",
          "type": "address"
        },
        {
          "internalType": "uint256",
          "name": "stakes",
          "type": "uint256"
        },
        {
          "internalType": "address",
          "name": "winner",
          "type": "address"
        },
        {
          "internalType": "uint256",
          "name": "startedAt",
          "type": "uint256"
        }
      ],
      "stateMutability": "view",
      "type": "function"
    },
    {
      "inputs": [],
      "name": "LPstaking",
      "outputs": [
        {
          "internalType": "address",
          "name": "",
          "type": "address"
        }
      ],
      "stateMutability": "view",
      "type": "function"
    },
    {
      "inputs": [
        {
          "internalType": "uint256",
          "name": "_id",
          "type": "uint256"
        }
      ],
      "name": "cancel",
      "outputs": [
        {
          "internalType": "bool",
          "name": "",
          "type": "bool"
        }
      ],
      "stateMutability": "nonpayable",
      "type": "function"
    },
    {
      "inputs": [
        {
          "internalType": "uint256",
          "name": "_bet",
          "type": "uint256"
        }
      ],
      "name": "createGame",
      "outputs": [
        {
          "internalType": "uint256",
          "name": "id",
          "type": "uint256"
        },
        {
          "internalType": "uint256",
          "name": "bet",
          "type": "uint256"
        },
        {
          "internalType": "bool",
          "name": "started",
          "type": "bool"
        }
      ],
      "stateMutability": "payable",
      "type": "function"
    },
    {
      "inputs": [
        {
          "internalType": "uint256",
          "name": "id",
          "type": "uint256"
        },
        {
          "internalType": "address",
          "name": "winner",
          "type": "address"
        }
      ],
      "name": "endgame",
      "outputs": [
        {
          "internalType": "bool",
          "name": "",
          "type": "bool"
        }
      ],
      "stateMutability": "nonpayable",
      "type": "function"
    },
    {
      "inputs": [
        {
          "internalType": "uint256",
          "name": "_start",
          "type": "uint256"
        }
      ],
      "name": "getAllActive",
      "outputs": [
        {
          "internalType": "uint256[]",
          "name": "",
          "type": "uint256[]"
        },
        {
          "internalType": "uint256[]",
          "name": "",
          "type": "uint256[]"
        }
      ],
      "stateMutability": "view",
      "type": "function"
    },
    {
      "inputs": [
        {
          "internalType": "address",
          "name": "_add",
          "type": "address"
        }
      ],
      "name": "getAllDrawnOf",
      "outputs": [
        {
          "internalType": "uint256[]",
          "name": "",
          "type": "uint256[]"
        }
      ],
      "stateMutability": "view",
      "type": "function"
    },
    {
      "inputs": [
        {
          "internalType": "address",
          "name": "_add",
          "type": "address"
        }
      ],
      "name": "getAllLostOf",
      "outputs": [
        {
          "internalType": "uint256[]",
          "name": "",
          "type": "uint256[]"
        }
      ],
      "stateMutability": "view",
      "type": "function"
    },
    {
      "inputs": [
        {
          "internalType": "address",
          "name": "_add",
          "type": "address"
        }
      ],
      "name": "getAllPlayedOf",
      "outputs": [
        {
          "internalType": "uint256[]",
          "name": "",
          "type": "uint256[]"
        }
      ],
      "stateMutability": "view",
      "type": "function"
    },
    {
      "inputs": [
        {
          "internalType": "address",
          "name": "_add",
          "type": "address"
        }
      ],
      "name": "getAllWonOf",
      "outputs": [
        {
          "internalType": "uint256[]",
          "name": "",
          "type": "uint256[]"
        }
      ],
      "stateMutability": "view",
      "type": "function"
    },
    {
      "inputs": [
        {
          "internalType": "address",
          "name": "_add",
          "type": "address"
        }
      ],
      "name": "getDrawPercentageOf",
      "outputs": [
        {
          "internalType": "uint256",
          "name": "",
          "type": "uint256"
        }
      ],
      "stateMutability": "view",
      "type": "function"
    },
    {
      "inputs": [
        {
          "internalType": "uint256",
          "name": "_id",
          "type": "uint256"
        }
      ],
      "name": "getGame",
      "outputs": [
        {
          "internalType": "uint256",
          "name": "",
          "type": "uint256"
        },
        {
          "internalType": "uint256",
          "name": "",
          "type": "uint256"
        },
        {
          "internalType": "address",
          "name": "",
          "type": "address"
        },
        {
          "internalType": "address",
          "name": "",
          "type": "address"
        },
        {
          "internalType": "address",
          "name": "",
          "type": "address"
        }
      ],
      "stateMutability": "view",
      "type": "function"
    },
    {
      "inputs": [
        {
          "internalType": "address",
          "name": "_add",
          "type": "address"
        }
      ],
      "name": "getLoosePercentageOf",
      "outputs": [
        {
          "internalType": "uint256",
          "name": "",
          "type": "uint256"
        }
      ],
      "stateMutability": "view",
      "type": "function"
    },
    {
      "inputs": [
        {
          "internalType": "uint256",
          "name": "_id",
          "type": "uint256"
        }
      ],
      "name": "getState",
      "outputs": [
        {
          "internalType": "uint256",
          "name": "",
          "type": "uint256"
        }
      ],
      "stateMutability": "view",
      "type": "function"
    },
    {
      "inputs": [
        {
          "internalType": "address",
          "name": "_add",
          "type": "address"
        }
      ],
      "name": "getTotalGamesDrawnOf",
      "outputs": [
        {
          "internalType": "uint256",
          "name": "",
          "type": "uint256"
        }
      ],
      "stateMutability": "view",
      "type": "function"
    },
    {
      "inputs": [
        {
          "internalType": "address",
          "name": "_add",
          "type": "address"
        }
      ],
      "name": "getTotalLostOf",
      "outputs": [
        {
          "internalType": "uint256",
          "name": "",
          "type": "uint256"
        }
      ],
      "stateMutability": "view",
      "type": "function"
    },
    {
      "inputs": [
        {
          "internalType": "address",
          "name": "_add",
          "type": "address"
        }
      ],
      "name": "getTotalPlayedOf",
      "outputs": [
        {
          "internalType": "uint256",
          "name": "",
          "type": "uint256"
        }
      ],
      "stateMutability": "view",
      "type": "function"
    },
    {
      "inputs": [
        {
          "internalType": "address",
          "name": "_add",
          "type": "address"
        }
      ],
      "name": "getTotalWonOf",
      "outputs": [
        {
          "internalType": "uint256",
          "name": "",
          "type": "uint256"
        }
      ],
      "stateMutability": "view",
      "type": "function"
    },
    {
      "inputs": [
        {
          "internalType": "address",
          "name": "_add",
          "type": "address"
        }
      ],
      "name": "getWLOf",
      "outputs": [
        {
          "internalType": "uint256",
          "name": "",
          "type": "uint256"
        }
      ],
      "stateMutability": "view",
      "type": "function"
    },
    {
      "inputs": [
        {
          "internalType": "address",
          "name": "_add",
          "type": "address"
        }
      ],
      "name": "getWinPercentageOf",
      "outputs": [
        {
          "internalType": "uint256",
          "name": "",
          "type": "uint256"
        }
      ],
      "stateMutability": "view",
      "type": "function"
    },
    {
      "inputs": [
        {
          "internalType": "uint256",
          "name": "_id",
          "type": "uint256"
        }
      ],
      "name": "joinGame",
      "outputs": [
        {
          "internalType": "bool",
          "name": "",
          "type": "bool"
        }
      ],
      "stateMutability": "payable",
      "type": "function"
    },
    {
      "inputs": [],
      "name": "latestGame",
      "outputs": [
        {
          "internalType": "uint256",
          "name": "",
          "type": "uint256"
        }
      ],
      "stateMutability": "view",
      "type": "function"
    },
    {
      "inputs": [],
      "name": "owner",
      "outputs": [
        {
          "internalType": "address",
          "name": "",
          "type": "address"
        }
      ],
      "stateMutability": "view",
      "type": "function"
    },
    {
      "inputs": [
        {
          "internalType": "address",
          "name": "_add",
          "type": "address"
        }
      ],
      "name": "playingOn",
      "outputs": [
        {
          "internalType": "uint256",
          "name": "",
          "type": "uint256"
        }
      ],
      "stateMutability": "view",
      "type": "function"
    },
    {
      "inputs": [],
      "name": "renouceOwner",
      "outputs": [],
      "stateMutability": "nonpayable",
      "type": "function"
    },
    {
      "inputs": [
        {
          "internalType": "address",
          "name": "_add",
          "type": "address"
        }
      ],
      "name": "setOperator",
      "outputs": [],
      "stateMutability": "nonpayable",
      "type": "function"
    },
    {
      "inputs": [
        {
          "internalType": "address",
          "name": "_add",
          "type": "address"
        }
      ],
      "name": "setOwner",
      "outputs": [],
      "stateMutability": "nonpayable",
      "type": "function"
    },
    {
      "inputs": [
        {
          "internalType": "address",
          "name": "_add",
          "type": "address"
        }
      ],
      "name": "setStaking",
      "outputs": [],
      "stateMutability": "nonpayable",
      "type": "function"
    },
    {
      "inputs": [
        {
          "internalType": "address",
          "name": "_add",
          "type": "address"
        }
      ],
      "name": "setTeam",
      "outputs": [],
      "stateMutability": "nonpayable",
      "type": "function"
    },
    {
      "inputs": [
        {
          "internalType": "address",
          "name": "_add",
          "type": "address"
        }
      ],
      "name": "setToken",
      "outputs": [],
      "stateMutability": "nonpayable",
      "type": "function"
    },
    {
      "inputs": [],
      "name": "team",
      "outputs": [
        {
          "internalType": "address",
          "name": "",
          "type": "address"
        }
      ],
      "stateMutability": "view",
      "type": "function"
    },
    {
      "stateMutability": "payable",
      "type": "receive"
    }
  ],
  "bytecode": "0x608060405260016003553480156200001657600080fd5b5060405162004b5f38038062004b5f83398181016040528101906200003c91906200034b565b85600560006101000a81548173ffffffffffffffffffffffffffffffffffffffff021916908373ffffffffffffffffffffffffffffffffffffffff160217905550336000806101000a81548173ffffffffffffffffffffffffffffffffffffffff021916908373ffffffffffffffffffffffffffffffffffffffff1602179055506001600960008773ffffffffffffffffffffffffffffffffffffffff1673ffffffffffffffffffffffffffffffffffffffff16815260200190815260200160002060006101000a81548160ff02191690831515021790555083600260006101000a81548173ffffffffffffffffffffffffffffffffffffffff021916908373ffffffffffffffffffffffffffffffffffffffff16021790555082600160006101000a81548173ffffffffffffffffffffffffffffffffffffffff021916908373ffffffffffffffffffffffffffffffffffffffff16021790555081600460006101000a81548173ffffffffffffffffffffffffffffffffffffffff021916908373ffffffffffffffffffffffffffffffffffffffff16021790555080600660006101000a81548173ffffffffffffffffffffffffffffffffffffffff021916908373ffffffffffffffffffffffffffffffffffffffff160217905550600560009054906101000a900473ffffffffffffffffffffffffffffffffffffffff1673ffffffffffffffffffffffffffffffffffffffff1663095ea7b3600160009054906101000a900473ffffffffffffffffffffffffffffffffffffffff167fffffffffffffffffffffffffffffffffffffffffffffffffffffffffffffffff6040518363ffffffff1660e01b8152600401620002ba9291906200043b565b602060405180830381600087803b158015620002d557600080fd5b505af1158015620002ea573d6000803e3d6000fd5b505050506040513d601f19601f82011682018060405250810190620003109190620003e7565b50505050505050620004ff565b6000815190506200032e81620004cb565b92915050565b6000815190506200034581620004e5565b92915050565b60008060008060008060c087890312156200036b576200036a620004c6565b5b60006200037b89828a016200031d565b96505060206200038e89828a016200031d565b9550506040620003a189828a016200031d565b9450506060620003b489828a016200031d565b9350506080620003c789828a016200031d565b92505060a0620003da89828a016200031d565b9150509295509295509295565b6000602082840312156200040057620003ff620004c6565b5b6000620004108482850162000334565b91505092915050565b620004248162000468565b82525050565b6200043581620004b2565b82525050565b600060408201905062000452600083018562000419565b6200046160208301846200042a565b9392505050565b6000620004758262000488565b9050919050565b60008115159050919050565b600073ffffffffffffffffffffffffffffffffffffffff82169050919050565b6000819050919050565b6000620004bf82620004a8565b9050919050565b600080fd5b620004d68162000468565b8114620004e257600080fd5b50565b620004f0816200047c565b8114620004fc57600080fd5b50565b614650806200050f6000396000f3fe6080604052600436106101dc5760003560e01c806385f2aef211610102578063b583096f11610095578063bddda9bc11610064578063bddda9bc146107a9578063dcc3cd68146107c0578063e72b95c0146107fe578063efaa55a01461083b576101e3565b8063b583096f146106b0578063b754b22f146106ed578063b9aba7261461072a578063bb38b5a71461076c576101e3565b8063a2f77bcc116100d1578063a2f77bcc146105cc578063b3ab15fb1461060d578063b50d8f4e14610636578063b5776b7c14610673576101e3565b806385f2aef2146105105780638a78e9911461053b5780638da5cb5b146105785780638ff39099146105a3576101e3565b80632bab93491161017a5780636886e771116101495780636886e7711461042e57806370de828e1461046b57806371e6a24514610496578063767ad3a1146104d3576101e3565b80632bab93491461034557806340e58ee51461038257806344c9af28146103bf57806348e837b9146103fc576101e3565b806313af4035116101b657806313af403514610279578063144fa6d7146102a25780631ccab8f1146102cb5780631eb9c5c414610308576101e3565b8063041a61f2146101e8578063095cf5c6146102255780630c0c441b1461024e576101e3565b366101e357005b600080fd5b3480156101f457600080fd5b5061020f600480360381019061020a9190613853565b61086b565b60405161021c9190613d9f565b60405180910390f35b34801561023157600080fd5b5061024c60048036038101906102479190613853565b610ab0565b005b34801561025a57600080fd5b50610263610ba0565b6040516102709190613c1f565b60405180910390f35b34801561028557600080fd5b506102a0600480360381019061029b9190613853565b610bc6565b005b3480156102ae57600080fd5b506102c960048036038101906102c49190613853565b610cb5565b005b3480156102d757600080fd5b506102f260048036038101906102ed9190613853565b610da5565b6040516102ff9190613fd3565b60405180910390f35b34801561031457600080fd5b5061032f600480360381019061032a9190613853565b610dde565b60405161033c9190613fd3565b60405180910390f35b34801561035157600080fd5b5061036c60048036038101906103679190613853565b610e17565b6040516103799190613fd3565b60405180910390f35b34801561038e57600080fd5b506103a960048036038101906103a491906138ad565b610e66565b6040516103b69190613df8565b60405180910390f35b3480156103cb57600080fd5b506103e660048036038101906103e191906138ad565b61110b565b6040516103f39190613fd3565b60405180910390f35b610416600480360381019061041191906138ad565b611277565b60405161042593929190614041565b60405180910390f35b34801561043a57600080fd5b5061045560048036038101906104509190613853565b611bfe565b6040516104629190613fd3565b60405180910390f35b34801561047757600080fd5b50610480611c37565b60405161048d9190613fd3565b60405180910390f35b3480156104a257600080fd5b506104bd60048036038101906104b89190613853565b611c41565b6040516104ca9190613fd3565b60405180910390f35b3480156104df57600080fd5b506104fa60048036038101906104f59190613853565b611c90565b6040516105079190613fd3565b60405180910390f35b34801561051c57600080fd5b50610525611cc8565b6040516105329190613c1f565b60405180910390f35b34801561054757600080fd5b50610562600480360381019061055d9190613853565b611cee565b60405161056f9190613fd3565b60405180910390f35b34801561058457600080fd5b5061058d611d37565b60405161059a9190613c1f565b60405180910390f35b3480156105af57600080fd5b506105ca60048036038101906105c59190613853565b611d5b565b005b3480156105d857600080fd5b506105f360048036038101906105ee91906138ad565b611e4b565b604051610604959493929190613fee565b60405180910390f35b34801561061957600080fd5b50610634600480360381019061062f9190613853565b611f2b565b005b34801561064257600080fd5b5061065d60048036038101906106589190613853565b61207e565b60405161066a9190613fd3565b60405180910390f35b34801561067f57600080fd5b5061069a60048036038101906106959190613853565b6120cd565b6040516106a79190613d9f565b60405180910390f35b3480156106bc57600080fd5b506106d760048036038101906106d29190613853565b612167565b6040516106e49190613d9f565b60405180910390f35b3480156106f957600080fd5b50610714600480360381019061070f9190613853565b612201565b6040516107219190613fd3565b60405180910390f35b34801561073657600080fd5b50610751600480360381019061074c91906138ad565b612239565b60405161076396959493929190613c3a565b60405180910390f35b34801561077857600080fd5b50610793600480360381019061078e9190613907565b6122f5565b6040516107a09190613df8565b60405180910390f35b3480156107b557600080fd5b506107be612fb0565b005b3480156107cc57600080fd5b506107e760048036038101906107e291906138ad565b61309f565b6040516107f5929190613dc1565b60405180910390f35b34801561080a57600080fd5b5061082560048036038101906108209190613853565b6132e1565b6040516108329190613d9f565b60405180910390f35b610855600480360381019061085091906138ad565b61337b565b6040516108629190613df8565b60405180910390f35b6060600061087883611c90565b67ffffffffffffffff8111156108915761089061433d565b5b6040519080825280602002602001820160405280156108bf5781602001602082028036833780820191505090505b5090506000805b6108cf85611c41565b811015610aa557600a60008673ffffffffffffffffffffffffffffffffffffffff1673ffffffffffffffffffffffffffffffffffffffff168152602001908152602001600020600101818154811061092a5761092961430e565b5b9060005260206000200154600a60008773ffffffffffffffffffffffffffffffffffffffff1673ffffffffffffffffffffffffffffffffffffffff16815260200190815260200160002060000182815481106109895761098861430e565b5b906000526020600020015414158015610a5e5750600a60008673ffffffffffffffffffffffffffffffffffffffff1673ffffffffffffffffffffffffffffffffffffffff16815260200190815260200160002060020181815481106109f1576109f061430e565b5b9060005260206000200154600a60008773ffffffffffffffffffffffffffffffffffffffff1673ffffffffffffffffffffffffffffffffffffffff1681526020019081526020016000206000018281548110610a5057610a4f61430e565b5b906000526020600020015414155b15610a925780838381518110610a7757610a7661430e565b5b6020026020010181815250508180610a8e90614267565b9250505b8080610a9d90614267565b9150506108c6565b508192505050919050565b3373ffffffffffffffffffffffffffffffffffffffff1660008054906101000a900473ffffffffffffffffffffffffffffffffffffffff1673ffffffffffffffffffffffffffffffffffffffff161480610b535750600960003373ffffffffffffffffffffffffffffffffffffffff1673ffffffffffffffffffffffffffffffffffffffff16815260200190815260200160002060009054906101000a900460ff165b610b5c57600080fd5b80600160006101000a81548173ffffffffffffffffffffffffffffffffffffffff021916908373ffffffffffffffffffffffffffffffffffffffff16021790555050565b600260009054906101000a900473ffffffffffffffffffffffffffffffffffffffff1681565b3373ffffffffffffffffffffffffffffffffffffffff1660008054906101000a900473ffffffffffffffffffffffffffffffffffffffff1673ffffffffffffffffffffffffffffffffffffffff161480610c695750600960003373ffffffffffffffffffffffffffffffffffffffff1673ffffffffffffffffffffffffffffffffffffffff16815260200190815260200160002060009054906101000a900460ff165b610c7257600080fd5b806000806101000a81548173ffffffffffffffffffffffffffffffffffffffff021916908373ffffffffffffffffffffffffffffffffffffffff16021790555050565b3373ffffffffffffffffffffffffffffffffffffffff1660008054906101000a900473ffffffffffffffffffffffffffffffffffffffff1673ffffffffffffffffffffffffffffffffffffffff161480610d585750600960003373ffffffffffffffffffffffffffffffffffffffff1673ffffffffffffffffffffffffffffffffffffffff16815260200190815260200160002060009054906101000a900460ff165b610d6157600080fd5b80600560006101000a81548173ffffffffffffffffffffffffffffffffffffffff021916908373ffffffffffffffffffffffffffffffffffffffff16021790555050565b6000610db082611c90565b610db983611c41565b68056bc75e2d63100000610dcd9190614118565b610dd79190614149565b9050919050565b6000610de982610e17565b610df283611c41565b68056bc75e2d63100000610e069190614118565b610e109190614149565b9050919050565b6000600a60008373ffffffffffffffffffffffffffffffffffffffff1673ffffffffffffffffffffffffffffffffffffffff168152602001908152602001600020600201805490509050919050565b60008073ffffffffffffffffffffffffffffffffffffffff166008600084815260200190815260200160002060020160009054906101000a900473ffffffffffffffffffffffffffffffffffffffff1673ffffffffffffffffffffffffffffffffffffffff1614610ed657600080fd5b3373ffffffffffffffffffffffffffffffffffffffff166008600084815260200190815260200160002060010160009054906101000a900473ffffffffffffffffffffffffffffffffffffffff1673ffffffffffffffffffffffffffffffffffffffff1614610f4457600080fd5b600560009054906101000a900473ffffffffffffffffffffffffffffffffffffffff1673ffffffffffffffffffffffffffffffffffffffff1663a9059cbb6008600085815260200190815260200160002060010160009054906101000a900473ffffffffffffffffffffffffffffffffffffffff1660086000868152602001908152602001600020600301546040518363ffffffff1660e01b8152600401610fed929190613d76565b602060405180830381600087803b15801561100757600080fd5b505af115801561101b573d6000803e3d6000fd5b505050506040513d601f19601f8201168201806040525081019061103f9190613880565b61107e576040517f08c379a000000000000000000000000000000000000000000000000000000000815260040161107590613f93565b60405180910390fd5b6008600083815260200190815260200160002060010160009054906101000a900473ffffffffffffffffffffffffffffffffffffffff1673ffffffffffffffffffffffffffffffffffffffff166108fc66b1a2bc2ec500009081150290604051600060405180830381858888f19350505050158015611101573d6000803e3d6000fd5b5060019050919050565b60008060009050600073ffffffffffffffffffffffffffffffffffffffff166008600085815260200190815260200160002060040160009054906101000a900473ffffffffffffffffffffffffffffffffffffffff1673ffffffffffffffffffffffffffffffffffffffff1614611185576003905061126e565b600073ffffffffffffffffffffffffffffffffffffffff166008600085815260200190815260200160002060010160009054906101000a900473ffffffffffffffffffffffffffffffffffffffff1673ffffffffffffffffffffffffffffffffffffffff161415801561125a5750600073ffffffffffffffffffffffffffffffffffffffff166008600085815260200190815260200160002060020160009054906101000a900473ffffffffffffffffffffffffffffffffffffffff1673ffffffffffffffffffffffffffffffffffffffff16145b15611268576001905061126d565b600290505b5b80915050919050565b600080600080600760003373ffffffffffffffffffffffffffffffffffffffff1673ffffffffffffffffffffffffffffffffffffffff16815260200190815260200160002054146112fd576040517f08c379a00000000000000000000000000000000000000000000000000000000081526004016112f490613e33565b60405180910390fd5b66b1a2bc2ec50000341015611347576040517f08c379a000000000000000000000000000000000000000000000000000000000815260040161133e90613eb3565b60405180910390fd5b6000841161138a576040517f08c379a000000000000000000000000000000000000000000000000000000000815260040161138190613e13565b60405180910390fd5b69021e19e0c9bab24000008211156113d7576040517f08c379a00000000000000000000000000000000000000000000000000000000081526004016113ce90613e93565b60405180910390fd5b600560009054906101000a900473ffffffffffffffffffffffffffffffffffffffff1673ffffffffffffffffffffffffffffffffffffffff166323b872dd3330876040518463ffffffff1660e01b815260040161143693929190613c9b565b602060405180830381600087803b15801561145057600080fd5b505af1158015611464573d6000803e3d6000fd5b505050506040513d601f19601f820116820180604052508101906114889190613880565b6114c7576040517f08c379a00000000000000000000000000000000000000000000000000000000081526004016114be90613fb3565b60405180910390fd5b606482101580156114d957506103e882105b156117fb576000600460009054906101000a900473ffffffffffffffffffffffffffffffffffffffff1673ffffffffffffffffffffffffffffffffffffffff1662fdd58e3360016040518363ffffffff1660e01b815260040161153d929190613cd2565b602060405180830381600087803b15801561155757600080fd5b505af115801561156b573d6000803e3d6000fd5b505050506040513d601f19601f8201168201806040525081019061158f91906138da565b118061164957506000600460009054906101000a900473ffffffffffffffffffffffffffffffffffffffff1673ffffffffffffffffffffffffffffffffffffffff1662fdd58e3360026040518363ffffffff1660e01b81526004016115f5929190613cfb565b602060405180830381600087803b15801561160f57600080fd5b505af1158015611623573d6000803e3d6000fd5b505050506040513d601f19601f8201168201806040525081019061164791906138da565b115b8061170257506000600460009054906101000a900473ffffffffffffffffffffffffffffffffffffffff1673ffffffffffffffffffffffffffffffffffffffff1662fdd58e3360036040518363ffffffff1660e01b81526004016116ae929190613d24565b602060405180830381600087803b1580156116c857600080fd5b505af11580156116dc573d6000803e3d6000fd5b505050506040513d601f19601f8201168201806040525081019061170091906138da565b115b806117bb57506000600460009054906101000a900473ffffffffffffffffffffffffffffffffffffffff1673ffffffffffffffffffffffffffffffffffffffff1662fdd58e3360046040518363ffffffff1660e01b8152600401611767929190613d4d565b602060405180830381600087803b15801561178157600080fd5b505af1158015611795573d6000803e3d6000fd5b505050506040513d601f19601f820116820180604052508101906117b991906138da565b115b6117fa576040517f08c379a00000000000000000000000000000000000000000000000000000000081526004016117f190613f33565b60405180910390fd5b5b683635c9adc5dea0000082106118f9576000600660009054906101000a900473ffffffffffffffffffffffffffffffffffffffff1673ffffffffffffffffffffffffffffffffffffffff166370a08231336040518263ffffffff1660e01b81526004016118689190613c1f565b60206040518083038186803b15801561188057600080fd5b505afa158015611894573d6000803e3d6000fd5b505050506040513d601f19601f820116820180604052508101906118b891906138da565b116118f8576040517f08c379a00000000000000000000000000000000000000000000000000000000081526004016118ef90613f53565b60405180910390fd5b5b600354600760003373ffffffffffffffffffffffffffffffffffffffff1673ffffffffffffffffffffffffffffffffffffffff1681526020019081526020016000208190555060006040518060c00160405280600073ffffffffffffffffffffffffffffffffffffffff1681526020013373ffffffffffffffffffffffffffffffffffffffff168152602001600073ffffffffffffffffffffffffffffffffffffffff168152602001868152602001600073ffffffffffffffffffffffffffffffffffffffff168152602001428152509050600a60003373ffffffffffffffffffffffffffffffffffffffff1673ffffffffffffffffffffffffffffffffffffffff16815260200190815260200160002060000160035490806001815401808255809150506001900390600052602060002001600090919091909150558060086000600354815260200190815260200160002060008201518160000160006101000a81548173ffffffffffffffffffffffffffffffffffffffff021916908373ffffffffffffffffffffffffffffffffffffffff16021790555060208201518160010160006101000a81548173ffffffffffffffffffffffffffffffffffffffff021916908373ffffffffffffffffffffffffffffffffffffffff16021790555060408201518160020160006101000a81548173ffffffffffffffffffffffffffffffffffffffff021916908373ffffffffffffffffffffffffffffffffffffffff1602179055506060820151816003015560808201518160040160006101000a81548173ffffffffffffffffffffffffffffffffffffffff021916908373ffffffffffffffffffffffffffffffffffffffff16021790555060a0820151816005015590505060036000815480929190611b9290614267565b9190505550843373ffffffffffffffffffffffffffffffffffffffff166001600354611bbe91906141a3565b7f6b8b1103b014d316d2e1ce2360505f35ad5291576b96e2ece01628c739910d3f60405160405180910390a4600354856000935093509350509193909250565b6000611c098261207e565b611c1283611c41565b68056bc75e2d63100000611c269190614118565b611c309190614149565b9050919050565b6000600354905090565b6000600a60008373ffffffffffffffffffffffffffffffffffffffff1673ffffffffffffffffffffffffffffffffffffffff168152602001908152602001600020600001805490509050919050565b6000611c9b82610e17565b611ca48361207e565b611cae91906140c2565b611cb783611c41565b611cc191906141a3565b9050919050565b600160009054906101000a900473ffffffffffffffffffffffffffffffffffffffff1681565b6000600760008373ffffffffffffffffffffffffffffffffffffffff1673ffffffffffffffffffffffffffffffffffffffff168152602001908152602001600020549050919050565b60008054906101000a900473ffffffffffffffffffffffffffffffffffffffff1681565b3373ffffffffffffffffffffffffffffffffffffffff1660008054906101000a900473ffffffffffffffffffffffffffffffffffffffff1673ffffffffffffffffffffffffffffffffffffffff161480611dfe5750600960003373ffffffffffffffffffffffffffffffffffffffff1673ffffffffffffffffffffffffffffffffffffffff16815260200190815260200160002060009054906101000a900460ff165b611e0757600080fd5b80600260006101000a81548173ffffffffffffffffffffffffffffffffffffffff021916908373ffffffffffffffffffffffffffffffffffffffff16021790555050565b6000806000806000611e5c8661110b565b60086000888152602001908152602001600020600301546008600089815260200190815260200160002060010160009054906101000a900473ffffffffffffffffffffffffffffffffffffffff16600860008a815260200190815260200160002060020160009054906101000a900473ffffffffffffffffffffffffffffffffffffffff16600860008b815260200190815260200160002060040160009054906101000a900473ffffffffffffffffffffffffffffffffffffffff169450945094509450945091939590929450565b3373ffffffffffffffffffffffffffffffffffffffff1660008054906101000a900473ffffffffffffffffffffffffffffffffffffffff1673ffffffffffffffffffffffffffffffffffffffff161480611fce5750600960003373ffffffffffffffffffffffffffffffffffffffff1673ffffffffffffffffffffffffffffffffffffffff16815260200190815260200160002060009054906101000a900460ff165b611fd757600080fd5b600960008273ffffffffffffffffffffffffffffffffffffffff1673ffffffffffffffffffffffffffffffffffffffff16815260200190815260200160002060009054906101000a900460ff1615600960008373ffffffffffffffffffffffffffffffffffffffff1673ffffffffffffffffffffffffffffffffffffffff16815260200190815260200160002060006101000a81548160ff02191690831515021790555050565b6000600a60008373ffffffffffffffffffffffffffffffffffffffff1673ffffffffffffffffffffffffffffffffffffffff168152602001908152602001600020600101805490509050919050565b6060600a60008373ffffffffffffffffffffffffffffffffffffffff1673ffffffffffffffffffffffffffffffffffffffff16815260200190815260200160002060010180548060200260200160405190810160405280929190818152602001828054801561215b57602002820191906000526020600020905b815481526020019060010190808311612147575b50505050509050919050565b6060600a60008373ffffffffffffffffffffffffffffffffffffffff1673ffffffffffffffffffffffffffffffffffffffff1681526020019081526020016000206000018054806020026020016040519081016040528092919081815260200182805480156121f557602002820191906000526020600020905b8154815260200190600101908083116121e1575b50505050509050919050565b600061220c82610e17565b670de0b6b3a764000061221e8461207e565b6122289190614149565b6122329190614118565b9050919050565b60086020528060005260406000206000915090508060000160009054906101000a900473ffffffffffffffffffffffffffffffffffffffff16908060010160009054906101000a900473ffffffffffffffffffffffffffffffffffffffff16908060020160009054906101000a900473ffffffffffffffffffffffffffffffffffffffff16908060030154908060040160009054906101000a900473ffffffffffffffffffffffffffffffffffffffff16908060050154905086565b60003373ffffffffffffffffffffffffffffffffffffffff1660008054906101000a900473ffffffffffffffffffffffffffffffffffffffff1673ffffffffffffffffffffffffffffffffffffffff16148061239a5750600960003373ffffffffffffffffffffffffffffffffffffffff1673ffffffffffffffffffffffffffffffffffffffff16815260200190815260200160002060009054906101000a900460ff165b6123a357600080fd5b600073ffffffffffffffffffffffffffffffffffffffff166008600085815260200190815260200160002060040160009054906101000a900473ffffffffffffffffffffffffffffffffffffffff1673ffffffffffffffffffffffffffffffffffffffff161461241257600080fd5b600073ffffffffffffffffffffffffffffffffffffffff166008600085815260200190815260200160002060020160009054906101000a900473ffffffffffffffffffffffffffffffffffffffff1673ffffffffffffffffffffffffffffffffffffffff16141561248257600080fd5b336008600085815260200190815260200160002060000160006101000a81548173ffffffffffffffffffffffffffffffffffffffff021916908373ffffffffffffffffffffffffffffffffffffffff160217905550600073ffffffffffffffffffffffffffffffffffffffff168273ffffffffffffffffffffffffffffffffffffffff16141561281057600560009054906101000a900473ffffffffffffffffffffffffffffffffffffffff1673ffffffffffffffffffffffffffffffffffffffff1663a9059cbb6008600086815260200190815260200160002060010160009054906101000a900473ffffffffffffffffffffffffffffffffffffffff1660086000878152602001908152602001600020600301546040518363ffffffff1660e01b81526004016125b5929190613d76565b602060405180830381600087803b1580156125cf57600080fd5b505af11580156125e3573d6000803e3d6000fd5b505050506040513d601f19601f820116820180604052508101906126079190613880565b612646576040517f08c379a000000000000000000000000000000000000000000000000000000000815260040161263d90613f73565b60405180910390fd5b600560009054906101000a900473ffffffffffffffffffffffffffffffffffffffff1673ffffffffffffffffffffffffffffffffffffffff1663a9059cbb6008600086815260200190815260200160002060020160009054906101000a900473ffffffffffffffffffffffffffffffffffffffff1660086000878152602001908152602001600020600301546040518363ffffffff1660e01b81526004016126ef929190613d76565b602060405180830381600087803b15801561270957600080fd5b505af115801561271d573d6000803e3d6000fd5b505050506040513d601f19601f820116820180604052508101906127419190613880565b612780576040517f08c379a000000000000000000000000000000000000000000000000000000000815260040161277790613f13565b60405180910390fd5b6008600084815260200190815260200160002060000160009054906101000a900473ffffffffffffffffffffffffffffffffffffffff166008600085815260200190815260200160002060040160006101000a81548173ffffffffffffffffffffffffffffffffffffffff021916908373ffffffffffffffffffffffffffffffffffffffff160217905550612dd0565b816008600085815260200190815260200160002060040160006101000a81548173ffffffffffffffffffffffffffffffffffffffff021916908373ffffffffffffffffffffffffffffffffffffffff1602179055506000606460086002600860008881526020019081526020016000206003015461288e9190614149565b6128989190614149565b6128a29190614118565b9050600560009054906101000a900473ffffffffffffffffffffffffffffffffffffffff1673ffffffffffffffffffffffffffffffffffffffff166342966c686001836128ef91906141a3565b6040518263ffffffff1660e01b815260040161290b9190613fd3565b600060405180830381600087803b15801561292557600080fd5b505af1158015612939573d6000803e3d6000fd5b50505050600060646001600260086000898152602001908152602001600020600301546129669190614149565b6129709190614149565b61297a9190614118565b9050600160009054906101000a900473ffffffffffffffffffffffffffffffffffffffff1673ffffffffffffffffffffffffffffffffffffffff166347e7ef24600560009054906101000a900473ffffffffffffffffffffffffffffffffffffffff166001846129ea91906141a3565b6040518363ffffffff1660e01b8152600401612a07929190613d76565b602060405180830381600087803b158015612a2157600080fd5b505af1158015612a35573d6000803e3d6000fd5b505050506040513d601f19601f82011682018060405250810190612a599190613880565b612a6257600080fd5b6000606460016002600860008a815260200190815260200160002060030154612a8b9190614149565b612a959190614149565b612a9f9190614118565b9050600560009054906101000a900473ffffffffffffffffffffffffffffffffffffffff1673ffffffffffffffffffffffffffffffffffffffff1663a9059cbb600260009054906101000a900473ffffffffffffffffffffffffffffffffffffffff16600184612b0f91906141a3565b6040518363ffffffff1660e01b8152600401612b2c929190613d76565b602060405180830381600087803b158015612b4657600080fd5b505af1158015612b5a573d6000803e3d6000fd5b505050506040513d601f19601f82011682018060405250810190612b7e9190613880565b612b8757600080fd5b6000818385612b9691906140c2565b612ba091906140c2565b90506000816002600860008b815260200190815260200160002060030154612bc89190614149565b612bd291906141a3565b9050600560009054906101000a900473ffffffffffffffffffffffffffffffffffffffff1673ffffffffffffffffffffffffffffffffffffffff1663a9059cbb88836040518363ffffffff1660e01b8152600401612c31929190613d76565b602060405180830381600087803b158015612c4b57600080fd5b505af1158015612c5f573d6000803e3d6000fd5b505050506040513d601f19601f82011682018060405250810190612c839190613880565b612cc2576040517f08c379a0000000000000000000000000000000000000000000000000000000008152600401612cb990613ef3565b60405180910390fd5b600a60008873ffffffffffffffffffffffffffffffffffffffff1673ffffffffffffffffffffffffffffffffffffffff168152602001908152602001600020600101889080600181540180825580915050600190039060005260206000200160009091909190915055600a6000600860008b815260200190815260200160002060020160009054906101000a900473ffffffffffffffffffffffffffffffffffffffff1673ffffffffffffffffffffffffffffffffffffffff1673ffffffffffffffffffffffffffffffffffffffff16815260200190815260200160002060020188908060018154018082558091505060019003906000526020600020016000909190919091505550505050505b6000600760006008600087815260200190815260200160002060010160009054906101000a900473ffffffffffffffffffffffffffffffffffffffff1673ffffffffffffffffffffffffffffffffffffffff1673ffffffffffffffffffffffffffffffffffffffff168152602001908152602001600020819055506000600760006008600087815260200190815260200160002060020160009054906101000a900473ffffffffffffffffffffffffffffffffffffffff1673ffffffffffffffffffffffffffffffffffffffff1673ffffffffffffffffffffffffffffffffffffffff1681526020019081526020016000208190555060086000848152602001908152602001600020600301548273ffffffffffffffffffffffffffffffffffffffff16847f2a991d598ea2abce3d34c6b8bee9e873343e82067779769b2f3481bc30403edf60405160405180910390a46008600084815260200190815260200160002060000160009054906101000a900473ffffffffffffffffffffffffffffffffffffffff1673ffffffffffffffffffffffffffffffffffffffff166108fc67016345785d8a00009081150290604051600060405180830381858888f19350505050158015612fa5573d6000803e3d6000fd5b506001905092915050565b3373ffffffffffffffffffffffffffffffffffffffff1660008054906101000a900473ffffffffffffffffffffffffffffffffffffffff1673ffffffffffffffffffffffffffffffffffffffff1614806130535750600960003373ffffffffffffffffffffffffffffffffffffffff1673ffffffffffffffffffffffffffffffffffffffff16815260200190815260200160002060009054906101000a900460ff165b61305c57600080fd5b60008060006101000a81548173ffffffffffffffffffffffffffffffffffffffff021916908373ffffffffffffffffffffffffffffffffffffffff160217905550565b6060806000808490505b60035481101561314057600073ffffffffffffffffffffffffffffffffffffffff166008600083815260200190815260200160002060040160009054906101000a900473ffffffffffffffffffffffffffffffffffffffff1673ffffffffffffffffffffffffffffffffffffffff16141561312d57818061312990614267565b9250505b808061313890614267565b9150506130a9565b5060008167ffffffffffffffff81111561315d5761315c61433d565b5b60405190808252806020026020018201604052801561318b5781602001602082028036833780820191505090505b50905060008267ffffffffffffffff8111156131aa576131a961433d565b5b6040519080825280602002602001820160405280156131d85781602001602082028036833780820191505090505b5090506000925060008690505b6003548110156132d257600073ffffffffffffffffffffffffffffffffffffffff166008600083815260200190815260200160002060040160009054906101000a900473ffffffffffffffffffffffffffffffffffffffff1673ffffffffffffffffffffffffffffffffffffffff1614156132bf578083858151811061326e5761326d61430e565b5b60200260200101818152505060086000828152602001908152602001600020600501548285815181106132a4576132a361430e565b5b60200260200101818152505083806132bb90614267565b9450505b80806132ca90614267565b9150506131e5565b50818194509450505050915091565b6060600a60008373ffffffffffffffffffffffffffffffffffffffff1673ffffffffffffffffffffffffffffffffffffffff16815260200190815260200160002060020180548060200260200160405190810160405280929190818152602001828054801561336f57602002820191906000526020600020905b81548152602001906001019080831161335b575b50505050509050919050565b600066b1a2bc2ec500003410156133c7576040517f08c379a00000000000000000000000000000000000000000000000000000000081526004016133be90613eb3565b60405180910390fd5b6000600760003373ffffffffffffffffffffffffffffffffffffffff1673ffffffffffffffffffffffffffffffffffffffff1681526020019081526020016000205414613449576040517f08c379a000000000000000000000000000000000000000000000000000000000815260040161344090613e33565b60405180910390fd5b600560009054906101000a900473ffffffffffffffffffffffffffffffffffffffff1673ffffffffffffffffffffffffffffffffffffffff166323b872dd333060086000878152602001908152602001600020600301546040518463ffffffff1660e01b81526004016134be93929190613c9b565b602060405180830381600087803b1580156134d857600080fd5b505af11580156134ec573d6000803e3d6000fd5b505050506040513d601f19601f820116820180604052508101906135109190613880565b61354f576040517f08c379a000000000000000000000000000000000000000000000000000000000815260040161354690613e53565b60405180910390fd5b600073ffffffffffffffffffffffffffffffffffffffff166008600084815260200190815260200160002060040160009054906101000a900473ffffffffffffffffffffffffffffffffffffffff1673ffffffffffffffffffffffffffffffffffffffff16146135f4576040517f08c379a00000000000000000000000000000000000000000000000000000000081526004016135eb90613e73565b60405180910390fd5b600073ffffffffffffffffffffffffffffffffffffffff166008600084815260200190815260200160002060020160009054906101000a900473ffffffffffffffffffffffffffffffffffffffff1673ffffffffffffffffffffffffffffffffffffffff1614613699576040517f08c379a000000000000000000000000000000000000000000000000000000000815260040161369090613ed3565b60405180910390fd5b81600760003373ffffffffffffffffffffffffffffffffffffffff1673ffffffffffffffffffffffffffffffffffffffff16815260200190815260200160002081905550336008600084815260200190815260200160002060020160006101000a81548173ffffffffffffffffffffffffffffffffffffffff021916908373ffffffffffffffffffffffffffffffffffffffff160217905550600a60003373ffffffffffffffffffffffffffffffffffffffff1673ffffffffffffffffffffffffffffffffffffffff16815260200190815260200160002060000182908060018154018082558091505060019003906000526020600020016000909190919091505560086000838152602001908152602001600020600301543373ffffffffffffffffffffffffffffffffffffffff16837fd301e84700dc95781227dac9f35e8f75b83044f757c2f704d5b29480995511e560405160405180910390a460019050919050565b60008135905061380e816145d5565b92915050565b600081519050613823816145ec565b92915050565b60008135905061383881614603565b92915050565b60008151905061384d81614603565b92915050565b6000602082840312156138695761386861436c565b5b6000613877848285016137ff565b91505092915050565b6000602082840312156138965761389561436c565b5b60006138a484828501613814565b91505092915050565b6000602082840312156138c3576138c261436c565b5b60006138d184828501613829565b91505092915050565b6000602082840312156138f0576138ef61436c565b5b60006138fe8482850161383e565b91505092915050565b6000806040838503121561391e5761391d61436c565b5b600061392c85828601613829565b925050602061393d858286016137ff565b9150509250929050565b60006139538383613c01565b60208301905092915050565b613968816141d7565b82525050565b600061397982614088565b61398381856140a0565b935061398e83614078565b8060005b838110156139bf5781516139a68882613947565b97506139b183614093565b925050600181019050613992565b5085935050505092915050565b6139d5816141e9565b82525050565b6139e48161421f565b82525050565b6139f381614231565b82525050565b613a0281614243565b82525050565b613a1181614255565b82525050565b6000613a24601a836140b1565b9150613a2f82614371565b602082019050919050565b6000613a47601b836140b1565b9150613a528261439a565b602082019050919050565b6000613a6a600f836140b1565b9150613a75826143c3565b602082019050919050565b6000613a8d6013836140b1565b9150613a98826143ec565b602082019050919050565b6000613ab0600c836140b1565b9150613abb82614415565b602082019050919050565b6000613ad3602c836140b1565b9150613ade8261443e565b604082019050919050565b6000613af6600a836140b1565b9150613b018261448d565b602082019050919050565b6000613b196018836140b1565b9150613b24826144b6565b602082019050919050565b6000613b3c6013836140b1565b9150613b47826144df565b602082019050919050565b6000613b5f601e836140b1565b9150613b6a82614508565b602082019050919050565b6000613b82601f836140b1565b9150613b8d82614531565b602082019050919050565b6000613ba56013836140b1565b9150613bb08261455a565b602082019050919050565b6000613bc86010836140b1565b9150613bd382614583565b602082019050919050565b6000613beb6015836140b1565b9150613bf6826145ac565b602082019050919050565b613c0a81614215565b82525050565b613c1981614215565b82525050565b6000602082019050613c34600083018461395f565b92915050565b600060c082019050613c4f600083018961395f565b613c5c602083018861395f565b613c69604083018761395f565b613c766060830186613c10565b613c83608083018561395f565b613c9060a0830184613c10565b979650505050505050565b6000606082019050613cb0600083018661395f565b613cbd602083018561395f565b613cca6040830184613c10565b949350505050565b6000604082019050613ce7600083018561395f565b613cf460208301846139db565b9392505050565b6000604082019050613d10600083018561395f565b613d1d60208301846139ea565b9392505050565b6000604082019050613d39600083018561395f565b613d4660208301846139f9565b9392505050565b6000604082019050613d62600083018561395f565b613d6f6020830184613a08565b9392505050565b6000604082019050613d8b600083018561395f565b613d986020830184613c10565b9392505050565b60006020820190508181036000830152613db9818461396e565b905092915050565b60006040820190508181036000830152613ddb818561396e565b90508181036020830152613def818461396e565b90509392505050565b6000602082019050613e0d60008301846139cc565b92915050565b60006020820190508181036000830152613e2c81613a17565b9050919050565b60006020820190508181036000830152613e4c81613a3a565b9050919050565b60006020820190508181036000830152613e6c81613a5d565b9050919050565b60006020820190508181036000830152613e8c81613a80565b9050919050565b60006020820190508181036000830152613eac81613aa3565b9050919050565b60006020820190508181036000830152613ecc81613ac6565b9050919050565b60006020820190508181036000830152613eec81613ae9565b9050919050565b60006020820190508181036000830152613f0c81613b0c565b9050919050565b60006020820190508181036000830152613f2c81613b2f565b9050919050565b60006020820190508181036000830152613f4c81613b52565b9050919050565b60006020820190508181036000830152613f6c81613b75565b9050919050565b60006020820190508181036000830152613f8c81613b98565b9050919050565b60006020820190508181036000830152613fac81613bbb565b9050919050565b60006020820190508181036000830152613fcc81613bde565b9050919050565b6000602082019050613fe86000830184613c10565b92915050565b600060a0820190506140036000830188613c10565b6140106020830187613c10565b61401d604083018661395f565b61402a606083018561395f565b614037608083018461395f565b9695505050505050565b60006060820190506140566000830186613c10565b6140636020830185613c10565b61407060408301846139cc565b949350505050565b6000819050602082019050919050565b600081519050919050565b6000602082019050919050565b600082825260208201905092915050565b600082825260208201905092915050565b60006140cd82614215565b91506140d883614215565b9250827fffffffffffffffffffffffffffffffffffffffffffffffffffffffffffffffff0382111561410d5761410c6142b0565b5b828201905092915050565b600061412382614215565b915061412e83614215565b92508261413e5761413d6142df565b5b828204905092915050565b600061415482614215565b915061415f83614215565b9250817fffffffffffffffffffffffffffffffffffffffffffffffffffffffffffffffff0483118215151615614198576141976142b0565b5b828202905092915050565b60006141ae82614215565b91506141b983614215565b9250828210156141cc576141cb6142b0565b5b828203905092915050565b60006141e2826141f5565b9050919050565b60008115159050919050565b600073ffffffffffffffffffffffffffffffffffffffff82169050919050565b6000819050919050565b600061422a82614215565b9050919050565b600061423c82614215565b9050919050565b600061424e82614215565b9050919050565b600061426082614215565b9050919050565b600061427282614215565b91507fffffffffffffffffffffffffffffffffffffffffffffffffffffffffffffffff8214156142a5576142a46142b0565b5b600182019050919050565b7f4e487b7100000000000000000000000000000000000000000000000000000000600052601160045260246000fd5b7f4e487b7100000000000000000000000000000000000000000000000000000000600052601260045260246000fd5b7f4e487b7100000000000000000000000000000000000000000000000000000000600052603260045260246000fd5b7f4e487b7100000000000000000000000000000000000000000000000000000000600052604160045260246000fd5b600080fd5b7f426574206d75737420626520686967686572207468616e203021000000000000600082015250565b7f616c7265616479206a6f696e65656420612067616d652061746d210000000000600082015250565b7f7061796d656e74206661696c6564210000000000000000000000000000000000600082015250565b7f67616d6520776173207368757420646f776e2100000000000000000000000000600082015250565b7f62657420746f6f20626967210000000000000000000000000000000000000000600082015250565b7f706c656173652070726f76696465206120666565206f66206174206c6561737460008201527f20302e3035204d41544943210000000000000000000000000000000000000000602082015250565b7f67616d652066756c6c2100000000000000000000000000000000000000000000600082015250565b7f7472616e73666572206661696c65642c2077696e6e6572210000000000000000600082015250565b7f7472616e73666572206661696c65642c20322100000000000000000000000000600082015250565b7f506c65617365207075726368736520636f696e21202865726331313535290000600082015250565b7f706c656173652070757263686173652061206e66742e20286572633732312900600082015250565b7f7472616e73666572206661696c65642c20312100000000000000000000000000600082015250565b7f7472616e73666572206661696c65642100000000000000000000000000000000600082015250565b7f626574207472616e7366657220206661696c6564210000000000000000000000600082015250565b6145de816141d7565b81146145e957600080fd5b50565b6145f5816141e9565b811461460057600080fd5b50565b61460c81614215565b811461461757600080fd5b5056fea26469706673582212203bbd514d517af59c1f3afd6e7aa8d82d9cc317945a6b27b6a545ff3f4310c4d864736f6c63430008070033",
  "linkReferences": {},
  "deployedLinkReferences": {}
}