{
  "_format": "hh-sol-artifact-1",
  "contractName": "Battle",
  "sourceName": "contracts/Battle.sol",
  "abi": [
    {
      "inputs": [
        {
          "internalType": "address",
          "name": "_token",
          "type": "address"
        },
        {
          "internalType": "address",
          "name": "_operator",
          "type": "address"
        },
        {
          "internalType": "address",
          "name": "_staking",
          "type": "address"
        },
        {
          "internalType": "address",
          "name": "_team",
          "type": "address"
        },
        {
          "internalType": "address",
          "name": "_erc1155",
          "type": "address"
        },
        {
          "internalType": "address",
          "name": "_erc721",
          "type": "address"
        }
      ],
      "stateMutability": "nonpayable",
      "type": "constructor"
    },
    {
      "anonymous": false,
      "inputs": [
        {
          "indexed": true,
          "internalType": "uint256",
          "name": "id",
          "type": "uint256"
        },
        {
          "indexed": true,
          "internalType": "address",
          "name": "winner",
          "type": "address"
        },
        {
          "indexed": true,
          "internalType": "uint256",
          "name": "bet",
          "type": "uint256"
        }
      ],
      "name": "endedGame",
      "type": "event"
    },
    {
      "anonymous": false,
      "inputs": [
        {
          "indexed": true,
          "internalType": "uint256",
          "name": "id",
          "type": "uint256"
        },
        {
          "indexed": true,
          "internalType": "address",
          "name": "player",
          "type": "address"
        },
        {
          "indexed": true,
          "internalType": "uint256",
          "name": "bet",
          "type": "uint256"
        }
      ],
      "name": "joinedGame",
      "type": "event"
    },
    {
      "anonymous": false,
      "inputs": [
        {
          "indexed": true,
          "internalType": "uint256",
          "name": "id",
          "type": "uint256"
        },
        {
          "indexed": true,
          "internalType": "address",
          "name": "creator",
          "type": "address"
        },
        {
          "indexed": true,
          "internalType": "uint256",
          "name": "bet",
          "type": "uint256"
        }
      ],
      "name": "newGame",
      "type": "event"
    },
    {
      "inputs": [
        {
          "internalType": "uint256",
          "name": "id",
          "type": "uint256"
        },
        {
          "internalType": "address",
          "name": "winner",
          "type": "address"
        }
      ],
      "name": "Endgame",
      "outputs": [
        {
          "internalType": "bool",
          "name": "",
          "type": "bool"
        }
      ],
      "stateMutability": "nonpayable",
      "type": "function"
    },
    {
      "inputs": [
        {
          "internalType": "uint256",
          "name": "",
          "type": "uint256"
        }
      ],
      "name": "Gamelist",
      "outputs": [
        {
          "internalType": "address",
          "name": "operator",
          "type": "address"
        },
        {
          "internalType": "address",
          "name": "player1",
          "type": "address"
        },
        {
          "internalType": "address",
          "name": "player2",
          "type": "address"
        },
        {
          "internalType": "uint256",
          "name": "stakes",
          "type": "uint256"
        },
        {
          "internalType": "address",
          "name": "winner",
          "type": "address"
        },
        {
          "internalType": "uint256",
          "name": "startedAt",
          "type": "uint256"
        }
      ],
      "stateMutability": "view",
      "type": "function"
    },
    {
      "inputs": [],
      "name": "LPstaking",
      "outputs": [
        {
          "internalType": "address",
          "name": "",
          "type": "address"
        }
      ],
      "stateMutability": "view",
      "type": "function"
    },
    {
      "inputs": [
        {
          "internalType": "address",
          "name": "_add",
          "type": "address"
        }
      ],
      "name": "PlayingOn",
      "outputs": [
        {
          "internalType": "uint256",
          "name": "",
          "type": "uint256"
        }
      ],
      "stateMutability": "view",
      "type": "function"
    },
    {
      "inputs": [
        {
          "internalType": "uint256",
          "name": "_bet",
          "type": "uint256"
        }
      ],
      "name": "createGame",
      "outputs": [
        {
          "internalType": "uint256",
          "name": "id",
          "type": "uint256"
        },
        {
          "internalType": "uint256",
          "name": "bet",
          "type": "uint256"
        },
        {
          "internalType": "bool",
          "name": "started",
          "type": "bool"
        }
      ],
      "stateMutability": "payable",
      "type": "function"
    },
    {
      "inputs": [],
      "name": "getAllActive",
      "outputs": [
        {
          "internalType": "uint256[]",
          "name": "",
          "type": "uint256[]"
        },
        {
          "internalType": "uint256",
          "name": "",
          "type": "uint256"
        },
        {
          "internalType": "uint256",
          "name": "",
          "type": "uint256"
        },
        {
          "internalType": "uint256",
          "name": "",
          "type": "uint256"
        }
      ],
      "stateMutability": "view",
      "type": "function"
    },
    {
      "inputs": [
        {
          "internalType": "uint256",
          "name": "_id",
          "type": "uint256"
        }
      ],
      "name": "getGame",
      "outputs": [
        {
          "internalType": "uint256",
          "name": "",
          "type": "uint256"
        },
        {
          "internalType": "uint256",
          "name": "",
          "type": "uint256"
        },
        {
          "internalType": "address",
          "name": "",
          "type": "address"
        },
        {
          "internalType": "address",
          "name": "",
          "type": "address"
        },
        {
          "internalType": "address",
          "name": "",
          "type": "address"
        }
      ],
      "stateMutability": "view",
      "type": "function"
    },
    {
      "inputs": [
        {
          "internalType": "uint256",
          "name": "_id",
          "type": "uint256"
        }
      ],
      "name": "getState",
      "outputs": [
        {
          "internalType": "uint256",
          "name": "",
          "type": "uint256"
        }
      ],
      "stateMutability": "view",
      "type": "function"
    },
    {
      "inputs": [
        {
          "internalType": "uint256",
          "name": "_id",
          "type": "uint256"
        }
      ],
      "name": "joinGame",
      "outputs": [
        {
          "internalType": "bool",
          "name": "",
          "type": "bool"
        }
      ],
      "stateMutability": "payable",
      "type": "function"
    },
    {
      "inputs": [],
      "name": "latestGame",
      "outputs": [
        {
          "internalType": "uint256",
          "name": "",
          "type": "uint256"
        }
      ],
      "stateMutability": "view",
      "type": "function"
    },
    {
      "inputs": [],
      "name": "owner",
      "outputs": [
        {
          "internalType": "address",
          "name": "",
          "type": "address"
        }
      ],
      "stateMutability": "view",
      "type": "function"
    },
    {
      "inputs": [],
      "name": "renouceOwner",
      "outputs": [],
      "stateMutability": "nonpayable",
      "type": "function"
    },
    {
      "inputs": [
        {
          "internalType": "address",
          "name": "_add",
          "type": "address"
        }
      ],
      "name": "setOperator",
      "outputs": [],
      "stateMutability": "nonpayable",
      "type": "function"
    },
    {
      "inputs": [
        {
          "internalType": "address",
          "name": "_add",
          "type": "address"
        }
      ],
      "name": "setOwner",
      "outputs": [],
      "stateMutability": "nonpayable",
      "type": "function"
    },
    {
      "inputs": [
        {
          "internalType": "address",
          "name": "_add",
          "type": "address"
        }
      ],
      "name": "setStaking",
      "outputs": [],
      "stateMutability": "nonpayable",
      "type": "function"
    },
    {
      "inputs": [
        {
          "internalType": "address",
          "name": "_add",
          "type": "address"
        }
      ],
      "name": "setTeam",
      "outputs": [],
      "stateMutability": "nonpayable",
      "type": "function"
    },
    {
      "inputs": [
        {
          "internalType": "address",
          "name": "_add",
          "type": "address"
        }
      ],
      "name": "setToken",
      "outputs": [],
      "stateMutability": "nonpayable",
      "type": "function"
    },
    {
      "inputs": [],
      "name": "team",
      "outputs": [
        {
          "internalType": "address",
          "name": "",
          "type": "address"
        }
      ],
      "stateMutability": "view",
      "type": "function"
    },
    {
      "stateMutability": "payable",
      "type": "receive"
    }
  ],
  "bytecode": "0x6080604052600160035560006004553480156200001b57600080fd5b5060405162003a0d38038062003a0d833981810160405281019062000041919062000331565b85600660006101000a81548173ffffffffffffffffffffffffffffffffffffffff021916908373ffffffffffffffffffffffffffffffffffffffff160217905550336000806101000a81548173ffffffffffffffffffffffffffffffffffffffff021916908373ffffffffffffffffffffffffffffffffffffffff1602179055506001600960008773ffffffffffffffffffffffffffffffffffffffff1673ffffffffffffffffffffffffffffffffffffffff16815260200190815260200160002060006101000a81548160ff02191690831515021790555083600260006101000a81548173ffffffffffffffffffffffffffffffffffffffff021916908373ffffffffffffffffffffffffffffffffffffffff16021790555082600160006101000a81548173ffffffffffffffffffffffffffffffffffffffff021916908373ffffffffffffffffffffffffffffffffffffffff16021790555081600560006101000a81548173ffffffffffffffffffffffffffffffffffffffff021916908373ffffffffffffffffffffffffffffffffffffffff16021790555080600760006101000a81548173ffffffffffffffffffffffffffffffffffffffff021916908373ffffffffffffffffffffffffffffffffffffffff160217905550600660009054906101000a900473ffffffffffffffffffffffffffffffffffffffff1673ffffffffffffffffffffffffffffffffffffffff1663095ea7b3600160009054906101000a900473ffffffffffffffffffffffffffffffffffffffff1660016040518363ffffffff1660e01b8152600401620002a092919062000421565b602060405180830381600087803b158015620002bb57600080fd5b505af1158015620002d0573d6000803e3d6000fd5b505050506040513d601f19601f82011682018060405250810190620002f69190620003cd565b50505050505050620004e5565b6000815190506200031481620004b1565b92915050565b6000815190506200032b81620004cb565b92915050565b60008060008060008060c08789031215620003515762000350620004ac565b5b60006200036189828a0162000303565b96505060206200037489828a0162000303565b95505060406200038789828a0162000303565b94505060606200039a89828a0162000303565b9350506080620003ad89828a0162000303565b92505060a0620003c089828a0162000303565b9150509295509295509295565b600060208284031215620003e657620003e5620004ac565b5b6000620003f6848285016200031a565b91505092915050565b6200040a816200044e565b82525050565b6200041b8162000498565b82525050565b6000604082019050620004386000830185620003ff565b62000447602083018462000410565b9392505050565b60006200045b826200046e565b9050919050565b60008115159050919050565b600073ffffffffffffffffffffffffffffffffffffffff82169050919050565b6000819050919050565b6000620004a5826200048e565b9050919050565b600080fd5b620004bc816200044e565b8114620004c857600080fd5b50565b620004d68162000462565b8114620004e257600080fd5b50565b61351880620004f56000396000f3fe60806040526004361061010d5760003560e01c806385f2aef211610095578063b3ab15fb11610064578063b3ab15fb14610393578063b47ac121146103bc578063b9aba726146103ea578063bddda9bc1461042c578063efaa55a01461044357610114565b806385f2aef2146102d35780638da5cb5b146102fe5780638ff3909914610329578063a2f77bcc1461035257610114565b80631d22dae9116100dc5780631d22dae9146101bf578063205a192e146101fc57806344c9af281461023957806348e837b91461027657806370de828e146102a857610114565b8063095cf5c6146101195780630c0c441b1461014257806313af40351461016d578063144fa6d71461019657610114565b3661011457005b600080fd5b34801561012557600080fd5b50610140600480360381019061013b9190612800565b610473565b005b34801561014e57600080fd5b50610157610563565b6040516101649190612b86565b60405180910390f35b34801561017957600080fd5b50610194600480360381019061018f9190612800565b610589565b005b3480156101a257600080fd5b506101bd60048036038101906101b89190612800565b610678565b005b3480156101cb57600080fd5b506101e660048036038101906101e191906128b4565b610768565b6040516101f39190612d52565b60405180910390f35b34801561020857600080fd5b50610223600480360381019061021e9190612800565b61133d565b6040516102309190612eed565b60405180910390f35b34801561024557600080fd5b50610260600480360381019061025b919061285a565b611386565b60405161026d9190612eed565b60405180910390f35b610290600480360381019061028b919061285a565b6114f2565b60405161029f93929190612f5b565b60405180910390f35b3480156102b457600080fd5b506102bd611d1e565b6040516102ca9190612eed565b60405180910390f35b3480156102df57600080fd5b506102e8611d28565b6040516102f59190612b86565b60405180910390f35b34801561030a57600080fd5b50610313611d4e565b6040516103209190612b86565b60405180910390f35b34801561033557600080fd5b50610350600480360381019061034b9190612800565b611d72565b005b34801561035e57600080fd5b506103796004803603810190610374919061285a565b611e62565b60405161038a959493929190612f08565b60405180910390f35b34801561039f57600080fd5b506103ba60048036038101906103b59190612800565b611f42565b005b3480156103c857600080fd5b506103d1612095565b6040516103e19493929190612d06565b60405180910390f35b3480156103f657600080fd5b50610411600480360381019061040c919061285a565b6121e6565b60405161042396959493929190612ba1565b60405180910390f35b34801561043857600080fd5b506104416122a2565b005b61045d6004803603810190610458919061285a565b612391565b60405161046a9190612d52565b60405180910390f35b3373ffffffffffffffffffffffffffffffffffffffff1660008054906101000a900473ffffffffffffffffffffffffffffffffffffffff1673ffffffffffffffffffffffffffffffffffffffff1614806105165750600960003373ffffffffffffffffffffffffffffffffffffffff1673ffffffffffffffffffffffffffffffffffffffff16815260200190815260200160002060009054906101000a900460ff165b61051f57600080fd5b80600160006101000a81548173ffffffffffffffffffffffffffffffffffffffff021916908373ffffffffffffffffffffffffffffffffffffffff16021790555050565b600260009054906101000a900473ffffffffffffffffffffffffffffffffffffffff1681565b3373ffffffffffffffffffffffffffffffffffffffff1660008054906101000a900473ffffffffffffffffffffffffffffffffffffffff1673ffffffffffffffffffffffffffffffffffffffff16148061062c5750600960003373ffffffffffffffffffffffffffffffffffffffff1673ffffffffffffffffffffffffffffffffffffffff16815260200190815260200160002060009054906101000a900460ff165b61063557600080fd5b806000806101000a81548173ffffffffffffffffffffffffffffffffffffffff021916908373ffffffffffffffffffffffffffffffffffffffff16021790555050565b3373ffffffffffffffffffffffffffffffffffffffff1660008054906101000a900473ffffffffffffffffffffffffffffffffffffffff1673ffffffffffffffffffffffffffffffffffffffff16148061071b5750600960003373ffffffffffffffffffffffffffffffffffffffff1673ffffffffffffffffffffffffffffffffffffffff16815260200190815260200160002060009054906101000a900460ff165b61072457600080fd5b80600660006101000a81548173ffffffffffffffffffffffffffffffffffffffff021916908373ffffffffffffffffffffffffffffffffffffffff16021790555050565b60003373ffffffffffffffffffffffffffffffffffffffff1660008054906101000a900473ffffffffffffffffffffffffffffffffffffffff1673ffffffffffffffffffffffffffffffffffffffff16148061080d5750600960003373ffffffffffffffffffffffffffffffffffffffff1673ffffffffffffffffffffffffffffffffffffffff16815260200190815260200160002060009054906101000a900460ff165b61081657600080fd5b600073ffffffffffffffffffffffffffffffffffffffff16600a600085815260200190815260200160002060040160009054906101000a900473ffffffffffffffffffffffffffffffffffffffff1673ffffffffffffffffffffffffffffffffffffffff161461088557600080fd5b600073ffffffffffffffffffffffffffffffffffffffff16600a600085815260200190815260200160002060020160009054906101000a900473ffffffffffffffffffffffffffffffffffffffff1673ffffffffffffffffffffffffffffffffffffffff1614156108f557600080fd5b600a600084815260200190815260200160002060000160009054906101000a900473ffffffffffffffffffffffffffffffffffffffff1673ffffffffffffffffffffffffffffffffffffffff163373ffffffffffffffffffffffffffffffffffffffff161461096357600080fd5b600a600084815260200190815260200160002060000160009054906101000a900473ffffffffffffffffffffffffffffffffffffffff1673ffffffffffffffffffffffffffffffffffffffff166108fc67016345785d8a00009081150290604051600060405180830381858888f193505050501580156109e7573d6000803e3d6000fd5b50600073ffffffffffffffffffffffffffffffffffffffff168273ffffffffffffffffffffffffffffffffffffffff161415610d2157600660009054906101000a900473ffffffffffffffffffffffffffffffffffffffff1673ffffffffffffffffffffffffffffffffffffffff1663a9059cbb600a600086815260200190815260200160002060010160009054906101000a900473ffffffffffffffffffffffffffffffffffffffff16600a6000878152602001908152602001600020600301546040518363ffffffff1660e01b8152600401610ac6929190612cdd565b602060405180830381600087803b158015610ae057600080fd5b505af1158015610af4573d6000803e3d6000fd5b505050506040513d601f19601f82011682018060405250810190610b18919061282d565b610b57576040517f08c379a0000000000000000000000000000000000000000000000000000000008152600401610b4e90612ecd565b60405180910390fd5b600660009054906101000a900473ffffffffffffffffffffffffffffffffffffffff1673ffffffffffffffffffffffffffffffffffffffff1663a9059cbb600a600086815260200190815260200160002060020160009054906101000a900473ffffffffffffffffffffffffffffffffffffffff16600a6000878152602001908152602001600020600301546040518363ffffffff1660e01b8152600401610c00929190612cdd565b602060405180830381600087803b158015610c1a57600080fd5b505af1158015610c2e573d6000803e3d6000fd5b505050506040513d601f19601f82011682018060405250810190610c52919061282d565b610c91576040517f08c379a0000000000000000000000000000000000000000000000000000000008152600401610c8890612e6d565b60405180910390fd5b600a600084815260200190815260200160002060000160009054906101000a900473ffffffffffffffffffffffffffffffffffffffff16600a600085815260200190815260200160002060040160006101000a81548173ffffffffffffffffffffffffffffffffffffffff021916908373ffffffffffffffffffffffffffffffffffffffff1602179055506111d9565b81600a600085815260200190815260200160002060040160006101000a81548173ffffffffffffffffffffffffffffffffffffffff021916908373ffffffffffffffffffffffffffffffffffffffff1602179055506000606460086002600a600088815260200190815260200160002060030154610d9f9190613063565b610da99190613063565b610db39190613032565b9050600660009054906101000a900473ffffffffffffffffffffffffffffffffffffffff1673ffffffffffffffffffffffffffffffffffffffff166342966c68600183610e0091906130bd565b6040518263ffffffff1660e01b8152600401610e1c9190612eed565b600060405180830381600087803b158015610e3657600080fd5b505af1158015610e4a573d6000803e3d6000fd5b505050506000606460016002600a600089815260200190815260200160002060030154610e779190613063565b610e819190613063565b610e8b9190613032565b9050600160009054906101000a900473ffffffffffffffffffffffffffffffffffffffff1673ffffffffffffffffffffffffffffffffffffffff166347e7ef24600660009054906101000a900473ffffffffffffffffffffffffffffffffffffffff16600184610efb91906130bd565b6040518363ffffffff1660e01b8152600401610f18929190612cdd565b602060405180830381600087803b158015610f3257600080fd5b505af1158015610f46573d6000803e3d6000fd5b505050506040513d601f19601f82011682018060405250810190610f6a919061282d565b610f7357600080fd5b6000606460016002600a60008a815260200190815260200160002060030154610f9c9190613063565b610fa69190613063565b610fb09190613032565b9050600660009054906101000a900473ffffffffffffffffffffffffffffffffffffffff1673ffffffffffffffffffffffffffffffffffffffff1663a9059cbb600260009054906101000a900473ffffffffffffffffffffffffffffffffffffffff1660018461102091906130bd565b6040518363ffffffff1660e01b815260040161103d929190612cdd565b602060405180830381600087803b15801561105757600080fd5b505af115801561106b573d6000803e3d6000fd5b505050506040513d601f19601f8201168201806040525081019061108f919061282d565b61109857600080fd5b60008183856110a79190612fdc565b6110b19190612fdc565b90506000816002600a60008b8152602001908152602001600020600301546110d99190613063565b6110e391906130bd565b9050600660009054906101000a900473ffffffffffffffffffffffffffffffffffffffff1673ffffffffffffffffffffffffffffffffffffffff1663a9059cbb88836040518363ffffffff1660e01b8152600401611142929190612cdd565b602060405180830381600087803b15801561115c57600080fd5b505af1158015611170573d6000803e3d6000fd5b505050506040513d601f19601f82011682018060405250810190611194919061282d565b6111d3576040517f08c379a00000000000000000000000000000000000000000000000000000000081526004016111ca90612e4d565b60405180910390fd5b50505050505b600060086000600a600087815260200190815260200160002060010160009054906101000a900473ffffffffffffffffffffffffffffffffffffffff1673ffffffffffffffffffffffffffffffffffffffff1673ffffffffffffffffffffffffffffffffffffffff16815260200190815260200160002081905550600060086000600a600087815260200190815260200160002060020160009054906101000a900473ffffffffffffffffffffffffffffffffffffffff1673ffffffffffffffffffffffffffffffffffffffff1673ffffffffffffffffffffffffffffffffffffffff16815260200190815260200160002081905550600354600481905550600a6000848152602001908152602001600020600301548273ffffffffffffffffffffffffffffffffffffffff16847f2a991d598ea2abce3d34c6b8bee9e873343e82067779769b2f3481bc30403edf60405160405180910390a46001905092915050565b6000600860008373ffffffffffffffffffffffffffffffffffffffff1673ffffffffffffffffffffffffffffffffffffffff168152602001908152602001600020549050919050565b60008060009050600073ffffffffffffffffffffffffffffffffffffffff16600a600085815260200190815260200160002060040160009054906101000a900473ffffffffffffffffffffffffffffffffffffffff1673ffffffffffffffffffffffffffffffffffffffff161461140057600390506114e9565b600073ffffffffffffffffffffffffffffffffffffffff16600a600085815260200190815260200160002060010160009054906101000a900473ffffffffffffffffffffffffffffffffffffffff1673ffffffffffffffffffffffffffffffffffffffff16141580156114d55750600073ffffffffffffffffffffffffffffffffffffffff16600a600085815260200190815260200160002060020160009054906101000a900473ffffffffffffffffffffffffffffffffffffffff1673ffffffffffffffffffffffffffffffffffffffff16145b156114e357600190506114e8565b600290505b5b80915050919050565b600080600080600860003373ffffffffffffffffffffffffffffffffffffffff1673ffffffffffffffffffffffffffffffffffffffff1681526020019081526020016000205414611578576040517f08c379a000000000000000000000000000000000000000000000000000000000815260040161156f90612d8d565b60405180910390fd5b66b1a2bc2ec500003410156115c2576040517f08c379a00000000000000000000000000000000000000000000000000000000081526004016115b990612e0d565b60405180910390fd5b60008411611605576040517f08c379a00000000000000000000000000000000000000000000000000000000081526004016115fc90612d6d565b60405180910390fd5b69021e19e0c9bab2400000821115611652576040517f08c379a000000000000000000000000000000000000000000000000000000000815260040161164990612ded565b60405180910390fd5b6064821015801561166457506103e882105b15611986576000600560009054906101000a900473ffffffffffffffffffffffffffffffffffffffff1673ffffffffffffffffffffffffffffffffffffffff1662fdd58e3360016040518363ffffffff1660e01b81526004016116c8929190612c39565b602060405180830381600087803b1580156116e257600080fd5b505af11580156116f6573d6000803e3d6000fd5b505050506040513d601f19601f8201168201806040525081019061171a9190612887565b11806117d457506000600560009054906101000a900473ffffffffffffffffffffffffffffffffffffffff1673ffffffffffffffffffffffffffffffffffffffff1662fdd58e3360026040518363ffffffff1660e01b8152600401611780929190612c62565b602060405180830381600087803b15801561179a57600080fd5b505af11580156117ae573d6000803e3d6000fd5b505050506040513d601f19601f820116820180604052508101906117d29190612887565b115b8061188d57506000600560009054906101000a900473ffffffffffffffffffffffffffffffffffffffff1673ffffffffffffffffffffffffffffffffffffffff1662fdd58e3360036040518363ffffffff1660e01b8152600401611839929190612c8b565b602060405180830381600087803b15801561185357600080fd5b505af1158015611867573d6000803e3d6000fd5b505050506040513d601f19601f8201168201806040525081019061188b9190612887565b115b8061194657506000600560009054906101000a900473ffffffffffffffffffffffffffffffffffffffff1673ffffffffffffffffffffffffffffffffffffffff1662fdd58e3360046040518363ffffffff1660e01b81526004016118f2929190612cb4565b602060405180830381600087803b15801561190c57600080fd5b505af1158015611920573d6000803e3d6000fd5b505050506040513d601f19601f820116820180604052508101906119449190612887565b115b611985576040517f08c379a000000000000000000000000000000000000000000000000000000000815260040161197c90612e8d565b60405180910390fd5b5b683635c9adc5dea000008210611a84576000600760009054906101000a900473ffffffffffffffffffffffffffffffffffffffff1673ffffffffffffffffffffffffffffffffffffffff166370a08231336040518263ffffffff1660e01b81526004016119f39190612b86565b60206040518083038186803b158015611a0b57600080fd5b505afa158015611a1f573d6000803e3d6000fd5b505050506040513d601f19601f82011682018060405250810190611a439190612887565b11611a83576040517f08c379a0000000000000000000000000000000000000000000000000000000008152600401611a7a90612ead565b60405180910390fd5b5b600354600860003373ffffffffffffffffffffffffffffffffffffffff1673ffffffffffffffffffffffffffffffffffffffff1681526020019081526020016000208190555060006040518060c001604052803373ffffffffffffffffffffffffffffffffffffffff168152602001600073ffffffffffffffffffffffffffffffffffffffff168152602001600073ffffffffffffffffffffffffffffffffffffffff168152602001868152602001600073ffffffffffffffffffffffffffffffffffffffff16815260200142815250905080600a6000600354815260200190815260200160002060008201518160000160006101000a81548173ffffffffffffffffffffffffffffffffffffffff021916908373ffffffffffffffffffffffffffffffffffffffff16021790555060208201518160010160006101000a81548173ffffffffffffffffffffffffffffffffffffffff021916908373ffffffffffffffffffffffffffffffffffffffff16021790555060408201518160020160006101000a81548173ffffffffffffffffffffffffffffffffffffffff021916908373ffffffffffffffffffffffffffffffffffffffff1602179055506060820151816003015560808201518160040160006101000a81548173ffffffffffffffffffffffffffffffffffffffff021916908373ffffffffffffffffffffffffffffffffffffffff16021790555060a0820151816005015590505060036000815480929190611cb290613181565b9190505550843373ffffffffffffffffffffffffffffffffffffffff166001600354611cde91906130bd565b7f6b8b1103b014d316d2e1ce2360505f35ad5291576b96e2ece01628c739910d3f60405160405180910390a4600354856000935093509350509193909250565b6000600354905090565b600160009054906101000a900473ffffffffffffffffffffffffffffffffffffffff1681565b60008054906101000a900473ffffffffffffffffffffffffffffffffffffffff1681565b3373ffffffffffffffffffffffffffffffffffffffff1660008054906101000a900473ffffffffffffffffffffffffffffffffffffffff1673ffffffffffffffffffffffffffffffffffffffff161480611e155750600960003373ffffffffffffffffffffffffffffffffffffffff1673ffffffffffffffffffffffffffffffffffffffff16815260200190815260200160002060009054906101000a900460ff165b611e1e57600080fd5b80600260006101000a81548173ffffffffffffffffffffffffffffffffffffffff021916908373ffffffffffffffffffffffffffffffffffffffff16021790555050565b6000806000806000611e7386611386565b600a600088815260200190815260200160002060030154600a600089815260200190815260200160002060010160009054906101000a900473ffffffffffffffffffffffffffffffffffffffff16600a60008a815260200190815260200160002060020160009054906101000a900473ffffffffffffffffffffffffffffffffffffffff16600a60008b815260200190815260200160002060040160009054906101000a900473ffffffffffffffffffffffffffffffffffffffff169450945094509450945091939590929450565b3373ffffffffffffffffffffffffffffffffffffffff1660008054906101000a900473ffffffffffffffffffffffffffffffffffffffff1673ffffffffffffffffffffffffffffffffffffffff161480611fe55750600960003373ffffffffffffffffffffffffffffffffffffffff1673ffffffffffffffffffffffffffffffffffffffff16815260200190815260200160002060009054906101000a900460ff165b611fee57600080fd5b600960008273ffffffffffffffffffffffffffffffffffffffff1673ffffffffffffffffffffffffffffffffffffffff16815260200190815260200160002060009054906101000a900460ff1615600960008373ffffffffffffffffffffffffffffffffffffffff1673ffffffffffffffffffffffffffffffffffffffff16815260200190815260200160002060006101000a81548160ff02191690831515021790555050565b606060008060008060016004546003546120af91906130bd565b6120b991906130bd565b67ffffffffffffffff8111156120d2576120d1613257565b5b6040519080825280602002602001820160405280156121005781602001602082028036833780820191505090505b50905060008060016004546121159190612fdc565b90505b600354811015612163578083838151811061213657612135613228565b5b602002602001018181525050818061214d90613181565b925050808061215b90613181565b915050612118565b5081600a60008460008151811061217d5761217c613228565b5b6020026020010151815260200190815260200160002060050154600a600085600187516121aa91906130bd565b815181106121bb576121ba613228565b5b6020026020010151815260200190815260200160002060050154429550955095509550505090919293565b600a6020528060005260406000206000915090508060000160009054906101000a900473ffffffffffffffffffffffffffffffffffffffff16908060010160009054906101000a900473ffffffffffffffffffffffffffffffffffffffff16908060020160009054906101000a900473ffffffffffffffffffffffffffffffffffffffff16908060030154908060040160009054906101000a900473ffffffffffffffffffffffffffffffffffffffff16908060050154905086565b3373ffffffffffffffffffffffffffffffffffffffff1660008054906101000a900473ffffffffffffffffffffffffffffffffffffffff1673ffffffffffffffffffffffffffffffffffffffff1614806123455750600960003373ffffffffffffffffffffffffffffffffffffffff1673ffffffffffffffffffffffffffffffffffffffff16815260200190815260200160002060009054906101000a900460ff165b61234e57600080fd5b60008060006101000a81548173ffffffffffffffffffffffffffffffffffffffff021916908373ffffffffffffffffffffffffffffffffffffffff160217905550565b600066b1a2bc2ec500003410156123dd576040517f08c379a00000000000000000000000000000000000000000000000000000000081526004016123d490612e0d565b60405180910390fd5b6000600860003373ffffffffffffffffffffffffffffffffffffffff1673ffffffffffffffffffffffffffffffffffffffff168152602001908152602001600020541461245f576040517f08c379a000000000000000000000000000000000000000000000000000000000815260040161245690612d8d565b60405180910390fd5b600660009054906101000a900473ffffffffffffffffffffffffffffffffffffffff1673ffffffffffffffffffffffffffffffffffffffff166323b872dd3330600a6000878152602001908152602001600020600301546040518463ffffffff1660e01b81526004016124d493929190612c02565b602060405180830381600087803b1580156124ee57600080fd5b505af1158015612502573d6000803e3d6000fd5b505050506040513d601f19601f82011682018060405250810190612526919061282d565b612565576040517f08c379a000000000000000000000000000000000000000000000000000000000815260040161255c90612dad565b60405180910390fd5b600073ffffffffffffffffffffffffffffffffffffffff16600a600084815260200190815260200160002060040160009054906101000a900473ffffffffffffffffffffffffffffffffffffffff1673ffffffffffffffffffffffffffffffffffffffff161461260a576040517f08c379a000000000000000000000000000000000000000000000000000000000815260040161260190612dcd565b60405180910390fd5b600073ffffffffffffffffffffffffffffffffffffffff16600a600084815260200190815260200160002060020160009054906101000a900473ffffffffffffffffffffffffffffffffffffffff1673ffffffffffffffffffffffffffffffffffffffff16146126af576040517f08c379a00000000000000000000000000000000000000000000000000000000081526004016126a690612e2d565b60405180910390fd5b81600860003373ffffffffffffffffffffffffffffffffffffffff1673ffffffffffffffffffffffffffffffffffffffff1681526020019081526020016000208190555033600a600084815260200190815260200160002060020160006101000a81548173ffffffffffffffffffffffffffffffffffffffff021916908373ffffffffffffffffffffffffffffffffffffffff160217905550600a6000838152602001908152602001600020600301543373ffffffffffffffffffffffffffffffffffffffff16837fd301e84700dc95781227dac9f35e8f75b83044f757c2f704d5b29480995511e560405160405180910390a460019050919050565b6000813590506127bb8161349d565b92915050565b6000815190506127d0816134b4565b92915050565b6000813590506127e5816134cb565b92915050565b6000815190506127fa816134cb565b92915050565b60006020828403121561281657612815613286565b5b6000612824848285016127ac565b91505092915050565b60006020828403121561284357612842613286565b5b6000612851848285016127c1565b91505092915050565b6000602082840312156128705761286f613286565b5b600061287e848285016127d6565b91505092915050565b60006020828403121561289d5761289c613286565b5b60006128ab848285016127eb565b91505092915050565b600080604083850312156128cb576128ca613286565b5b60006128d9858286016127d6565b92505060206128ea858286016127ac565b9150509250929050565b60006129008383612b68565b60208301905092915050565b612915816130f1565b82525050565b600061292682612fa2565b6129308185612fba565b935061293b83612f92565b8060005b8381101561296c57815161295388826128f4565b975061295e83612fad565b92505060018101905061293f565b5085935050505092915050565b61298281613103565b82525050565b61299181613139565b82525050565b6129a08161314b565b82525050565b6129af8161315d565b82525050565b6129be8161316f565b82525050565b60006129d1601a83612fcb565b91506129dc8261328b565b602082019050919050565b60006129f4601b83612fcb565b91506129ff826132b4565b602082019050919050565b6000612a17600f83612fcb565b9150612a22826132dd565b602082019050919050565b6000612a3a601383612fcb565b9150612a4582613306565b602082019050919050565b6000612a5d600c83612fcb565b9150612a688261332f565b602082019050919050565b6000612a80602c83612fcb565b9150612a8b82613358565b604082019050919050565b6000612aa3600a83612fcb565b9150612aae826133a7565b602082019050919050565b6000612ac6601883612fcb565b9150612ad1826133d0565b602082019050919050565b6000612ae9601383612fcb565b9150612af4826133f9565b602082019050919050565b6000612b0c601e83612fcb565b9150612b1782613422565b602082019050919050565b6000612b2f601f83612fcb565b9150612b3a8261344b565b602082019050919050565b6000612b52601383612fcb565b9150612b5d82613474565b602082019050919050565b612b718161312f565b82525050565b612b808161312f565b82525050565b6000602082019050612b9b600083018461290c565b92915050565b600060c082019050612bb6600083018961290c565b612bc3602083018861290c565b612bd0604083018761290c565b612bdd6060830186612b77565b612bea608083018561290c565b612bf760a0830184612b77565b979650505050505050565b6000606082019050612c17600083018661290c565b612c24602083018561290c565b612c316040830184612b77565b949350505050565b6000604082019050612c4e600083018561290c565b612c5b6020830184612988565b9392505050565b6000604082019050612c77600083018561290c565b612c846020830184612997565b9392505050565b6000604082019050612ca0600083018561290c565b612cad60208301846129a6565b9392505050565b6000604082019050612cc9600083018561290c565b612cd660208301846129b5565b9392505050565b6000604082019050612cf2600083018561290c565b612cff6020830184612b77565b9392505050565b60006080820190508181036000830152612d20818761291b565b9050612d2f6020830186612b77565b612d3c6040830185612b77565b612d496060830184612b77565b95945050505050565b6000602082019050612d676000830184612979565b92915050565b60006020820190508181036000830152612d86816129c4565b9050919050565b60006020820190508181036000830152612da6816129e7565b9050919050565b60006020820190508181036000830152612dc681612a0a565b9050919050565b60006020820190508181036000830152612de681612a2d565b9050919050565b60006020820190508181036000830152612e0681612a50565b9050919050565b60006020820190508181036000830152612e2681612a73565b9050919050565b60006020820190508181036000830152612e4681612a96565b9050919050565b60006020820190508181036000830152612e6681612ab9565b9050919050565b60006020820190508181036000830152612e8681612adc565b9050919050565b60006020820190508181036000830152612ea681612aff565b9050919050565b60006020820190508181036000830152612ec681612b22565b9050919050565b60006020820190508181036000830152612ee681612b45565b9050919050565b6000602082019050612f026000830184612b77565b92915050565b600060a082019050612f1d6000830188612b77565b612f2a6020830187612b77565b612f37604083018661290c565b612f44606083018561290c565b612f51608083018461290c565b9695505050505050565b6000606082019050612f706000830186612b77565b612f7d6020830185612b77565b612f8a6040830184612979565b949350505050565b6000819050602082019050919050565b600081519050919050565b6000602082019050919050565b600082825260208201905092915050565b600082825260208201905092915050565b6000612fe78261312f565b9150612ff28361312f565b9250827fffffffffffffffffffffffffffffffffffffffffffffffffffffffffffffffff03821115613027576130266131ca565b5b828201905092915050565b600061303d8261312f565b91506130488361312f565b925082613058576130576131f9565b5b828204905092915050565b600061306e8261312f565b91506130798361312f565b9250817fffffffffffffffffffffffffffffffffffffffffffffffffffffffffffffffff04831182151516156130b2576130b16131ca565b5b828202905092915050565b60006130c88261312f565b91506130d38361312f565b9250828210156130e6576130e56131ca565b5b828203905092915050565b60006130fc8261310f565b9050919050565b60008115159050919050565b600073ffffffffffffffffffffffffffffffffffffffff82169050919050565b6000819050919050565b60006131448261312f565b9050919050565b60006131568261312f565b9050919050565b60006131688261312f565b9050919050565b600061317a8261312f565b9050919050565b600061318c8261312f565b91507fffffffffffffffffffffffffffffffffffffffffffffffffffffffffffffffff8214156131bf576131be6131ca565b5b600182019050919050565b7f4e487b7100000000000000000000000000000000000000000000000000000000600052601160045260246000fd5b7f4e487b7100000000000000000000000000000000000000000000000000000000600052601260045260246000fd5b7f4e487b7100000000000000000000000000000000000000000000000000000000600052603260045260246000fd5b7f4e487b7100000000000000000000000000000000000000000000000000000000600052604160045260246000fd5b600080fd5b7f426574206d75737420626520686967686572207468616e203021000000000000600082015250565b7f616c7265616479206a6f696e65656420612067616d652061746d210000000000600082015250565b7f7061796d656e74206661696c6564210000000000000000000000000000000000600082015250565b7f67616d6520776173207368757420646f776e2100000000000000000000000000600082015250565b7f62657420746f6f20626967210000000000000000000000000000000000000000600082015250565b7f706c656173652070726f76696465206120666565206f66206174206c6561737460008201527f20302e3035204d41544943210000000000000000000000000000000000000000602082015250565b7f67616d652066756c6c2100000000000000000000000000000000000000000000600082015250565b7f7472616e73666572206661696c65642c2077696e6e6572210000000000000000600082015250565b7f7472616e73666572206661696c65642c20322100000000000000000000000000600082015250565b7f506c65617365207075726368736520636f696e21202865726331313535290000600082015250565b7f706c656173652070757263686173652061206e66742e20286572633732312900600082015250565b7f7472616e73666572206661696c65642c20312100000000000000000000000000600082015250565b6134a6816130f1565b81146134b157600080fd5b50565b6134bd81613103565b81146134c857600080fd5b50565b6134d48161312f565b81146134df57600080fd5b5056fea2646970667358221220ac8e6de5940e977080d98efb1db1470d883be7f1a1884a5425050f04d5fad6cf64736f6c63430008070033",
  "linkReferences": {},
  "deployedLinkReferences": {}
}