{
  "_format": "hh-sol-artifact-1",
  "contractName": "Battle",
  "sourceName": "contracts/Battle.sol",
  "abi": [
    {
      "inputs": [
        {
          "internalType": "address",
          "name": "_token",
          "type": "address"
        },
        {
          "internalType": "address",
          "name": "_operator",
          "type": "address"
        },
        {
          "internalType": "address",
          "name": "_staking",
          "type": "address"
        },
        {
          "internalType": "address",
          "name": "_team",
          "type": "address"
        },
        {
          "internalType": "address",
          "name": "_erc1155",
          "type": "address"
        },
        {
          "internalType": "address",
          "name": "_erc721",
          "type": "address"
        }
      ],
      "stateMutability": "nonpayable",
      "type": "constructor"
    },
    {
      "anonymous": false,
      "inputs": [
        {
          "indexed": true,
          "internalType": "uint256",
          "name": "id",
          "type": "uint256"
        },
        {
          "indexed": true,
          "internalType": "address",
          "name": "winner",
          "type": "address"
        },
        {
          "indexed": true,
          "internalType": "uint256",
          "name": "bet",
          "type": "uint256"
        }
      ],
      "name": "endedGame",
      "type": "event"
    },
    {
      "anonymous": false,
      "inputs": [
        {
          "indexed": true,
          "internalType": "uint256",
          "name": "id",
          "type": "uint256"
        },
        {
          "indexed": true,
          "internalType": "address",
          "name": "player",
          "type": "address"
        },
        {
          "indexed": true,
          "internalType": "uint256",
          "name": "bet",
          "type": "uint256"
        }
      ],
      "name": "joinedGame",
      "type": "event"
    },
    {
      "anonymous": false,
      "inputs": [
        {
          "indexed": true,
          "internalType": "uint256",
          "name": "id",
          "type": "uint256"
        },
        {
          "indexed": true,
          "internalType": "address",
          "name": "creator",
          "type": "address"
        },
        {
          "indexed": true,
          "internalType": "uint256",
          "name": "bet",
          "type": "uint256"
        }
      ],
      "name": "newGame",
      "type": "event"
    },
    {
      "inputs": [
        {
          "internalType": "uint256",
          "name": "",
          "type": "uint256"
        }
      ],
      "name": "Gamelist",
      "outputs": [
        {
          "internalType": "address",
          "name": "operator",
          "type": "address"
        },
        {
          "internalType": "address",
          "name": "player1",
          "type": "address"
        },
        {
          "internalType": "address",
          "name": "player2",
          "type": "address"
        },
        {
          "internalType": "uint256",
          "name": "stakes",
          "type": "uint256"
        },
        {
          "internalType": "address",
          "name": "winner",
          "type": "address"
        },
        {
          "internalType": "uint256",
          "name": "startedAt",
          "type": "uint256"
        }
      ],
      "stateMutability": "view",
      "type": "function"
    },
    {
      "inputs": [],
      "name": "LPstaking",
      "outputs": [
        {
          "internalType": "address",
          "name": "",
          "type": "address"
        }
      ],
      "stateMutability": "view",
      "type": "function"
    },
    {
      "inputs": [
        {
          "internalType": "uint256",
          "name": "_id",
          "type": "uint256"
        }
      ],
      "name": "cancel",
      "outputs": [
        {
          "internalType": "bool",
          "name": "",
          "type": "bool"
        }
      ],
      "stateMutability": "nonpayable",
      "type": "function"
    },
    {
      "inputs": [
        {
          "internalType": "uint256",
          "name": "_bet",
          "type": "uint256"
        }
      ],
      "name": "createGame",
      "outputs": [
        {
          "internalType": "uint256",
          "name": "id",
          "type": "uint256"
        },
        {
          "internalType": "uint256",
          "name": "bet",
          "type": "uint256"
        },
        {
          "internalType": "bool",
          "name": "started",
          "type": "bool"
        }
      ],
      "stateMutability": "payable",
      "type": "function"
    },
    {
      "inputs": [
        {
          "internalType": "uint256",
          "name": "id",
          "type": "uint256"
        },
        {
          "internalType": "address",
          "name": "winner",
          "type": "address"
        }
      ],
      "name": "endgame",
      "outputs": [
        {
          "internalType": "bool",
          "name": "",
          "type": "bool"
        }
      ],
      "stateMutability": "nonpayable",
      "type": "function"
    },
    {
      "inputs": [
        {
          "internalType": "uint256",
          "name": "_start",
          "type": "uint256"
        }
      ],
      "name": "getAllActive",
      "outputs": [
        {
          "internalType": "uint256[]",
          "name": "",
          "type": "uint256[]"
        },
        {
          "internalType": "uint256[]",
          "name": "",
          "type": "uint256[]"
        }
      ],
      "stateMutability": "view",
      "type": "function"
    },
    {
      "inputs": [
        {
          "internalType": "uint256",
          "name": "_id",
          "type": "uint256"
        }
      ],
      "name": "getGame",
      "outputs": [
        {
          "internalType": "uint256",
          "name": "",
          "type": "uint256"
        },
        {
          "internalType": "uint256",
          "name": "",
          "type": "uint256"
        },
        {
          "internalType": "address",
          "name": "",
          "type": "address"
        },
        {
          "internalType": "address",
          "name": "",
          "type": "address"
        },
        {
          "internalType": "address",
          "name": "",
          "type": "address"
        }
      ],
      "stateMutability": "view",
      "type": "function"
    },
    {
      "inputs": [
        {
          "internalType": "uint256",
          "name": "_id",
          "type": "uint256"
        }
      ],
      "name": "getState",
      "outputs": [
        {
          "internalType": "uint256",
          "name": "",
          "type": "uint256"
        }
      ],
      "stateMutability": "view",
      "type": "function"
    },
    {
      "inputs": [
        {
          "internalType": "uint256",
          "name": "_id",
          "type": "uint256"
        }
      ],
      "name": "joinGame",
      "outputs": [
        {
          "internalType": "bool",
          "name": "",
          "type": "bool"
        }
      ],
      "stateMutability": "payable",
      "type": "function"
    },
    {
      "inputs": [],
      "name": "latestGame",
      "outputs": [
        {
          "internalType": "uint256",
          "name": "",
          "type": "uint256"
        }
      ],
      "stateMutability": "view",
      "type": "function"
    },
    {
      "inputs": [],
      "name": "owner",
      "outputs": [
        {
          "internalType": "address",
          "name": "",
          "type": "address"
        }
      ],
      "stateMutability": "view",
      "type": "function"
    },
    {
      "inputs": [
        {
          "internalType": "address",
          "name": "_add",
          "type": "address"
        }
      ],
      "name": "playingOn",
      "outputs": [
        {
          "internalType": "uint256",
          "name": "",
          "type": "uint256"
        }
      ],
      "stateMutability": "view",
      "type": "function"
    },
    {
      "inputs": [],
      "name": "renouceOwner",
      "outputs": [],
      "stateMutability": "nonpayable",
      "type": "function"
    },
    {
      "inputs": [
        {
          "internalType": "address",
          "name": "_add",
          "type": "address"
        }
      ],
      "name": "setOperator",
      "outputs": [],
      "stateMutability": "nonpayable",
      "type": "function"
    },
    {
      "inputs": [
        {
          "internalType": "address",
          "name": "_add",
          "type": "address"
        }
      ],
      "name": "setOwner",
      "outputs": [],
      "stateMutability": "nonpayable",
      "type": "function"
    },
    {
      "inputs": [
        {
          "internalType": "address",
          "name": "_add",
          "type": "address"
        }
      ],
      "name": "setStaking",
      "outputs": [],
      "stateMutability": "nonpayable",
      "type": "function"
    },
    {
      "inputs": [
        {
          "internalType": "address",
          "name": "_add",
          "type": "address"
        }
      ],
      "name": "setTeam",
      "outputs": [],
      "stateMutability": "nonpayable",
      "type": "function"
    },
    {
      "inputs": [
        {
          "internalType": "address",
          "name": "_add",
          "type": "address"
        }
      ],
      "name": "setToken",
      "outputs": [],
      "stateMutability": "nonpayable",
      "type": "function"
    },
    {
      "inputs": [],
      "name": "team",
      "outputs": [
        {
          "internalType": "address",
          "name": "",
          "type": "address"
        }
      ],
      "stateMutability": "view",
      "type": "function"
    },
    {
      "stateMutability": "payable",
      "type": "receive"
    }
  ],
  "bytecode": "0x608060405260016003553480156200001657600080fd5b5060405162003fbf38038062003fbf83398181016040528101906200003c91906200034b565b85600560006101000a81548173ffffffffffffffffffffffffffffffffffffffff021916908373ffffffffffffffffffffffffffffffffffffffff160217905550336000806101000a81548173ffffffffffffffffffffffffffffffffffffffff021916908373ffffffffffffffffffffffffffffffffffffffff1602179055506001600860008773ffffffffffffffffffffffffffffffffffffffff1673ffffffffffffffffffffffffffffffffffffffff16815260200190815260200160002060006101000a81548160ff02191690831515021790555083600260006101000a81548173ffffffffffffffffffffffffffffffffffffffff021916908373ffffffffffffffffffffffffffffffffffffffff16021790555082600160006101000a81548173ffffffffffffffffffffffffffffffffffffffff021916908373ffffffffffffffffffffffffffffffffffffffff16021790555081600460006101000a81548173ffffffffffffffffffffffffffffffffffffffff021916908373ffffffffffffffffffffffffffffffffffffffff16021790555080600660006101000a81548173ffffffffffffffffffffffffffffffffffffffff021916908373ffffffffffffffffffffffffffffffffffffffff160217905550600560009054906101000a900473ffffffffffffffffffffffffffffffffffffffff1673ffffffffffffffffffffffffffffffffffffffff1663095ea7b3600160009054906101000a900473ffffffffffffffffffffffffffffffffffffffff167fffffffffffffffffffffffffffffffffffffffffffffffffffffffffffffffff6040518363ffffffff1660e01b8152600401620002ba9291906200043b565b602060405180830381600087803b158015620002d557600080fd5b505af1158015620002ea573d6000803e3d6000fd5b505050506040513d601f19601f82011682018060405250810190620003109190620003e7565b50505050505050620004ff565b6000815190506200032e81620004cb565b92915050565b6000815190506200034581620004e5565b92915050565b60008060008060008060c087890312156200036b576200036a620004c6565b5b60006200037b89828a016200031d565b96505060206200038e89828a016200031d565b9550506040620003a189828a016200031d565b9450506060620003b489828a016200031d565b9350506080620003c789828a016200031d565b92505060a0620003da89828a016200031d565b9150509295509295509295565b6000602082840312156200040057620003ff620004c6565b5b6000620004108482850162000334565b91505092915050565b620004248162000468565b82525050565b6200043581620004b2565b82525050565b600060408201905062000452600083018562000419565b6200046160208301846200042a565b9392505050565b6000620004758262000488565b9050919050565b60008115159050919050565b600073ffffffffffffffffffffffffffffffffffffffff82169050919050565b6000819050919050565b6000620004bf82620004a8565b9050919050565b600080fd5b620004d68162000468565b8114620004e257600080fd5b50565b620004f0816200047c565b8114620004fc57600080fd5b50565b613ab0806200050f6000396000f3fe6080604052600436106101185760003560e01c80638a78e991116100a0578063b9aba72611610064578063b9aba726146103c7578063bb38b5a714610409578063bddda9bc14610446578063dcc3cd681461045d578063efaa55a01461049b5761011f565b80638a78e991146102cc5780638da5cb5b146103095780638ff3909914610334578063a2f77bcc1461035d578063b3ab15fb1461039e5761011f565b806340e58ee5116100e757806340e58ee5146101ca57806344c9af281461020757806348e837b91461024457806370de828e1461027657806385f2aef2146102a15761011f565b8063095cf5c6146101245780630c0c441b1461014d57806313af403514610178578063144fa6d7146101a15761011f565b3661011f57005b600080fd5b34801561013057600080fd5b5061014b60048036038101906101469190612cd5565b6104cb565b005b34801561015957600080fd5b506101626105bb565b60405161016f91906130a1565b60405180910390f35b34801561018457600080fd5b5061019f600480360381019061019a9190612cd5565b6105e1565b005b3480156101ad57600080fd5b506101c860048036038101906101c39190612cd5565b6106d0565b005b3480156101d657600080fd5b506101f160048036038101906101ec9190612d2f565b6107c0565b6040516101fe9190613258565b60405180910390f35b34801561021357600080fd5b5061022e60048036038101906102299190612d2f565b610a65565b60405161023b9190613433565b60405180910390f35b61025e60048036038101906102599190612d2f565b610bd1565b60405161026d939291906134a1565b60405180910390f35b34801561028257600080fd5b5061028b6114ed565b6040516102989190613433565b60405180910390f35b3480156102ad57600080fd5b506102b66114f7565b6040516102c391906130a1565b60405180910390f35b3480156102d857600080fd5b506102f360048036038101906102ee9190612cd5565b61151d565b6040516103009190613433565b60405180910390f35b34801561031557600080fd5b5061031e611566565b60405161032b91906130a1565b60405180910390f35b34801561034057600080fd5b5061035b60048036038101906103569190612cd5565b61158a565b005b34801561036957600080fd5b50610384600480360381019061037f9190612d2f565b61167a565b60405161039595949392919061344e565b60405180910390f35b3480156103aa57600080fd5b506103c560048036038101906103c09190612cd5565b61175a565b005b3480156103d357600080fd5b506103ee60048036038101906103e99190612d2f565b6118ad565b604051610400969594939291906130bc565b60405180910390f35b34801561041557600080fd5b50610430600480360381019061042b9190612d89565b611969565b60405161043d9190613258565b60405180910390f35b34801561045257600080fd5b5061045b612535565b005b34801561046957600080fd5b50610484600480360381019061047f9190612d2f565b612624565b604051610492929190613221565b60405180910390f35b6104b560048036038101906104b09190612d2f565b612866565b6040516104c29190613258565b60405180910390f35b3373ffffffffffffffffffffffffffffffffffffffff1660008054906101000a900473ffffffffffffffffffffffffffffffffffffffff1673ffffffffffffffffffffffffffffffffffffffff16148061056e5750600860003373ffffffffffffffffffffffffffffffffffffffff1673ffffffffffffffffffffffffffffffffffffffff16815260200190815260200160002060009054906101000a900460ff165b61057757600080fd5b80600160006101000a81548173ffffffffffffffffffffffffffffffffffffffff021916908373ffffffffffffffffffffffffffffffffffffffff16021790555050565b600260009054906101000a900473ffffffffffffffffffffffffffffffffffffffff1681565b3373ffffffffffffffffffffffffffffffffffffffff1660008054906101000a900473ffffffffffffffffffffffffffffffffffffffff1673ffffffffffffffffffffffffffffffffffffffff1614806106845750600860003373ffffffffffffffffffffffffffffffffffffffff1673ffffffffffffffffffffffffffffffffffffffff16815260200190815260200160002060009054906101000a900460ff165b61068d57600080fd5b806000806101000a81548173ffffffffffffffffffffffffffffffffffffffff021916908373ffffffffffffffffffffffffffffffffffffffff16021790555050565b3373ffffffffffffffffffffffffffffffffffffffff1660008054906101000a900473ffffffffffffffffffffffffffffffffffffffff1673ffffffffffffffffffffffffffffffffffffffff1614806107735750600860003373ffffffffffffffffffffffffffffffffffffffff1673ffffffffffffffffffffffffffffffffffffffff16815260200190815260200160002060009054906101000a900460ff165b61077c57600080fd5b80600560006101000a81548173ffffffffffffffffffffffffffffffffffffffff021916908373ffffffffffffffffffffffffffffffffffffffff16021790555050565b60008073ffffffffffffffffffffffffffffffffffffffff166009600084815260200190815260200160002060020160009054906101000a900473ffffffffffffffffffffffffffffffffffffffff1673ffffffffffffffffffffffffffffffffffffffff161461083057600080fd5b3373ffffffffffffffffffffffffffffffffffffffff166009600084815260200190815260200160002060010160009054906101000a900473ffffffffffffffffffffffffffffffffffffffff1673ffffffffffffffffffffffffffffffffffffffff161461089e57600080fd5b600560009054906101000a900473ffffffffffffffffffffffffffffffffffffffff1673ffffffffffffffffffffffffffffffffffffffff1663a9059cbb6009600085815260200190815260200160002060010160009054906101000a900473ffffffffffffffffffffffffffffffffffffffff1660096000868152602001908152602001600020600301546040518363ffffffff1660e01b81526004016109479291906131f8565b602060405180830381600087803b15801561096157600080fd5b505af1158015610975573d6000803e3d6000fd5b505050506040513d601f19601f820116820180604052508101906109999190612d02565b6109d8576040517f08c379a00000000000000000000000000000000000000000000000000000000081526004016109cf906133f3565b60405180910390fd5b6009600083815260200190815260200160002060010160009054906101000a900473ffffffffffffffffffffffffffffffffffffffff1673ffffffffffffffffffffffffffffffffffffffff166108fc66b1a2bc2ec500009081150290604051600060405180830381858888f19350505050158015610a5b573d6000803e3d6000fd5b5060019050919050565b60008060009050600073ffffffffffffffffffffffffffffffffffffffff166009600085815260200190815260200160002060040160009054906101000a900473ffffffffffffffffffffffffffffffffffffffff1673ffffffffffffffffffffffffffffffffffffffff1614610adf5760039050610bc8565b600073ffffffffffffffffffffffffffffffffffffffff166009600085815260200190815260200160002060010160009054906101000a900473ffffffffffffffffffffffffffffffffffffffff1673ffffffffffffffffffffffffffffffffffffffff1614158015610bb45750600073ffffffffffffffffffffffffffffffffffffffff166009600085815260200190815260200160002060020160009054906101000a900473ffffffffffffffffffffffffffffffffffffffff1673ffffffffffffffffffffffffffffffffffffffff16145b15610bc25760019050610bc7565b600290505b5b80915050919050565b600080600080600760003373ffffffffffffffffffffffffffffffffffffffff1673ffffffffffffffffffffffffffffffffffffffff1681526020019081526020016000205414610c57576040517f08c379a0000000000000000000000000000000000000000000000000000000008152600401610c4e90613293565b60405180910390fd5b66b1a2bc2ec50000341015610ca1576040517f08c379a0000000000000000000000000000000000000000000000000000000008152600401610c9890613313565b60405180910390fd5b60008411610ce4576040517f08c379a0000000000000000000000000000000000000000000000000000000008152600401610cdb90613273565b60405180910390fd5b69021e19e0c9bab2400000821115610d31576040517f08c379a0000000000000000000000000000000000000000000000000000000008152600401610d28906132f3565b60405180910390fd5b600560009054906101000a900473ffffffffffffffffffffffffffffffffffffffff1673ffffffffffffffffffffffffffffffffffffffff166323b872dd3330876040518463ffffffff1660e01b8152600401610d909392919061311d565b602060405180830381600087803b158015610daa57600080fd5b505af1158015610dbe573d6000803e3d6000fd5b505050506040513d601f19601f82011682018060405250810190610de29190612d02565b610e21576040517f08c379a0000000000000000000000000000000000000000000000000000000008152600401610e1890613413565b60405180910390fd5b60648210158015610e3357506103e882105b15611155576000600460009054906101000a900473ffffffffffffffffffffffffffffffffffffffff1673ffffffffffffffffffffffffffffffffffffffff1662fdd58e3360016040518363ffffffff1660e01b8152600401610e97929190613154565b602060405180830381600087803b158015610eb157600080fd5b505af1158015610ec5573d6000803e3d6000fd5b505050506040513d601f19601f82011682018060405250810190610ee99190612d5c565b1180610fa357506000600460009054906101000a900473ffffffffffffffffffffffffffffffffffffffff1673ffffffffffffffffffffffffffffffffffffffff1662fdd58e3360026040518363ffffffff1660e01b8152600401610f4f92919061317d565b602060405180830381600087803b158015610f6957600080fd5b505af1158015610f7d573d6000803e3d6000fd5b505050506040513d601f19601f82011682018060405250810190610fa19190612d5c565b115b8061105c57506000600460009054906101000a900473ffffffffffffffffffffffffffffffffffffffff1673ffffffffffffffffffffffffffffffffffffffff1662fdd58e3360036040518363ffffffff1660e01b81526004016110089291906131a6565b602060405180830381600087803b15801561102257600080fd5b505af1158015611036573d6000803e3d6000fd5b505050506040513d601f19601f8201168201806040525081019061105a9190612d5c565b115b8061111557506000600460009054906101000a900473ffffffffffffffffffffffffffffffffffffffff1673ffffffffffffffffffffffffffffffffffffffff1662fdd58e3360046040518363ffffffff1660e01b81526004016110c19291906131cf565b602060405180830381600087803b1580156110db57600080fd5b505af11580156110ef573d6000803e3d6000fd5b505050506040513d601f19601f820116820180604052508101906111139190612d5c565b115b611154576040517f08c379a000000000000000000000000000000000000000000000000000000000815260040161114b90613393565b60405180910390fd5b5b683635c9adc5dea000008210611253576000600660009054906101000a900473ffffffffffffffffffffffffffffffffffffffff1673ffffffffffffffffffffffffffffffffffffffff166370a08231336040518263ffffffff1660e01b81526004016111c291906130a1565b60206040518083038186803b1580156111da57600080fd5b505afa1580156111ee573d6000803e3d6000fd5b505050506040513d601f19601f820116820180604052508101906112129190612d5c565b11611252576040517f08c379a0000000000000000000000000000000000000000000000000000000008152600401611249906133b3565b60405180910390fd5b5b600354600760003373ffffffffffffffffffffffffffffffffffffffff1673ffffffffffffffffffffffffffffffffffffffff1681526020019081526020016000208190555060006040518060c00160405280600073ffffffffffffffffffffffffffffffffffffffff1681526020013373ffffffffffffffffffffffffffffffffffffffff168152602001600073ffffffffffffffffffffffffffffffffffffffff168152602001868152602001600073ffffffffffffffffffffffffffffffffffffffff1681526020014281525090508060096000600354815260200190815260200160002060008201518160000160006101000a81548173ffffffffffffffffffffffffffffffffffffffff021916908373ffffffffffffffffffffffffffffffffffffffff16021790555060208201518160010160006101000a81548173ffffffffffffffffffffffffffffffffffffffff021916908373ffffffffffffffffffffffffffffffffffffffff16021790555060408201518160020160006101000a81548173ffffffffffffffffffffffffffffffffffffffff021916908373ffffffffffffffffffffffffffffffffffffffff1602179055506060820151816003015560808201518160040160006101000a81548173ffffffffffffffffffffffffffffffffffffffff021916908373ffffffffffffffffffffffffffffffffffffffff16021790555060a0820151816005015590505060036000815480929190611481906136c7565b9190505550843373ffffffffffffffffffffffffffffffffffffffff1660016003546114ad9190613603565b7f6b8b1103b014d316d2e1ce2360505f35ad5291576b96e2ece01628c739910d3f60405160405180910390a4600354856000935093509350509193909250565b6000600354905090565b600160009054906101000a900473ffffffffffffffffffffffffffffffffffffffff1681565b6000600760008373ffffffffffffffffffffffffffffffffffffffff1673ffffffffffffffffffffffffffffffffffffffff168152602001908152602001600020549050919050565b60008054906101000a900473ffffffffffffffffffffffffffffffffffffffff1681565b3373ffffffffffffffffffffffffffffffffffffffff1660008054906101000a900473ffffffffffffffffffffffffffffffffffffffff1673ffffffffffffffffffffffffffffffffffffffff16148061162d5750600860003373ffffffffffffffffffffffffffffffffffffffff1673ffffffffffffffffffffffffffffffffffffffff16815260200190815260200160002060009054906101000a900460ff165b61163657600080fd5b80600260006101000a81548173ffffffffffffffffffffffffffffffffffffffff021916908373ffffffffffffffffffffffffffffffffffffffff16021790555050565b600080600080600061168b86610a65565b60096000888152602001908152602001600020600301546009600089815260200190815260200160002060010160009054906101000a900473ffffffffffffffffffffffffffffffffffffffff16600960008a815260200190815260200160002060020160009054906101000a900473ffffffffffffffffffffffffffffffffffffffff16600960008b815260200190815260200160002060040160009054906101000a900473ffffffffffffffffffffffffffffffffffffffff169450945094509450945091939590929450565b3373ffffffffffffffffffffffffffffffffffffffff1660008054906101000a900473ffffffffffffffffffffffffffffffffffffffff1673ffffffffffffffffffffffffffffffffffffffff1614806117fd5750600860003373ffffffffffffffffffffffffffffffffffffffff1673ffffffffffffffffffffffffffffffffffffffff16815260200190815260200160002060009054906101000a900460ff165b61180657600080fd5b600860008273ffffffffffffffffffffffffffffffffffffffff1673ffffffffffffffffffffffffffffffffffffffff16815260200190815260200160002060009054906101000a900460ff1615600860008373ffffffffffffffffffffffffffffffffffffffff1673ffffffffffffffffffffffffffffffffffffffff16815260200190815260200160002060006101000a81548160ff02191690831515021790555050565b60096020528060005260406000206000915090508060000160009054906101000a900473ffffffffffffffffffffffffffffffffffffffff16908060010160009054906101000a900473ffffffffffffffffffffffffffffffffffffffff16908060020160009054906101000a900473ffffffffffffffffffffffffffffffffffffffff16908060030154908060040160009054906101000a900473ffffffffffffffffffffffffffffffffffffffff16908060050154905086565b60003373ffffffffffffffffffffffffffffffffffffffff1660008054906101000a900473ffffffffffffffffffffffffffffffffffffffff1673ffffffffffffffffffffffffffffffffffffffff161480611a0e5750600860003373ffffffffffffffffffffffffffffffffffffffff1673ffffffffffffffffffffffffffffffffffffffff16815260200190815260200160002060009054906101000a900460ff165b611a1757600080fd5b600073ffffffffffffffffffffffffffffffffffffffff166009600085815260200190815260200160002060040160009054906101000a900473ffffffffffffffffffffffffffffffffffffffff1673ffffffffffffffffffffffffffffffffffffffff1614611a8657600080fd5b600073ffffffffffffffffffffffffffffffffffffffff166009600085815260200190815260200160002060020160009054906101000a900473ffffffffffffffffffffffffffffffffffffffff1673ffffffffffffffffffffffffffffffffffffffff161415611af657600080fd5b6009600084815260200190815260200160002060000160009054906101000a900473ffffffffffffffffffffffffffffffffffffffff1673ffffffffffffffffffffffffffffffffffffffff163373ffffffffffffffffffffffffffffffffffffffff1614611b6457600080fd5b600073ffffffffffffffffffffffffffffffffffffffff168273ffffffffffffffffffffffffffffffffffffffff161415611e9d57600560009054906101000a900473ffffffffffffffffffffffffffffffffffffffff1673ffffffffffffffffffffffffffffffffffffffff1663a9059cbb6009600086815260200190815260200160002060010160009054906101000a900473ffffffffffffffffffffffffffffffffffffffff1660096000878152602001908152602001600020600301546040518363ffffffff1660e01b8152600401611c429291906131f8565b602060405180830381600087803b158015611c5c57600080fd5b505af1158015611c70573d6000803e3d6000fd5b505050506040513d601f19601f82011682018060405250810190611c949190612d02565b611cd3576040517f08c379a0000000000000000000000000000000000000000000000000000000008152600401611cca906133d3565b60405180910390fd5b600560009054906101000a900473ffffffffffffffffffffffffffffffffffffffff1673ffffffffffffffffffffffffffffffffffffffff1663a9059cbb6009600086815260200190815260200160002060020160009054906101000a900473ffffffffffffffffffffffffffffffffffffffff1660096000878152602001908152602001600020600301546040518363ffffffff1660e01b8152600401611d7c9291906131f8565b602060405180830381600087803b158015611d9657600080fd5b505af1158015611daa573d6000803e3d6000fd5b505050506040513d601f19601f82011682018060405250810190611dce9190612d02565b611e0d576040517f08c379a0000000000000000000000000000000000000000000000000000000008152600401611e0490613373565b60405180910390fd5b6009600084815260200190815260200160002060000160009054906101000a900473ffffffffffffffffffffffffffffffffffffffff166009600085815260200190815260200160002060040160006101000a81548173ffffffffffffffffffffffffffffffffffffffff021916908373ffffffffffffffffffffffffffffffffffffffff160217905550612355565b816009600085815260200190815260200160002060040160006101000a81548173ffffffffffffffffffffffffffffffffffffffff021916908373ffffffffffffffffffffffffffffffffffffffff16021790555060006064600860026009600088815260200190815260200160002060030154611f1b91906135a9565b611f2591906135a9565b611f2f9190613578565b9050600560009054906101000a900473ffffffffffffffffffffffffffffffffffffffff1673ffffffffffffffffffffffffffffffffffffffff166342966c68600183611f7c9190613603565b6040518263ffffffff1660e01b8152600401611f989190613433565b600060405180830381600087803b158015611fb257600080fd5b505af1158015611fc6573d6000803e3d6000fd5b5050505060006064600160026009600089815260200190815260200160002060030154611ff391906135a9565b611ffd91906135a9565b6120079190613578565b9050600160009054906101000a900473ffffffffffffffffffffffffffffffffffffffff1673ffffffffffffffffffffffffffffffffffffffff166347e7ef24600560009054906101000a900473ffffffffffffffffffffffffffffffffffffffff166001846120779190613603565b6040518363ffffffff1660e01b81526004016120949291906131f8565b602060405180830381600087803b1580156120ae57600080fd5b505af11580156120c2573d6000803e3d6000fd5b505050506040513d601f19601f820116820180604052508101906120e69190612d02565b6120ef57600080fd5b6000606460016002600960008a81526020019081526020016000206003015461211891906135a9565b61212291906135a9565b61212c9190613578565b9050600560009054906101000a900473ffffffffffffffffffffffffffffffffffffffff1673ffffffffffffffffffffffffffffffffffffffff1663a9059cbb600260009054906101000a900473ffffffffffffffffffffffffffffffffffffffff1660018461219c9190613603565b6040518363ffffffff1660e01b81526004016121b99291906131f8565b602060405180830381600087803b1580156121d357600080fd5b505af11580156121e7573d6000803e3d6000fd5b505050506040513d601f19601f8201168201806040525081019061220b9190612d02565b61221457600080fd5b60008183856122239190613522565b61222d9190613522565b90506000816002600960008b81526020019081526020016000206003015461225591906135a9565b61225f9190613603565b9050600560009054906101000a900473ffffffffffffffffffffffffffffffffffffffff1673ffffffffffffffffffffffffffffffffffffffff1663a9059cbb88836040518363ffffffff1660e01b81526004016122be9291906131f8565b602060405180830381600087803b1580156122d857600080fd5b505af11580156122ec573d6000803e3d6000fd5b505050506040513d601f19601f820116820180604052508101906123109190612d02565b61234f576040517f08c379a000000000000000000000000000000000000000000000000000000000815260040161234690613353565b60405180910390fd5b50505050505b6000600760006009600087815260200190815260200160002060010160009054906101000a900473ffffffffffffffffffffffffffffffffffffffff1673ffffffffffffffffffffffffffffffffffffffff1673ffffffffffffffffffffffffffffffffffffffff168152602001908152602001600020819055506000600760006009600087815260200190815260200160002060020160009054906101000a900473ffffffffffffffffffffffffffffffffffffffff1673ffffffffffffffffffffffffffffffffffffffff1673ffffffffffffffffffffffffffffffffffffffff1681526020019081526020016000208190555060096000848152602001908152602001600020600301548273ffffffffffffffffffffffffffffffffffffffff16847f2a991d598ea2abce3d34c6b8bee9e873343e82067779769b2f3481bc30403edf60405160405180910390a46009600084815260200190815260200160002060000160009054906101000a900473ffffffffffffffffffffffffffffffffffffffff1673ffffffffffffffffffffffffffffffffffffffff166108fc67016345785d8a00009081150290604051600060405180830381858888f1935050505015801561252a573d6000803e3d6000fd5b506001905092915050565b3373ffffffffffffffffffffffffffffffffffffffff1660008054906101000a900473ffffffffffffffffffffffffffffffffffffffff1673ffffffffffffffffffffffffffffffffffffffff1614806125d85750600860003373ffffffffffffffffffffffffffffffffffffffff1673ffffffffffffffffffffffffffffffffffffffff16815260200190815260200160002060009054906101000a900460ff165b6125e157600080fd5b60008060006101000a81548173ffffffffffffffffffffffffffffffffffffffff021916908373ffffffffffffffffffffffffffffffffffffffff160217905550565b6060806000808490505b6003548110156126c557600073ffffffffffffffffffffffffffffffffffffffff166009600083815260200190815260200160002060040160009054906101000a900473ffffffffffffffffffffffffffffffffffffffff1673ffffffffffffffffffffffffffffffffffffffff1614156126b25781806126ae906136c7565b9250505b80806126bd906136c7565b91505061262e565b5060008167ffffffffffffffff8111156126e2576126e161379d565b5b6040519080825280602002602001820160405280156127105781602001602082028036833780820191505090505b50905060008267ffffffffffffffff81111561272f5761272e61379d565b5b60405190808252806020026020018201604052801561275d5781602001602082028036833780820191505090505b5090506000925060008690505b60035481101561285757600073ffffffffffffffffffffffffffffffffffffffff166009600083815260200190815260200160002060040160009054906101000a900473ffffffffffffffffffffffffffffffffffffffff1673ffffffffffffffffffffffffffffffffffffffff16141561284457808385815181106127f3576127f261376e565b5b60200260200101818152505060096000828152602001908152602001600020600501548285815181106128295761282861376e565b5b6020026020010181815250508380612840906136c7565b9450505b808061284f906136c7565b91505061276a565b50818194509450505050915091565b600066b1a2bc2ec500003410156128b2576040517f08c379a00000000000000000000000000000000000000000000000000000000081526004016128a990613313565b60405180910390fd5b6000600760003373ffffffffffffffffffffffffffffffffffffffff1673ffffffffffffffffffffffffffffffffffffffff1681526020019081526020016000205414612934576040517f08c379a000000000000000000000000000000000000000000000000000000000815260040161292b90613293565b60405180910390fd5b600560009054906101000a900473ffffffffffffffffffffffffffffffffffffffff1673ffffffffffffffffffffffffffffffffffffffff166323b872dd333060096000878152602001908152602001600020600301546040518463ffffffff1660e01b81526004016129a99392919061311d565b602060405180830381600087803b1580156129c357600080fd5b505af11580156129d7573d6000803e3d6000fd5b505050506040513d601f19601f820116820180604052508101906129fb9190612d02565b612a3a576040517f08c379a0000000000000000000000000000000000000000000000000000000008152600401612a31906132b3565b60405180910390fd5b600073ffffffffffffffffffffffffffffffffffffffff166009600084815260200190815260200160002060040160009054906101000a900473ffffffffffffffffffffffffffffffffffffffff1673ffffffffffffffffffffffffffffffffffffffff1614612adf576040517f08c379a0000000000000000000000000000000000000000000000000000000008152600401612ad6906132d3565b60405180910390fd5b600073ffffffffffffffffffffffffffffffffffffffff166009600084815260200190815260200160002060020160009054906101000a900473ffffffffffffffffffffffffffffffffffffffff1673ffffffffffffffffffffffffffffffffffffffff1614612b84576040517f08c379a0000000000000000000000000000000000000000000000000000000008152600401612b7b90613333565b60405180910390fd5b81600760003373ffffffffffffffffffffffffffffffffffffffff1673ffffffffffffffffffffffffffffffffffffffff16815260200190815260200160002081905550336009600084815260200190815260200160002060020160006101000a81548173ffffffffffffffffffffffffffffffffffffffff021916908373ffffffffffffffffffffffffffffffffffffffff16021790555060096000838152602001908152602001600020600301543373ffffffffffffffffffffffffffffffffffffffff16837fd301e84700dc95781227dac9f35e8f75b83044f757c2f704d5b29480995511e560405160405180910390a460019050919050565b600081359050612c9081613a35565b92915050565b600081519050612ca581613a4c565b92915050565b600081359050612cba81613a63565b92915050565b600081519050612ccf81613a63565b92915050565b600060208284031215612ceb57612cea6137cc565b5b6000612cf984828501612c81565b91505092915050565b600060208284031215612d1857612d176137cc565b5b6000612d2684828501612c96565b91505092915050565b600060208284031215612d4557612d446137cc565b5b6000612d5384828501612cab565b91505092915050565b600060208284031215612d7257612d716137cc565b5b6000612d8084828501612cc0565b91505092915050565b60008060408385031215612da057612d9f6137cc565b5b6000612dae85828601612cab565b9250506020612dbf85828601612c81565b9150509250929050565b6000612dd58383613083565b60208301905092915050565b612dea81613637565b82525050565b6000612dfb826134e8565b612e058185613500565b9350612e10836134d8565b8060005b83811015612e41578151612e288882612dc9565b9750612e33836134f3565b925050600181019050612e14565b5085935050505092915050565b612e5781613649565b82525050565b612e668161367f565b82525050565b612e7581613691565b82525050565b612e84816136a3565b82525050565b612e93816136b5565b82525050565b6000612ea6601a83613511565b9150612eb1826137d1565b602082019050919050565b6000612ec9601b83613511565b9150612ed4826137fa565b602082019050919050565b6000612eec600f83613511565b9150612ef782613823565b602082019050919050565b6000612f0f601383613511565b9150612f1a8261384c565b602082019050919050565b6000612f32600c83613511565b9150612f3d82613875565b602082019050919050565b6000612f55602c83613511565b9150612f608261389e565b604082019050919050565b6000612f78600a83613511565b9150612f83826138ed565b602082019050919050565b6000612f9b601883613511565b9150612fa682613916565b602082019050919050565b6000612fbe601383613511565b9150612fc98261393f565b602082019050919050565b6000612fe1601e83613511565b9150612fec82613968565b602082019050919050565b6000613004601f83613511565b915061300f82613991565b602082019050919050565b6000613027601383613511565b9150613032826139ba565b602082019050919050565b600061304a601083613511565b9150613055826139e3565b602082019050919050565b600061306d601583613511565b915061307882613a0c565b602082019050919050565b61308c81613675565b82525050565b61309b81613675565b82525050565b60006020820190506130b66000830184612de1565b92915050565b600060c0820190506130d16000830189612de1565b6130de6020830188612de1565b6130eb6040830187612de1565b6130f86060830186613092565b6131056080830185612de1565b61311260a0830184613092565b979650505050505050565b60006060820190506131326000830186612de1565b61313f6020830185612de1565b61314c6040830184613092565b949350505050565b60006040820190506131696000830185612de1565b6131766020830184612e5d565b9392505050565b60006040820190506131926000830185612de1565b61319f6020830184612e6c565b9392505050565b60006040820190506131bb6000830185612de1565b6131c86020830184612e7b565b9392505050565b60006040820190506131e46000830185612de1565b6131f16020830184612e8a565b9392505050565b600060408201905061320d6000830185612de1565b61321a6020830184613092565b9392505050565b6000604082019050818103600083015261323b8185612df0565b9050818103602083015261324f8184612df0565b90509392505050565b600060208201905061326d6000830184612e4e565b92915050565b6000602082019050818103600083015261328c81612e99565b9050919050565b600060208201905081810360008301526132ac81612ebc565b9050919050565b600060208201905081810360008301526132cc81612edf565b9050919050565b600060208201905081810360008301526132ec81612f02565b9050919050565b6000602082019050818103600083015261330c81612f25565b9050919050565b6000602082019050818103600083015261332c81612f48565b9050919050565b6000602082019050818103600083015261334c81612f6b565b9050919050565b6000602082019050818103600083015261336c81612f8e565b9050919050565b6000602082019050818103600083015261338c81612fb1565b9050919050565b600060208201905081810360008301526133ac81612fd4565b9050919050565b600060208201905081810360008301526133cc81612ff7565b9050919050565b600060208201905081810360008301526133ec8161301a565b9050919050565b6000602082019050818103600083015261340c8161303d565b9050919050565b6000602082019050818103600083015261342c81613060565b9050919050565b60006020820190506134486000830184613092565b92915050565b600060a0820190506134636000830188613092565b6134706020830187613092565b61347d6040830186612de1565b61348a6060830185612de1565b6134976080830184612de1565b9695505050505050565b60006060820190506134b66000830186613092565b6134c36020830185613092565b6134d06040830184612e4e565b949350505050565b6000819050602082019050919050565b600081519050919050565b6000602082019050919050565b600082825260208201905092915050565b600082825260208201905092915050565b600061352d82613675565b915061353883613675565b9250827fffffffffffffffffffffffffffffffffffffffffffffffffffffffffffffffff0382111561356d5761356c613710565b5b828201905092915050565b600061358382613675565b915061358e83613675565b92508261359e5761359d61373f565b5b828204905092915050565b60006135b482613675565b91506135bf83613675565b9250817fffffffffffffffffffffffffffffffffffffffffffffffffffffffffffffffff04831182151516156135f8576135f7613710565b5b828202905092915050565b600061360e82613675565b915061361983613675565b92508282101561362c5761362b613710565b5b828203905092915050565b600061364282613655565b9050919050565b60008115159050919050565b600073ffffffffffffffffffffffffffffffffffffffff82169050919050565b6000819050919050565b600061368a82613675565b9050919050565b600061369c82613675565b9050919050565b60006136ae82613675565b9050919050565b60006136c082613675565b9050919050565b60006136d282613675565b91507fffffffffffffffffffffffffffffffffffffffffffffffffffffffffffffffff82141561370557613704613710565b5b600182019050919050565b7f4e487b7100000000000000000000000000000000000000000000000000000000600052601160045260246000fd5b7f4e487b7100000000000000000000000000000000000000000000000000000000600052601260045260246000fd5b7f4e487b7100000000000000000000000000000000000000000000000000000000600052603260045260246000fd5b7f4e487b7100000000000000000000000000000000000000000000000000000000600052604160045260246000fd5b600080fd5b7f426574206d75737420626520686967686572207468616e203021000000000000600082015250565b7f616c7265616479206a6f696e65656420612067616d652061746d210000000000600082015250565b7f7061796d656e74206661696c6564210000000000000000000000000000000000600082015250565b7f67616d6520776173207368757420646f776e2100000000000000000000000000600082015250565b7f62657420746f6f20626967210000000000000000000000000000000000000000600082015250565b7f706c656173652070726f76696465206120666565206f66206174206c6561737460008201527f20302e3035204d41544943210000000000000000000000000000000000000000602082015250565b7f67616d652066756c6c2100000000000000000000000000000000000000000000600082015250565b7f7472616e73666572206661696c65642c2077696e6e6572210000000000000000600082015250565b7f7472616e73666572206661696c65642c20322100000000000000000000000000600082015250565b7f506c65617365207075726368736520636f696e21202865726331313535290000600082015250565b7f706c656173652070757263686173652061206e66742e20286572633732312900600082015250565b7f7472616e73666572206661696c65642c20312100000000000000000000000000600082015250565b7f7472616e73666572206661696c65642100000000000000000000000000000000600082015250565b7f626574207472616e7366657220206661696c6564210000000000000000000000600082015250565b613a3e81613637565b8114613a4957600080fd5b50565b613a5581613649565b8114613a6057600080fd5b50565b613a6c81613675565b8114613a7757600080fd5b5056fea26469706673582212201a0f14a40d1ddc977579f29a8e784582dcafb917fada0501d46251d911f600be64736f6c63430008070033",
  "linkReferences": {},
  "deployedLinkReferences": {}
}